:020000040800F2
:10000000000B002045040008950100089701000836
:100010009B0100089F010008A301000800000000E8
:10002000000000000000000000000000A701000820
:10003000A901000800000000AB010008AD010008A4
:100040005F0400085F0400085F0400085F04000804
:100050005F0400085F0400085F04000833400008E4
:100060005F0400085F0400085F0400085F040008E4
:100070005F0400085F0400085F0400085F040008D4
:100080005F0400085F0400085F0400085F040008C4
:100090005F0400085F0400085F0400085F040008B4
:1000A0005F0400085F0400085F0400085F040008A4
:1000B0005139000837320008393900085F04000858
:1000C0005F0400085F0400085F0400085F04000884
:1000D0005F040008FB2B0008252C0008392D0008C0
:1000E0007F3F00085F0400085F04000800F002F88A
:1000F00000F03AF80AA090E8000C82448344AAF188
:100100000107DA4501D100F02FF8AFF2090EBAE885
:100110000F0013F0010F18BFFB1A43F0010318473B
:10012000045C0000245C0000103A24BF78C878C149
:10013000FAD8520724BF30C830C144BF04680C60ED
:10014000704700000023002400250026103A28BF35
:1001500078C1FBD8520728BF30C148BF0B60704739
:100160001FB51FBD10B510BD04F039FC1146FFF7D7
:10017000F7FF00F00DF904F057FC03B4FFF7F2FFAE
:1001800003BC02F035FC000030BF72B662B680F3EB
:1001900008887047704700BFFEE700BFFEE700BF5A
:1001A000FEE700BFFEE770477047704770470000EA
:1001B0000CB50020019000906C48006840F480303D
:1001C0006A49086000BF6948006800F40030009088
:1001D0000198401C0190009818B90198B0F5A06FE3
:1001E000F1D16248006800F4003010B101200090A5
:1001F00001E0002000900098012843D15C4800688D
:1002000040F010005A4908600846006820F00300DA
:1002100008600846006840F00200086053484068E3
:10022000524948600846406848600846406840F4C3
:10023000806048600846406820F47C1048600846AA
:10024000406840F4E81048600846006840F080705C
:10025000086000BF4548006800F000700028F9D031
:100260004248406820F00300404948600846406822
:1002700040F00200486000BF3C48406800F00C00BD
:100280000828F9D10CBD10B5FFF792FF10BD10B5CD
:100290003648006840F0010034490860084640686C
:1002A00034490840314948600846006832490840EE
:1002B0002E4908600846006820F48020086008463F
:1002C000406820F4FE0048604FF41F008860FFF78C
:1002D000DAFF4FF000602949086010BD10B5002119
:1002E00000200022214B5B6803F00C0121B104299E
:1002F00006D0082928D107E0214B224C236027E0B3
:100300001F4B204C236023E0184B5B6803F47010F4
:10031000164B5B6803F48032022303EB904022B952
:10032000194B4343174C23600DE0104B5B6803F4FB
:10033000003323B1144B4343124C236003E0104BB2
:100340004343104C236003E00D4B0E4C236000BF71
:1003500000BF064B5B68C3F303130C4CE15C094B15
:100360001B68CB40074C236010BD0000001002400A
:10037000002002400000FFF8FFFFF6FE08ED00E05D
:1003800000127A000000002000093D000400002057
:1003900002F058F94FF4E13002F085FB4FF4E13000
:1003A00002F0D8FB022002F0B5FA012002F0B2FA06
:1003B00002F0B8FD022002F0C3F94721682002F0E4
:1003C00097FF03F0FDF903F048FA02F0FFFE17482B
:1003D00002F0C0FD03F002FD03F0CFFB04F090F942
:1003E00002F03BFD4FF40051114800F0A8FD4FF41E
:1003F000FA7002F064F94FF400510D4800F09DFDD1
:1004000001210C4801F0E9FF01210B4801F038FC03
:100410000BE0022003F06BFA08490860042003F0A7
:1004200066FA0749086004F06BF9F2E7580000200B
:100430000010014000480040000400401C00002063
:10044000200000200948804709480047FEE7FEE7F2
:10045000FEE7FEE7FEE7FEE7FEE7FEE7FEE7FEE774
:1004600004480549054A064B704700008F02000802
:10047000ED00000800050020000B00200007002010
:100480000007002031490143314A1160704770B5BF
:10049000002100230F22C47804B32D4C246804F4F7
:1004A000E064C4F5E064210AC1F10403CA40447861
:1004B00004FA03F18478144021430901254C06789D
:1004C000A155047804F01F050124AC4005786D1196
:1004D000AD0005F1E025C5F8004109E0047804F01D
:1004E0001F050124AC401C4D0678761145F82640C6
:1004F00070BD1A4A0A400243154B1B1F1A60704711
:1005000039B1134A121D12680243114B1B1D1A60A8
:1005100006E00F4A121D126882430D4B1B1D1A6024
:100520007047042808D14FF0E021096941F0040127
:100530004FF0E022116107E04FF0E021096921F05E
:1005400004014FF0E0221161704700000000FA053D
:100550000CED00E000E400E080E100E080FFFF1F20
:1005600010B50446FA48844208D10121401500F034
:100570000DFF0021601500F009FF17E0F5488442E7
:1005800008D10121001500F001FF0021201500F025
:10059000FDFE0BE0F048844208D10121C80300F0C1
:1005A000F5FE00214FF4004000F0F0FE10BD30B524
:1005B0000246002000235068E84C20400D790C686A
:1005C00044EA0524204350609068E54C2040D1E97E
:1005D00002542C434D7944EA450420439060D06A8C
:1005E00020F470000C7C641EE4B2234340EA035004
:1005F000D06230BD00210160017141718160C16034
:1006000001210174704721B1826842F001028260C9
:1006100003E0826822F001028260704721B18268A3
:1006200042F48072826003E0826822F48072826009
:10063000704710B50023CBB21AB144681C43446024
:1006400002E044689C43446010BD816841F00801A9
:1006500081607047014600208A6802F008020AB1F2
:10066000012000E000207047816841F004018160B2
:100670007047014600208A6802F004020AB1012096
:1006800000E00020704721B1826842F4A00282603D
:1006900003E0826822F4A0028260704701460020D5
:1006A0008A6802F480020AB1012000E0002070474D
:1006B00010B50A4600210023416821F46041531E11
:1006C00041EA4331416010BD21B1426842F4006209
:1006D000426003E0426822F4006242607047F0B575
:1006E00004460D4600200021092D11DDE068A5F12A
:1006F0000A0606EB4607072606FA07F18843A5F126
:100700000A0606EB460603FA06F10843E0600CE031
:10071000206905EB4507072606FA07F1884305EB34
:10072000450603FA06F108432061072A0FDA606BD9
:10073000561E06EB86071F2606FA07F18843561E4B
:1007400006EB860605FA06F10843606322E00D2AEF
:100750000FDA206BD61F06EB86071F2606FA07F175
:100760008843D61F06EB860605FA06F10843206388
:1007700010E0E06AA2F10D0606EB86071F2606FAD6
:1007800007F18843A2F10D0606EB860605FA06F18D
:100790000843E062F0BD21B1826842F480128260B9
:1007A00003E0826822F48012826070470146C86CC0
:1007B00080B2704766484C300068704721B142688B
:1007C00042F48062426003E0426822F48062426048
:1007D000704721B1426842F48052426003E04268AF
:1007E00022F48052426070470A460021816821F459
:1007F000E04111438160704721B1826842F40042B8
:10080000826003E0826822F400428260704721B176
:10081000826842F40212826003E0826822F40212CB
:1008200082607047014600208A6802F400120AB113
:10083000012000E000207047F0B504461546002076
:1008400000220026092911DDE068A1F10A0707EB63
:10085000470C072707FA0CF29043A1F10A0707EBB0
:10086000470703FA07F21043E0600CE0206901EB50
:10087000410C072707FA0CF2904301EB410703FAFA
:1008800007F210432061A06BC0F30156EF1C06F184
:10089000010CA7EB0C0707EB870C1F2707FA0CF2DC
:1008A0009043EF1C06F1010CA7EB0C0707EB870741
:1008B00001FA07F21043A063F0BD10B50A4600210B
:1008C0000023816B21F44011531E41EA03518163DF
:1008D00010BD08B5002300930090009B0B440093CB
:1008E000009B1A6008BD08B50246002000900092E7
:1008F00001F12800009B184400900098006880B225
:1009000008BD0A4600214168164B19401143416059
:1009100070474162826270470A460021416821F0B7
:100920001F0111434160704740B10949083109680E
:1009300041F40001064A0832116007E00449083119
:10094000096821F40001024A083211607047000072
:100950000024014000280140003C0140FFFEF0FF60
:10096000FDF7F1FFFFFD3FFF0246002013680B403B
:100970000BB1012000E000207047CA4302607047BD
:1009800070B502460020002300240B125568CEB239
:1009900005EA060415681D4015B10CB1012000E000
:1009A000002070BD00220A12D3430360704700008C
:1009B00001684FF6FE721140016000210160416044
:1009C0008160C1608D49884208D18C4908394968E5
:1009D00041F00F01894A083A51608AE08749143191
:1009E000884208D185490839496841F0F001834AB5
:1009F000083A51607DE081492831884208D17F4919
:100A00000839496841F470617C4A083A516070E0E5
:100A10007A493C31884208D178490839496841F41B
:100A20007041764A083A516063E074495031884217
:100A300008D172490839496841F470216F4A083A6F
:100A4000516056E06D496431884208D16B490839DC
:100A5000496841F47001694A083A516049E06749C0
:100A60007831884208D165490839496841F0706198
:100A7000624A083A51603CE06149884206D1011F50
:100A8000096841F00F01021F116032E05C49143126
:100A9000884208D15A49091F096841F0F001584AB3
:100AA000121F116025E056492831884208D1544967
:100AB000091F096841F47061514A121F116018E062
:100AC0004F493C31884208D14D49091F096841F41A
:100AD00070414B4A121F11600BE049495031884266
:100AE00007D14749091F096841F47021444A121F80
:100AF0001160704710B50022026847F6F0739A4300
:100B00000C6A8B6823430C6923434C6923438C692B
:100B10002343CC6923434C6A23438C6A23431A43FF
:100B20000260CB6843600B6883604B68C36010BD94
:100B30000021016041608160C160016141618161AA
:100B4000C161016241628162704721B1026842F075
:100B50000102026004E002684FF6FE731A40026070
:100B600070471AB103680B43036002E003688B43CC
:100B700003607047416070470146486880B2704723
:100B800001460020002201F080531BB11C4B083BA2
:100B90001A6802E0194B083B1A6802EA01030BB11C
:100BA000012000E00020704700F0805119B1144985
:100BB000091F086002E01149083948607047014682
:100BC0000020002201F080531BB10D4B083B1A6836
:100BD00002E00A4B083B1A6802EA01030BB101204C
:100BE00000E00020704700F0805119B10449091F4E
:100BF000086002E001490839486070470800024077
:100C000008040240002044490860091D0860091DCD
:100C10000860091D086041483F4914310860704769
:100C200000213D498279002A3AD00A4612680368B9
:100C30009A430B461A600A1D126803689A430B1DFB
:100C40001A60027911440A6803681A430A60324A3A
:100C50000832126803689A432F4B08331A601A1D32
:100C6000126803689A432C4B0C331A604279102A9D
:100C70000ED11A1F126803681A43274B08331A60F3
:100C80001A1D126803681A43234B0C331A600DE0D7
:100C90002149427911440A6803681A430A6005E051
:100CA000027911440A6803689A430A607047002178
:100CB000016001710C214171002181717047164959
:100CC000103109680143144A10321160704701461F
:100CD0000020114A143212680A400AB1012000E0D3
:100CE000002070470C49143108607047014600200D
:100CF0000022094B1B6803EA0102074B14331B68EF
:100D00000B4013B10AB1012000E0002070470249F6
:100D1000143108607047000000040140FFFF0F001D
:100D200010B50446CC48844208D10121042000F0CB
:100D30002DFB0021042000F029FB46E0C748844237
:100D400008D10121082000F021FB0021082000F03B
:100D50001DFB3AE0C248844208D10121102000F076
:100D600015FB0021102000F011FB2EE0BD4884424D
:100D700008D10121202000F009FB0021202000F0F3
:100D800005FB22E0B848844208D10121402000F050
:100D9000FDFA0021402000F0F9FA16E0B348844241
:100DA00008D10121802000F0F1FA0021802000F01C
:100DB000EDFA0AE0AE48844207D10121801500F027
:100DC000E5FA0021A01500F0E1FA10BD10B50121EF
:100DD000084600F0DBFA0021012000F0D7FA10BD30
:100DE0002DE9F041024600250026002000230024C2
:100DF000002791F803C00CF00F0591F803C00CF028
:100E0000100CBCF1000F03D091F802C04CEA0505AC
:100E100091F800C0BCF1000F31D0146800202BE025
:100E20004FF0010C0CFA00F3B1F800C00CEA030615
:100E30009E4220D183004FF00F0C0CFA03F7BC4305
:100E400005FA03FC4CEA040491F803C0BCF1280F36
:100E500006D14FF0010C0CFA00FCC2F814C00AE0F5
:100E600091F803C0BCF1480F05D14FF0010C0CFA0A
:100E700000FCC2F810C0401C0828D1D31460B1F89F
:100E800000C0BCF1FF0F34DD546800202EE000F1FB
:100E9000080C4FF0010808FA0CF3B1F800C00CEA96
:100EA00003069E4221D183004FF00F0C0CFA03F78A
:100EB000BC4305FA03FC4CEA040491F803C0BCF1FE
:100EC000280F05D100F1080C08FA0CF8C2F81480BC
:100ED00091F803C0BCF1480F07D100F1080C4FF0A6
:100EE000010808FA0CF8C2F81080401C0828CED37C
:100EF0005460BDE8F0814FF6FF71018002218170DE
:100F00000421C17070470246002093680B400BB16A
:100F1000012000E0002070470146886880B27047D9
:100F200002460020D3680B400BB1012000E00020F6
:100F300070470146C86880B27047016170474161DF
:100F400070470AB1016100E041617047C1607047BC
:100F50004FF480320A4382618161826182698269D1
:100F6000704702460020434B18684FF680731840C4
:100F700040EA021008433F4B186070473E49C86181
:100F80007047F0B50A46002300240021002500F038
:100F90000046B6F1004F02D1364EF16901E0354E00
:100FA0007168C0F3034583B200F44016B6F5401FE4
:100FB00008D121F070612F4E766826F070662D4FB3
:100FC0007E6012E000F48016B6F5801F06D103267D
:100FD00006FA05F4A14341F0706106E0460D3601C2
:100FE00003FA06F6B14341F0706122B1460D3601B5
:100FF00003FA06F6314300F00046B6F1004F02D185
:101000001C4EF16101E01B4E7160F0BD30B5002255
:101010008B071C0F0F2303FA04F2164B08338C10B6
:1010200053F824309343134C08348D1044F8253082
:1010300023468C1053F824308C07240F00FA04F454
:1010400023430C4C08348D1044F8253030BD0A4938
:10105000DC3108607047000000080140000C0140CE
:10106000001001400014014000180140001C014024
:10107000002001400000014000002042DF480068DD
:1010800040F00100DD49086008464068DC4908403E
:10109000DA49486008460068DA490840D7490860DC
:1010A0000846006820F4802008600846406820F464
:1010B000FE0048604FF41F0088607047CF49096800
:1010C00021F48031CD4A11601146096821F4802154
:1010D0001160B0F5803F03D0B0F5802F0ED106E04F
:1010E000C649096841F48031C44A116007E0C34928
:1010F000096841F4A021C14A116000E000BF00BFAF
:10110000704710B501460022002300204A11012A31
:1011100002D1BA4C236806E0022A02D1B74C236AF6
:1011200001E0B64C636A01F01F02012494401C40A8
:101130000CB1012000E0002010BD38B50020009067
:101140000024002500BF3120FFF7DBFF0546009893
:10115000401C00900098B0F5A06F01D0002DF2D097
:101160003120FFF7CEFF08B1012400E00024204623
:1011700038BD01460020A14A106820F0F80040EA7E
:10118000C10010607047A049086070470246002007
:101190009A4B586820F47C1042EA01031843974B9D
:1011A0005860704798490866704701460020934A86
:1011B000506820F003000843506070478F48406833
:1011C00000F00C007047014600208C4A506820F067
:1011D000F00008435060704701460020874A50687D
:1011E00020F4E06008435060704701460020834AC5
:1011F000506820F4605040EAC1005060704729B147
:101200007E4A527A02437D4B5A7204E07B4A527AFC
:1012100082437A4B5A7270477B49D83108607047D5
:1012200001460020754A506820F440400843506051
:1012300070470021714A20321170704A82F82010E4
:10124000012802D004280AD104E001216B4A20328F
:10125000117005E00521694A2032117000E000BFDD
:1012600000BF70476949086070476449096A0143D3
:10127000624A11627047654944390860704730B569
:1012800000210022002400235C4D6D6805F00C0154
:1012900021B1042905D0082923D105E05C4D056062
:1012A00022E05B4D05601FE0544D6D6805F470123F
:1012B000524D6D6805F48034022505EB92421CB94D
:1012C000544D554305600BE04C4D6D6805F40035F9
:1012D0001DB1504D5543056002E04D4D554305602D
:1012E00002E04B4D056000BF00BF444D6D6805F046
:1012F000F0010909484D6B5C0568DD4045603F4DD4
:101300006D6805F4E061090A434D6B5C4568DD409A
:1013100085603A4D6D6805F46051C90A3E4D6B5CBD
:101320004568DD40C560354D6D6805F44041890B69
:101330003A4D6B5CC568B5FBF3F5056130BD29B16D
:101340002E4A526902432D4B5A6104E02B4A5269DE
:1013500082432A4B5A61704729B1284A9269024355
:10136000264B9A6104E0254A92698243234B9A6195
:10137000704729B1214AD2690243204BDA6104E067
:101380001E4AD26982431D4BDA61704729B11B4A5C
:10139000D2680243194BDA6004E0184AD2688243EB
:1013A000164BDA60704729B1144A12690243134B95
:1013B0001A6104E0114A12698243104B1A617047A6
:1013C00012494039086070470F49C86470470B499B
:1013D000C87170470948406A40F080700749486208
:1013E000704701460020054A92680A400AB1012070
:1013F00000E00020704701498872704700100240E9
:101400000000FFF8FFFFF6FE000042428004424267
:1014100000127A0000093D006000002070000020EA
:1014200010B50446FE48844208D10121C014FFF7DC
:10143000ADFF0021E014FFF7A9FFC4E0B4F1804F35
:1014400008D101210846FFF7AEFF00210120FFF778
:10145000AAFFB8E0F348844208D101210220FFF737
:10146000A2FF00210220FFF79EFFACE0EE4884427D
:1014700008D101210420FFF796FF00210420FFF787
:1014800092FFA0E0E948844208D101210820FFF73B
:101490008AFF00210820FFF786FF94E0E448844299
:1014A00008D101211020FFF77EFF00211020FFF757
:1014B0007AFF88E0DF48844208D101212020FFF72D
:1014C00072FF00212020FFF76EFF7CE0DA488442A3
:1014D00008D101214014FFF759FF00216014FFF7E4
:1014E00055FF70E0D548844209D10121C804FFF7B7
:1014F0004DFF00214FF40020FFF748FF63E0D04884
:10150000844209D101210805FFF740FF00214FF473
:101510008010FFF73BFF56E0CA48844209D1012101
:101520004805FFF733FF00214FF40010FFF72EFFAF
:1015300049E0C548844208D101214020FFF733FF2C
:1015400000214020FFF72FFF3DE0C048844208D132
:1015500001218020FFF727FF00218020FFF723FFD4
:1015600031E0BB48844208D101218015FFF71BFF01
:101570000021A015FFF717FF25E0B648844209D1E6
:1015800001210804FFF702FF00214FF48030FFF72C
:10159000FDFE18E0B048844209D101214804FFF75C
:1015A000F5FE00214FF40030FFF7F0FE0BE0AB48F2
:1015B000844208D101218804FFF7E8FE00214FF49E
:1015C0008020FFF7E3FE10BD00220288944B984272
:1015D0000ED0994B98420BD0B0F1804F08D0914B70
:1015E000984205D0904B984202D0904B984204D13B
:1015F0004FF68F731A404B881A438D4B984207D091
:101600008C4B984204D04FF6FF431A40CB881A43C4
:1016100002808B8883850B880385814B98420BD091
:10162000854B984208D08B4B984205D08A4B984204
:1016300002D08A4B984201D10B7A03860123838220
:10164000704770B5002400220023058C4FF6FE760B
:1016500035400584028C8388048B4FF68F752C40AF
:10166000B51E2C400D882C43751E2A400D892A4337
:101670004D882A436A4DA8420BD06F4DA84208D02E
:10168000744DA84205D0744DA84202D0734DA842B3
:1016900013D14FF6F7752A404D892A434FF6FB7553
:1016A0002A408D882A434FF6FF652B404FF6FF55A1
:1016B0002B408D892B43CD892B4383800483CD8898
:1016C0008586028470BD70B5002400220023058C3D
:1016D0004FF6EF7635400584028C8388048B48F6FC
:1016E000FF752C404FF6FF452C400D884FF6FF76D6
:1016F00006EA05252C434FF6DF752A400D8906EAD8
:1017000005152A434D8806EA05152A43444DA8428B
:1017100002D0494DA8421DD14FF67F752A404D8910
:101720004FF6FF7606EA05152A434FF6BF752A40A5
:101730008D8806EA05152A434FF6FF352B404FF2F8
:10174000FF752B408D8906EA85052B43CD8906EA76
:1017500085052B4383800483CD880587028470BD73
:1017600070B5002400220023058C4FF6FF6635403B
:101770000584028C8388848B4FF68F752C404FF63E
:10178000FC752C400D882C434FF6FF552A400D89DF
:101790004FF6FF7606EA05252A434D8806EA052519
:1017A0002A431F4DA84202D0234DA8421DD14FF21B
:1017B000FF752A404D894FF6FF7606EA05252A4334
:1017C0004FF6FF352A408D8806EA05252A434EF656
:1017D000FF752B404DF6FF752B408D8906EA0515E8
:1017E0002B43CD8906EA05152B4383808483CD885E
:1017F0008587028470BD70B5002200230024058C0B
:101800004EF6FF7635400584038C8488828B48F63B
:10181000FF752A404FF6FF452A400D8820E0000062
:10182000002C01400004004000080040000C004073
:10183000001000400014004000340140004C014002
:10184000005001400054014000180040001C0040BE
:101850000020004000400140004401400048014099
:101860004FF6FF7606EA05252A434DF6FF752B4015
:101870000D8906EA05352B434D8806EA05352B43CD
:10188000FA4DA84202D0FA4DA84208D14BF6FF7596
:101890002C408D894FF6FF7606EA85152C4384800F
:1018A0008283CD88A0F84050038470BD828B4FF2B4
:1018B000FF331A408283828B4FF6FF7303EA0123C2
:1018C0001A4382837047F0B50C461546002200216A
:1018D0000026078C4EF6FF7C07EA0C070784828BF4
:1018E000018C4FF6FF7707EA043640F6FF473A408F
:1018F0004FF6FF7707EA05273A434FF6FF7707EAE7
:1019000003373A43D94FB8420ED0D94FB8420BD023
:10191000B0F1804F08D0D74FB84205D0D64FB8426B
:1019200002D0D64FB84206D14DF6FF77394046F483
:101930008057394305E047F6FF57394044F4805754
:10194000394382830184F0BD828B4FF6F3731A40D2
:101950008283828B0A4382837047F0B50C4615461A
:10196000002200210026078C4FF6FF6C07EA0C07C7
:101970000784828B018C4FF6FF7707EA04264FF627
:101980000C773A404FF6FF7707EA03172F433A43A5
:10199000B64FB8420ED0B64FB8420BD0B0F1804F20
:1019A00008D0B44FB84205D0B34FB84202D0B34FBD
:1019B000B84206D14FF6FF57394046F48077394395
:1019C00005E04FF2FF57394044F480773943828372
:1019D0000184F0BD028B4FF2FF331A400283028B69
:1019E0004FF6FF7303EA01231A4302837047F0B5F1
:1019F0000C461546002200210026078C4FF6EF7C8E
:101A000007EA0C070784028B018C4FF6FF7707EA81
:101A1000041640F6FF473A404FF6FF7707EA0337D0
:101A20003A434FF6FF7707EA05273A438F4FB8420C
:101A30000ED08F4FB8420BD0B0F1804F08D08D4FF1
:101A4000B84205D08C4FB84202D08C4FB84206D174
:101A50004FF6DF77394046F01007394305E04FF67F
:101A60005F77394044F01007394302830184F0BDA9
:101A7000028B4FF6F3731A400283028B0A430283F0
:101A80007047F0B50C46154600220021068C4FF633
:101A9000FE773E400684028B018C4FF60C76324076
:101AA0007E1C06EA03162E433243704EB0420ED01F
:101AB0006F4EB0420BD0B0F1804F08D06D4EB042A7
:101AC00005D06D4EB04202D06C4EB04206D14FF6FA
:101AD000FD76314044F00106314305E04FF6F576DE
:101AE000314044F00106314302830184F0BD70B5FA
:101AF00005460C465D4885420ED05D4885420BD0B8
:101B0000B5F1804F08D05B48854205D05A488542E0
:101B100002D05A48854200D100E000BF208850B969
:101B20002389A28861882846FFF7ABFFE188284611
:101B3000FFF79EFF25E0208804280AD12389A28888
:101B400061882846FFF753FFE1882846FFF742FFE8
:101B500017E0208808280AD12389A28861882846AE
:101B6000FFF7FBFEE1882846FFF7EEFE09E0238938
:101B7000A28861882846FFF7A6FEE1882846FFF77D
:101B800095FE70BD2DE9F04105460C460026012763
:101B9000608808B9022600E00026A088012801D14B
:101BA000022700E001272088A0B92389A288618844
:101BB0002846FFF766FFE1882846FFF759FF23898B
:101BC0003A4631462846FFF712FFE1882846FFF7DC
:101BD00001FF13E02389A28861882846FFF707FFE9
:101BE000E1882846FFF7F6FE23893A463146284623
:101BF000FFF747FFE1882846FFF73AFFBDE8F0818D
:101C00000A884B881A438B881A43CB881A430B895E
:101C10001A434B891A438B891A43A0F84420704712
:101C20004FF6FF71818000210180C18041800172E7
:101C300070470021018041808180C1800181418104
:101C40008181C18170470021018041800121818013
:101C50000021C18001817047002101804180818085
:101C6000C18001814181818170470000002C0140C9
:101C7000003401400004004000080040000C004017
:101C800021B1028842F00102028004E002884FF68E
:101C9000FE731A400280704731B1B0F8442042F41C
:101CA0000042A0F8442005E0B0F84420C2F30E0240
:101CB000A0F8442070471AB183890B43838102E066
:101CC00083898B43838170478182704741EA020395
:101CD000A0F8483070471AB183890B43838102E032
:101CE00083898B438381704701894FF6F8721140D5
:101CF000018170470A46002101894FF68F73194010
:101D000011430181704730B504460D4629462046EF
:101D1000FFF7F0FF208940F00700208130BD2DE95A
:101D2000F04104460D4616461F46602D06D13B463F
:101D3000012231462046FFF75AFE05E03B460122CC
:101D400031462046FFF79DFE29462046FFF7D2FF89
:101D5000208940F007002081BDE8F08130B50C46B5
:101D600000210189C9B24FF6FF7505EA0325154325
:101D700025432943018130BD2DE9F04105460E463A
:101D800017469846002443463A4631462846FFF710
:101D9000E5FF2C894FF6F870044044F007044FF635
:101DA0008F70044044F070042C81BDE8F081F0B5E0
:101DB00004460D4616461F463B46324629462046F7
:101DC000FFF7CCFF208940F480402081F0BD0185E1
:101DD000828270470A46002101884FF68F731940AE
:101DE000114301807047F0B50C4615461E46002190
:101DF000002200230189028B038C4FF6F8773940CB
:101E000021434FF6FC473A4040F201173A434FF660
:101E1000DD773B404FF6FF7707EA06172F433B433A
:101E2000018102830384F0BD0A460021018B4FF635
:101E30008F7319401143018370470A460021018BBB
:101E400048F6FF7319404FF6FF7303EA0223194364
:101E5000018370470A460021818B4FF68F7319402A
:101E60001143818370470A460021818B48F6FF7336
:101E700019404FF6FF7303EA022319438183704729
:101E800021B1028842F08002028004E002884FF60D
:101E90007F731A400280704721B1828842F00402A9
:101EA000828004E082884FF6FB731A40828070477C
:101EB00021B1828842F00802828004E082884FF6D5
:101EC000F7731A408280704721B1828842F0010284
:101ED000828004E082884FF6FE731A408280704749
:101EE0000A460021018B4FF6F77319401143018315
:101EF00070470A460021018B4FF2FF7319404FF6DD
:101F0000FF7303EA02231943018370470A46002145
:101F1000818B4FF6F77319401143818370470A464E
:101F20000021818B4FF2FF7319404FF6FF7303EAD4
:101F300002231943818370470A460021018B4FF623
:101F4000FB7319401143018370470A460021018B3E
:101F50004FF6FF3319404FF6FF7303EA022319438C
:101F6000018370470A460021818B4FF6FB731940AD
:101F70001143818370470A460021818B4FF6FF335E
:101F800019404FF6FF7303EA022319438183704718
:101F90000A460021018B4FF67F73194011430183DC
:101FA00070470A460021018BC1F30E014FF6FF7303
:101FB00003EA02231943018370470A460021818BFB
:101FC0004FF67F7319401143818370470A46002101
:101FD000818BC1F30E014FF6FF7303EA022319430D
:101FE000818370470A460021018C4FF6FD7319402A
:101FF0001143018470470A460021018C4FF6F773A4
:1020000019401143018470470A460021018C4FF6A4
:10201000DF7319404FF6FF7303EA0213194301847B
:1020200070470A460021018C4FF67F7319404FF626
:10203000FF7303EA02131943018470470A46002123
:10204000018C4FF6FF5319404FF6FF7303EA02234A
:102050001943018470470A460021018C4FF2FF7337
:1020600019404FF6FF7303EA0223194301847047B6
:102070000A460021018C4DF6FF7319404FF6FF739D
:1020800003EA023319430184704730B50023012469
:102090008C40A3B2048C9C430484048C02FA01F5A6
:1020A000ADB22C43048430BD30B5002304248C40F1
:1020B000A3B2048C9C430484048C02FA01F5ADB2F3
:1020C0002C43048430BD70B503460020002418461C
:1020D000183001258D40ACB21D8CA5431D8409B17B
:1020E000082909D100EB6100056825F0700505603D
:1020F0000568154305600EE00D1FC5F34E05284425
:10210000056825F4E045056005684FF6FF7606EAA8
:1021100002263543056070BD21B1028842F00202FB
:10212000028004E002884FF6FD731A400280704777
:1021300021B1028842F00402028004E002884FF6D6
:10214000FB731A400280704721B1828842F08002FE
:10215000828004E082884FF67F731A408280704745
:1021600002884FF6F7731A40028002880A43028001
:10217000704782884FF68F731A40828082880A43A4
:102180008280704702894FF6F8731A4002810289F3
:102190000A430281704702894FF67F731A40028119
:1021A00002890A43028170478184704781857047A4
:1021B000818670470187704781877047A0F840107B
:1021C000704702884FF6FF431A40028002880A4394
:1021D000028070470146888E70470146088F70471D
:1021E0000146888F70470146B1F8400070470146AC
:1021F000888C70470146088D704702460020138A7C
:102200000B400BB1012000E000207047CA4302825E
:10221000704730B50246002000230024158A05EAE5
:102220000103958905EA010413B10CB1012000E016
:10223000002030BDCA4302827047000010B504463A
:10224000FB48844209D101218803FFF79FF8002150
:102250004FF48040FFF79AF832E0F648844209D103
:1022600001214804FFF79FF800214FF40030FFF7E9
:102270009AF825E0F048844209D101218804FFF74B
:1022800092F800214FF48020FFF78DF818E0EB481A
:10229000844209D10121C804FFF785F800214FF4D9
:1022A0000020FFF780F80BE0E548844208D10121C7
:1022B0000805FFF778F800214FF48010FFF773F856
:1022C00010BD2DE9F04786B005460E460024A24613
:1022D00000BFA1460027B08900B100BF2F462C8A5D
:1022E0004CF6FF700440F08804432C82AC894EF613
:1022F000F3100440B08831890843718908430443CE
:10230000AC81AC8A4FF6FF400440B0890443AC82F4
:1023100001A8FEF7B4FFC648874202D1DDF810A03D
:1023200001E0DDF80CA0A88900F4004040B10AEB00
:10233000CA0000EB0A1031684900B0FBF1F807E071
:102340000AEBCA0000EB0A1031688900B0FBF1F813
:102350006420B8FBF0F004012009642101FB10891E
:10236000A88900F4004040B1322000EBC900B0FB66
:10237000F1F000F00700044308E0322000EB091000
:102380006421B0FBF1F000F00F0004432C8106B093
:10239000BDE8F0874FF41651016000218180C180B3
:1023A00001810C21418100218181704710B50246D5
:1023B0000020108A4FF2FF0318400B884C882343FB
:1023C0008C882343CC8823431843108210BD0021FE
:1023D000018041808180C180704721B1828942F4AF
:1023E0000052828104E082894DF6FF731A40828197
:1023F0007047F0B50346002400260025002040F673
:102400006A17B94200D100BF1846C1F3421401F067
:102410001F06012707FA06F5012C01D10C3004E054
:10242000022C01D1103000E014301AB107682F439C
:10243000076002E00768AF430760F0BD1AB1838A06
:102440000B43838202E0838A8B4383827047028A34
:102450004FF6F0731A400282028A0A4302827047E2
:1024600082894FF2FF731A40828182890A438281F6
:10247000704721B1828942F00202828104E08289A0
:102480004FF6FD731A4082817047028A4FF6DF7360
:102490001A400282028A0A430282704721B1028AEC
:1024A00042F48042028204E0028A4BF6FF731A4033
:1024B00002827047C1F30802828070470146888813
:1024C000C0F308007047818941F0010181817047A4
:1024D000028BD2B20283028B42EA0122028370474E
:1024E000028B02F47F420283028B0A43028370470D
:1024F00021B1828A42F02002828204E0828A4FF671
:10250000DF731A408282704721B1828A42F0100242
:10251000828204E0828A4FF6EF731A40828270470B
:1025200021B1828A42F00802828204E0828A4FF658
:10253000F7731A408282704721B1828942F40042C7
:10254000828103E08289C2F30E028281704721B149
:10255000828A42F40062828204E0828A4FF2FF7330
:102560001A4082827047828A4FF6FB731A40828239
:10257000828A0A438282704721B1828A42F0020233
:10258000828204E0828A4FF6FD731A40828270478D
:1025900002460020B1F5007F00D100BF13880B4038
:1025A0000BB1012000E00020704701F40072B2F589
:1025B000007F00D100BFCA430280704770B5024659
:1025C000002400230025002040F66A16B14200D105
:1025D00000BFC1F3421501F01F03012606FA03F301
:1025E000012D02D19689334006E0022D02D1168AD0
:1025F000334001E0968A33400C12012606FA04F4B7
:102600001688344013B10CB1012000E0002070BDE9
:1026100010B50022002340F66A14A14200D100BF89
:102620000A1201249440A3B2DC43048010BD0000D0
:10263000003801400044004000480040004C004089
:102640000050004010B56FF00400FDF76AFF3448F9
:1026500000683449B0FBF1F033490870084600784F
:1026600000EB4001C1EBC0104FF6FF7101EAC00062
:102670002E49088010BD01462B4A12784A434FF07C
:10268000E0235A6100229A611A46126942F001025F
:102690001A6100BF4FF0E022106900F001021AB188
:1026A00000F48032002AF5D04FF0E022126922F0C7
:1026B00001024FF0E0231A6100229A61704701463F
:1026C0001A4A12884A434FF0E0235A6100229A6165
:1026D0001A46126942F001021A6100BF4FF0E0226F
:1026E000106900F001021AB100F48032002AF5D01E
:1026F0004FF0E022126922F001024FF0E0231A614C
:1027000000229A61704707E0421E90B2002100E06B
:10271000491C074A9142FBDB0028F5DC70470000AA
:102720000000002000127A007400002076000020D3
:1027300040190100A34A0A400243A34B1A607047A4
:102740000146072323EA010212029F4B1B1D186852
:102750004FF6FF0318409D4B184310439A4B1B1D27
:10276000186070472DE9F0410746884614461D461B
:102770002846FFF7E5FFC5F1040007FA00F60F2031
:10278000284100EA0800064306F00F06E21704EBB2
:10279000D2625211920002F1E022D2F800212146C9
:1027A000E31704EBD3635B11A4EB431C012303FA8F
:1027B0000CF31A432046E31704EBD3635B119B0031
:1027C00003F1E023C3F800218148005D40EA0610D0
:1027D0007F490855BDE8F08170B504460B46CE1719
:1027E00001EB9676C6F38700CE1701EB9676B6100E
:1027F000A1EB8606B606350E764B9B6943F00103C6
:10280000744EB3614FEAB63353F820300F26AE4012
:10281000B343714E46F82030334653F8203004FA63
:1028200005F61E436C4B43F820606C4B1B68012679
:102830008E403343694E336002F0010343B1674B6E
:102840000C331B6801268E403343644E0C363360D4
:1028500002F0020343B1614B08331E6801238B4031
:102860001E435E4B08331E6070BD00B50020594901
:102870000861C8601420486100208861C86108466A
:10288000006840F00100086008464068544908406C
:102890005049486008460068524908404D49086060
:1028A0000846006820F4802008600846406820F44C
:1028B000FE0048600020886000214FF00060FFF7B4
:1028C00039FF00BD10B540480830006840F00400F2
:1028D0003D49083108603F48C06940F080503D499B
:1028E000C8614148406840F480703F4948600846EC
:1028F000006840F0040008600846006840F00200EC
:102900000860FDF741FC10BD3048001D2E49091D2F
:1029100008607047014649062E4A926942F001025A
:102920002C4B9A612C4A083A526822F0E0622A4BFA
:10293000083B5A601A4652680A435A60704730B5DD
:1029400004460025FFF791FF2248006840F48030DC
:102950002049086000BF1F480068400C0028FAD0DA
:102960004FF480601B494860A01EC4B2084640680E
:1029700040EA844048600846406840F4803048603F
:102980001A48006840F03200184908601148006891
:1029900040F080700F49086000BF0E480068400E8C
:1029A0000028FAD00B48406840F00200094948600E
:1029B00005E008484068C0F3870505F00305022DCF
:1029C000F7D130BD80FFFF1F08ED00E00000FA05E1
:1029D00000E400E000100240080001400004014053
:1029E0000000FFF8FFFFF6FE0070004000200240EC
:1029F000014600BF704700BFFE4A128802F0400245
:102A0000002AF9D0C2B2FB4B1B1D1A80704710B5CB
:102A100086B00446012144F20400FEF79DFC4FF409
:102A20000070ADF8140003208DF8160018208DF802
:102A3000170005A9F048FEF7D3F94FF48060ADF810
:102A4000140004208DF8170005A9EB48FEF7C8F91B
:102A500025208DF8000000208DF8010001208DF860
:102A600002008DF803006846FDF711FD0194002077
:102A7000ADF80800ADF80A00ADF80C00ADF8100094
:102A80000C20ADF80E0001A9DC48FFF71AFC01226A
:102A900040F22551D948FFF7ACFC0121D748FFF798
:102AA0009CFC06B010BD10B586B004460121042080
:102AB000FEF752FC01214804FEF75BFC0420ADF850
:102AC000140018208DF8170005A9CB48FEF788F9E7
:102AD0000820ADF8140004208DF8170005A9C64899
:102AE000FEF77EF901214804FEF75DFC00214FF45A
:102AF0000030FEF758FC01940020ADF80800ADF856
:102B00000A00ADF80C00ADF810000C20ADF80E0076
:102B100001A9BB48FFF7D5FB4021B948FFF745FDA8
:102B200026208DF8000000208DF801008DF80200AD
:102B300001208DF803006846FDF7A9FC012240F250
:102B40002551AF48FFF755FC0121AD48FFF745FC83
:102B500006B010BD10B586B004460021A548FFF7A9
:102B60003CFC01210820FEF7F7FB01218804FEF759
:102B700000FC4FF48060ADF8140003208DF81600BF
:102B800018208DF8170005A99E48FEF729F94FF483
:102B90000060ADF8140004208DF8170005A99948CD
:102BA000FEF71EF927208DF8000000208DF80100A7
:102BB00001208DF802008DF803006846FDF767FCE0
:102BC00001940020ADF80800ADF80A00ADF80C0043
:102BD000ADF810000C20ADF80E0001A98548FFF7F4
:102BE00070FB012240F225518248FFF702FC0021D0
:102BF0008048FFF7F2FB06B010BD10B540F225513A
:102C00007E48FFF7DBFC60B140F225517B48FFF7BF
:102C1000CCFC7A48FFF752FCC4B221467548FFF756
:102C200049FC10BD10B540F225517548FFF7C6FCB0
:102C3000002877D040F225517148FFF7B6FC704864
:102C4000FFF73CFC7049487408460078AA2867D111
:102C50000846407C552863D108468078497840EA88
:102C600001206A490860684800796749C97840EAE4
:102C7000012067490860644880796349497940EADE
:102C80000120644908606048007A5F49C97940EAD8
:102C90000120614908605C48807A5B49497A40EAD2
:102CA00001205E4908605848007B5749C97A40EACC
:102CB00001205B4908605448807B5349497B40EAC6
:102CC0000120584908605048007C4F49C97B40EAC0
:102CD0000120554908605348006840F6B8318842E1
:102CE0000CD26FF01D01084600F0DDFB4FF4FA70C6
:102CF000FFF7E5FC6FF01D0000F027FC4A48006874
:102D000040F6B83188420BD26FF01D01084600F042
:102D1000CAFB4FF4FA70FFF7D2FC1E2000F015FC3E
:102D2000002406E007E03849601C085C0855601C78
:102D3000C4B2112CF7DB10BD10B540F225512D485F
:102D4000FFF73CFC012879D12A48FFF7B7FB374948
:102D500008700846007855284AD10846C079AA2844
:102D600046D108464079897940EA012030490880F7
:102D70002E48C0782D49097940EA01202D49088064
:102D80002A4840782949897840EA01202A49088060
:102D90002748008844F25061884209DD24480088B1
:102DA0004FF6FF71081A48F6A041081A204908801A
:102DB0002148008844F25061884209DD1E4800889D
:102DC0004FF6FF71081A48F6A041081A1A49088000
:102DD0001848008844F25061884209DD154800888F
:102DE0004FF6FF71081A48F6A041081A11490880E9
:102DF00007242AE000480040000801400038014054
:102E000000440040000C01408800002038000020F1
:102E10003C0000204000002044000020480000202A
:102E20004C00002050000020540000207C000020B6
:102E300030000020340000203200002007E0601E37
:102E40003649085C0855601EC4B2002CF7DC40F21D
:102E500025513348FFF7A9FB10BD10B500BF30481E
:102E6000008800F040000028F9D0A5212C48FFF789
:102E700021FB00BF2A48008800F040000028F9D05C
:102E800052212748FFF716FB00BF2548008800F0B5
:102E900040000028F9D0A5212148FFF70BFB00BF17
:102EA0001F48008800F040000028F9D055211C4838
:102EB000FFF700FB00BF1A48008800F04000002820
:102EC000F9D0A5211648FFF7F5FA00BF144800888D
:102ED00000F040000028F9D054211148FFF7EAFA29
:102EE00000BF0F48008800F040000028F9D0A5215D
:102EF0000B48FFF7DFFA00BF0948008800F04000E8
:102F00000028F9D052210648FFF7D4FA00BF044840
:102F1000008800F040000028F9D010BD7C0000209F
:102F20000048004008B501211020FEF715FA4FF4C3
:102F30000050ADF8000010208DF8030069460448E9
:102F4000FDF74EFF4FF400510148FDF7F6FF08BDB5
:102F50000010014010B592B0044601210846FEF76A
:102F6000EEF901214FF40170FEF7F6F9F020ADF80B
:102F7000440000208DF8470011A98C48FDF730FF70
:102F80008B48FDF715FD8B480190029400200390BB
:102F900008200490002005908020069040000790B3
:102FA000800008902020099000020A9000200B90D9
:102FB00001A97F48FDF79EFD01217D48FDF7C5FD74
:102FC0007C484C38FDF7CCFA00200C9001208DF89D
:102FD00034008DF835004FF460200E9000200F90E3
:102FE00008208DF840000CA972484C38FDF7DFFA34
:102FF0004FF40040FEF714F90723012204216D4825
:103000004C38FDF76CFB07230222052169484C3838
:10301000FDF765FB07230322062166484C38FDF7C0
:103020005EFB07230422194662484C38FDF757FB24
:10303000012160484C38FDF7F1FA01215D484C3818
:10304000FDF7E1FA5B484C38FDF7FFFA00BF59483D
:103050004C38FDF7FFFA0028F9D156484C38FDF7F7
:1030600003FB00BF53484C38FDF703FB0028F9D1A0
:10307000012150484C38FDF706FB12B010BD00B5D9
:1030800087B001214FF40170FEF766F94FF400405C
:10309000FEF7C6F8F020ADF8040000208DF8070018
:1030A00001A94248FDF79CFE42484C38FDF758FA0A
:1030B000002002908DF80C008DF80D004FF4602078
:1030C00004900020059001208DF8180002A93948CD
:1030D0004C38FDF76CFA012136484C38FDF793FA6D
:1030E00034484C38FDF7B1FA00BF32484C38FDF790
:1030F000B1FA0028F9D12F484C38FDF7B5FA00BFD6
:103100002C484C38FDF7B5FA0028F9D107B000BDBE
:1031100010B5044607230122214626484C38FDF706
:10312000DEFA012123484C38FDF7ADFA00BF022139
:1031300020484C38FDF718FC0028F8D01D484C38C2
:10314000FDF734FB10BD2DE9F04F87B00420FFF7E9
:10315000DFFF834601F0B8FE4FF06632164BCDE933
:10316000000101F0C5FE0022144BCDE9020101F07F
:10317000BFFE80460022124B01F0BAFE0646002236
:10318000104B01F003FD00220F4BCDE9040101F0CB
:10319000FDFC044601F052FE824640F2EC408245BE
:1031A00000DD8246504607B0BDE8F08F00080140C0
:1031B000080002404C24014066660A400000264098
:1031C000000059400000F03F0000B0401FB5012151
:1031D0000220FEF7CEF84720ADF804000020ADF83D
:1031E00006004CF24F30ADF808000020ADF80A00A0
:1031F0008DF80C0001A93A48FEF7E6F9012138489C
:10320000FFF704F8012211463548FEF754FD1D2052
:103210008DF8000001208DF8010000208DF80200DB
:1032200001208DF803006846FDF731F900212C4894
:10323000FEF726FD1FBD10B501212948FEF7E9FF65
:1032400001284CD101212648FEF7F4FF25480088CB
:10325000B0F5FA6F07DD2348008848F2D041884274
:1032600001DA012000E000201F490988B1F5FA6F5A
:1032700007DD1D49098848F2D042914201DA012157
:1032800000E00021084358B118480078401C174955
:10329000087008460078142821DD01F01AF91EE0B4
:1032A0000020124908704FF47A7000F06BFF01287B
:1032B00013DD4FF42F7000F010FF00280DDD00F03B
:1032C00004FA4FF42F7000F008FF012802DD01F02E
:1032D00080F804E001F042F901E001F03FF910BD8F
:1032E0000004004032000020340000208400002050
:1032F00030B589B005460C460121C802FEF72CF80E
:1033000001210420FEF728F84FF47060ADF820008A
:1033100018208DF8230003208DF8220008A9F74813
:10332000FDF75EFDADF81850ADF814400020ADF883
:103330001A00ADF8160005A9F148FEF745F960201E
:10334000ADF804000120ADF806000020ADF80A0039
:10335000ADF80C0001A9EA48FEF773F901A9E848A5
:10336000FEF7B1F901A9E648FEF7FAF901A9E44828
:10337000FEF741FA0121E248FEF78EFC0821E04801
:10338000FEF7AEFD0821DE48FEF7B3FD0821DC485C
:10339000FEF7BCFD0821DA48FEF7C1FD0121D8483F
:1033A000FEF76EFD0121D648FEF76AFC09B030BD7C
:1033B0000146002901DA484200E00846704701460C
:1033C00011F1640F02DA6FF063007047642901DDC8
:1033D0006420FAE70846F8E700B503460A461846AF
:1033E000FFF7EDFF03461046FFF7E9FF0246C54829
:1033F0000360C5480260002B06DBC14934310B80F5
:103400000020091D088006E00020BD4934310880F5
:103410005842091D0880002A06DBB9493C310A8060
:103420000020091D088006E00020B5493C310880D5
:103430005042091D088000BD70B504460D46002CA1
:1034400005DDB0480068002801DA012000E0002016
:10345000002C05DAAB490968002901DD012100E0F3
:1034600000210843002D05DDA7490968002901DA7C
:10347000012100E000210843002D05DAA249096876
:10348000002901DD012100E00021084330B10021C5
:103490000846FFF7A1FF6420FFF711F929462046EF
:1034A000FFF79AFF70BD70B504460D4629462046C9
:1034B000FFF792FF01F024F970BD70B504460D4688
:1034C00029462046FFF7B8FF01F01AF970BD002128
:1034D0000846FFF7B1FF00BFFEE700210846FFF7EF
:1034E000ECFF4FF400518948FDF729FD6420FFF7F8
:1034F000E6F84FF400518548FDF71FFD6420FFF703
:10350000DEF84FF400518148FDF719FD00BFFEE7DA
:103510000844002803DA48F6A042104404E048F6C4
:10352000A042904200DD801A70470246881A784B0C
:10353000984203DA48F6A043184405E044F2506389
:10354000984201DDA0EB430070472DE9F04F87B0B2
:10355000054600266420454329466E480088FFF74B
:10356000D7FF05904BE06B4800880599FFF7DDFF1A
:1035700004462644304601F090FC0746664A674BF5
:1035800001F0B6FCCDE90201204601F086FC0746B9
:10359000634A644B01F0ACFCCDE90001DDE9022394
:1035A00001F04CFA814601F049FC8346304601F0B7
:1035B00074FC0746584A594B01F09AFC81468A46EA
:1035C000604201F06AFC0746554A564B01F090FCF8
:1035D0004A465346CDE9000101F088FDCDE90201DC
:1035E00001F02CFC59460490FFF7F6FE0A20FFF785
:1035F00066F82046FFF7DCFEC82800DA00E0B2E7F4
:1036000000BF00210846FFF74EFF07B0BDE8F08F6E
:103610002DE9F04F85B005460026642045434BE078
:1036200029463C480088FFF780FF04462644304680
:1036300001F033FC0746384A384B01F059FC81460B
:103640008A46204601F029FC0746354A354B01F0F1
:103650004FFC4A465346CDE9000101F0EFF9CDE9B0
:10366000020101F0EBFB8346304601F016FC0746F1
:10367000294A2A4B01F03CFCCDE90001604201F0EF
:103680000CFC0746264A274B01F032FC8146DDE957
:10369000002301F02BFDCDE9020101F0CFFB5946DB
:1036A0000490FFF799FE0A20FFF709F82046FFF77C
:1036B0007FFEFA2800DA00E0B2E700BF00210846EA
:1036C000FFF7F1FE05B0BDE8F08F10B51148008896
:1036D00041F29411884201DA012000E000200D49F6
:1036E000098847F60C32914201DD012100E00021FA
:1036F0000843C8B10020FFF78BFF5DE000080140E0
:10370000002C01402400002028000020001001406F
:10371000B0B9FFFF30000020F168E388B5F8F43E4F
:10372000FCA9F1D24D62703F2448008843F2BC41AD
:10373000884201DA012000E000202049098841F296
:103740009412914201DD012100E00021084318B1EB
:103750005A20FFF75DFF2FE01848008845F2E4711A
:10376000884201DA012000E000201449098843F270
:10377000BC42914201DD012100E00021084318B163
:10378000B420FFF745FF17E00C48008847F60C31DE
:10379000884201DA012000E000200849098845F24A
:1037A000E472914201DD012100E00021084318B1DB
:1037B0004FF48770FFF72CFF10BD00003000002091
:1037C00000B587B001210846FDF7D3FD0121042093
:1037D000FDF7C2FD0320ADF8000004208DF80300C2
:1037E00069466148FDF7FCFA04A8FEF719FA0020C3
:1037F000ADF810004FF6FF70ADF814000020ADF8E2
:103800001600ADF8120004A94FF08040FDF7DCFE71
:1038100000231A4603214FF08040FEF7E4FA01A886
:10382000FEF711FA0A20ADF80C0001A94007FEF7D7
:103830005EF901218807FEF7E9FC01221146900795
:10384000FEF739FA00214FF08040FEF7ADFC012170
:103850008807FEF715FA07B000BD00B587B0012153
:103860000420FDF786FD01210820FDF775FDC0202D
:10387000ADF8000004208DF8030069463B48FDF7D1
:10388000AFFA04A8FEF7CCF90020ADF810004FF60F
:10389000FF70ADF814000020ADF81600ADF812006E
:1038A00004A93348FDF790FE00231A46032130484F
:1038B000FEF799FA01A8FEF7C6F90A20ADF80C0048
:1038C00001A92B48FEF713F901212948FEF79EFCB8
:1038D000012211462648FEF7EEF900212448FEF7A2
:1038E00063FC01212248FEF7CBF907B000BD014679
:1038F000022904D003290BD0042919D10FE04FF07D
:103900008042928C10B200224FF080439A8411E0E2
:10391000184A128810B20022164B1A800AE0144A84
:103920002432128810B20022114B24331A8001E095
:10393000002000BF00BF70470D48103000880C48C1
:103940001030008820F001000949103108807047CC
:103950004FF08040008A4FF08040008A20F0010044
:103960004FF080410882704700080140000C014080
:10397000000800402404004010B54FF40071FE48D8
:10398000FDF7DBFA4FF48071FB48FDF7D6FA4FF4F0
:103990008071F948FDF7D3FA4FF40071F648FDF74E
:1039A000CEFA10BD10B54FF40071F348FDF7C5FA1B
:1039B0004FF48071F048FDF7C2FA4FF48071EE4881
:1039C000FDF7BBFA10BD10B54FF40071EA48FDF7E2
:1039D000B4FA4FF40071E848FDF7B1FA10BD2DE9D3
:1039E000F04105462C464FF40071E348FDF7A7FA75
:1039F00000261CE0274607F08007802F04D17900BD
:103A0000DD48FDF79AFA04E04FF48071DA48FDF7DB
:103A100096FA6006040E4FF40071D748FDF78DFA50
:103A20004FF40071D448FDF78AFA701CC6B2082E14
:103A3000E0DBBDE8F08110B50446FFF79DFF78207C
:103A4000FFF7CDFFFFF7BFFF0020FFF7C8FFFFF72D
:103A5000BAFF2046FFF7C3FFFFF7B5FFFFF7A2FF4E
:103A600010BD10B50446FFF787FF7820FFF7B7FFBA
:103A7000FFF7A9FF4020FFF7B2FFFFF7A4FF2046A2
:103A8000FFF7ADFFFFF79FFFFFF78CFF10BD70B58D
:103A900004460D461DB1E0B2FFF7E3FF02E0E0B2DD
:103AA000FFF7C9FF70BD06E041F6650100E0491E61
:103AB0000029FCD1401E0028F6D17047014605E0E0
:103AC000002001E0421CD0B27B28FBDB0A00A1F100
:103AD0000101F5D1704770B504460D4605F1B000FF
:103AE0000021FFF7D4FF102141EA14100021FFF755
:103AF000CEFF04F00F000021FFF7C9FF70BD10B525
:103B000000218D20FFF7C3FF00211420FFF7BFFF26
:103B10000021AF20FFF7BBFF10BD10B500218D20A5
:103B2000FFF7B5FF00211020FFF7B1FF0021AE2005
:103B3000FFF7ADFF10BD70B500241BE004F1B0002D
:103B40000021FFF7A4FF00210846FFF7A0FF002196
:103B50001020FFF79CFF002508E0884901EBC50114
:103B6000085D0121FFF793FF681CC5B2802DF4DBCF
:103B7000601CC4B2082CE1DB70BD70B500240CE001
:103B8000002506E000207D4901EBC5010855681CB1
:103B9000C5B2802DF6DB601CC4B2082CF0DBFFF749
:103BA000CAFF70BD70B5002418E004F1B000002118
:103BB000FFF76DFF00210846FFF769FF0021102085
:103BC000FFF765FF002505E001210846FFF75FFFCD
:103BD000681CC5B2802DF7DB601CC4B2082CE4DB86
:103BE00070BDF0B5144600267D2801DC3F2900DDBC
:103BF000F0BD0B46CF1701EB5777C7F3C702CF17BE
:103C000001EB5777FF10A1EBC707C7F10707FDB21C
:103C1000C5F107070123BB40DEB25CB1574F831CDF
:103C200007EBC3039B5C3343BC46871C0CEBC70705
:103C3000BB540AE0514F831C07EBC3039B5CB343A7
:103C4000BC46871C0CEBC707BB5400BFD0E72DE96F
:103C5000F04F80460C4616461D46A346A6F12000AE
:103C6000C6B2002738E00C2D06D106EB46004449C9
:103C700001EB800010F807904FF0000A26E009F0F1
:103C8000800028B121464046099AFFF7AAFF09E0C3
:103C9000099808B9012000E000200246214640466C
:103CA000FFF79FFF4FEA49604FEA1069601CC4B2FA
:103CB000A4EB0B00A84205D15C4608F1010000F01E
:103CC000FF0806E00AF1010000F0FF0ABAF1080F50
:103CD000D5DB00BF781CC7B2AF42C4DBBDE8F08FB4
:103CE00010B50246012000E050430B00A1F1010491
:103CF000E1B2F9D110BD2DE9FF4F81B007469146E1
:103D00001E460E9D4FF0000A002440E0301B401E6E
:103D1000C1B20A20FFF7E4FFB9FBF0F00A21B0FBC3
:103D2000F1F201FB1208BAF1000F16D1701EA04289
:103D300013DDB8F1000F0ED10120AB4605EBDB71AE
:103D4000491001FB04710090C8B22B462022029951
:103D5000FFF77DFF19E04FF0010A0120AB4605EBAC
:103D6000DB71491001FB04710090C8B208F1300109
:103D7000CAB22B46029905E0000C01409A000020CF
:103D8000C0520008FFF763FF00BF601CC4B2B4421A
:103D9000BCDB05B0BDE8F08FF8B505460E4614460D
:103DA00018E07A2D03DD002506F11000C6B23A2E88
:103DB00004DD002005460646FFF7DFFE01200090E7
:103DC00022780C2331462846FFF741FF05F1080011
:103DD000C5B2641C20780028E3D1F8BD08B50121E4
:103DE0004FF49C70FDF7B8FA4FF44070ADF8000046
:103DF00010208DF8030003208DF8020069463C482E
:103E0000FCF7EEFF4FF440713948FDF796F8C820F3
:103E1000FEF755FC0021AE20FFF739FE00210846D1
:103E2000FFF735FE00211020FFF731FE0021402072
:103E3000FFF72DFE0021B020FFF729FE0021812091
:103E4000FFF725FE0021FF20FFF721FE0021A12022
:103E5000FFF71DFE0021A620FFF719FE0021A82074
:103E6000FFF715FE00213F20FFF711FE0021C820BB
:103E7000FFF70DFE0021D320FFF709FE00210846C1
:103E8000FFF705FE0021D520FFF701FE002180206D
:103E9000FFF7FDFD0021D820FFF7F9FD00210520E7
:103EA000FFF7F5FD0021D920FFF7F1FD0021F120FA
:103EB000FFF7EDFD0021DA20FFF7E9FD00211220D8
:103EC000FFF7E5FD0021DB20FFF7E1FD00213020B9
:103ED000FFF7DDFD00218D20FFF7D9FD0021142023
:103EE000FFF7D5FD0021AF20FFF7D1FD08BD000091
:103EF000000C014008B501210420FDF72DFA4FF414
:103F00001040ADF8000048208DF8030069463548A0
:103F1000FCF766FF08BD0EB501210846FDF71CFA47
:103F2000FFF7E8FF0C210020FDF770F84FF48050F8
:103F3000019000208DF8080008208DF8090001206C
:103F40008DF80A0001A8FCF76BFE0F210020FDF799
:103F50005DF84FF40040019001A8FCF761FE2820B5
:103F60008DF8000001208DF8010000208DF802007E
:103F700001208DF803006846FCF789FA0EBD70B584
:103F80000025002418E04FF400411648FCF7BBFF61
:103F9000012801D1012600E000264FF4805111488C
:103FA000FCF7B1FF012800D100E0002006430EB16C
:103FB000681CC5B2601CC4B2052CE4DB032D0BDD0C
:103FC0004FF400510848FCF7BAFF00F075F84FF4C1
:103FD00000510548FCF7B1FF4FF41040FCF797FE85
:103FE00070BD000000080140001001400EB5012125
:103FF0000846FDF7B1F90220019000208DF8080075
:1040000010208DF8090001208DF80A0001A8FCF7A6
:1040100007FE07208DF8000001208DF80100002028
:104020008DF8020001208DF803006846FCF72FFA96
:104030000EBD10B50220FCF76AFE10BD10B50024BD
:104040000EE0FE480068B0F5FA6F09D9FC48006838
:10405000B0F5FA6F04D9601CC4B23220FEF72FFB12
:10406000142CEEDBFFF739FAF648007810BD10B5D6
:104070006FF01D010846FFF7DFF94FF49670FEF769
:104080001EFB4FF40041F048FCF73DFF012803D12F
:104090000A20FFF75AFA0AE04FF48051EA48FCF789
:1040A00032FF012803D16FF00900FFF74EFA1E21FD
:1040B0000846FFF7C1F910BD10B56FF01D010846A5
:1040C000FFF7BAF99620FEF7FAFAB420FFF73DFAA7
:1040D0001E210846FFF7B0F910BD01460020DB4A5B
:1040E00012688A4201D9421CD0B2D94A1268D94B0F
:1040F0001B681A44B1EB520F01D2421CD0B2CF4A16
:104100001268643A8A4201D9421CD0B2CC4A126881
:104110008A4201D9421CD0B2704701460020CB4AE6
:1041200012688A4201D2421CD0B2C94A1268C94BF5
:104130001B681A44B1EB520F01D9421CD0B2BF4ADE
:104140001268643A8A4201D2421CD0B2BC4A126858
:104150008A4201D2421CD0B2704701460020BE4ABA
:1041600052888A4201DD421CD0B2BB4A92888A4200
:1041700001DD421CD0B2B84AD2888A4201DD421C1D
:10418000D0B2704701460020B34A52888A4201DA11
:10419000421CD0B2B04A92888A4201DA421CD0B2A4
:1041A000AD4AD2888A4201DA421CD0B2704710B5BB
:1041B000AA480068B0F5966F25D903E00F2108469C
:1041C000FFF77BF9A2480068A2490968084440F259
:1041D000DC51B1EB500FF1D3B420FFF7B6F903E097
:1041E0000F210846FFF769F999480068994909685D
:1041F000084440F69801B1EB500FF1D8FFF765FA8B
:10420000FFF76BF949E004E06FF00E010846FFF795
:1042100054F98E48006840F698018842F4D38F48DC
:104220000068B0F5966F25D903E00F210846FFF727
:1042300044F98748006887490968084440F2DC511E
:10424000B1EB500FF1D3B420FFF77FF903E00F215A
:104250000846FFF732F97E4800687E49096808443D
:1042600040F69801B1EB500FF1D8FFF72EFAFFF7A7
:1042700034F912E003E00F210846FFF71EF97448F5
:10428000006874490968084440F6C411B1EB500F46
:10429000F1D8FFF71AFAFFF720F910BD10B503E0C7
:1042A0000F210846FFF709F969480068694909685C
:1042B000084440F2DC51B1EB500FF1D86FF05900D7
:1042C000FFF743F903E00F210846FFF7F6F85F48D0
:1042D0000068B0F52F7FF6D84FF47A70FEF7EFF94B
:1042E0005A20FFF732F903E00F210846FFF7E5F8FF
:1042F0005748006857490968084440F69801B1EBEF
:10430000500FF1D8FFF7E1F9FFF7E7F810BD10B54E
:104310004F4800684F49096808444FF42F71B1EBCA
:10432000500F01D2012000E0002048490968B1F592
:104330002F7F01D9012100E000210843E0B13F486F
:1043400000683F49096888420AD95A20FFF7FDF8FA
:104350000F210846FFF740F86420FEF7B0F937E078
:104360006FF05900FFF7F1F80F210846FFF734F816
:104370006420FEF7A4F92BE030480068B0F52F7FE9
:1043800001D9012000E000202D490968B1F52F7FF7
:1043900001D9012100E000210843C8B12C48006880
:1043A0002C490968084429490968B1EB500F07D224
:1043B0000F210846FFF710F86420FEF780F907E0A8
:1043C0006FF00E010846FFF707F86420FEF777F953
:1043D00010BD10B51E4800681E49096808444FF416
:1043E0002F71B1EB500F07D218480068B0F52F7F3E
:1043F00002D9FFF7DCFE6BE010480068B0F52F7FB4
:104400000AD90F480068B0F52F7F05D95A20FFF769
:104410009CF8FFF7CCFE5BE00D4800680D49096889
:1044200008444FF42F71B1EB500F19D203480068C4
:10443000B0F52F7F14D9FFF731FF49E04400002089
:1044400048000020850000200008014040000020B6
:10445000380000203C000020580000204C000020C4
:104460009F480068B0F52F7F0AD99E480068B0F5D4
:104470002F7F05D95A20FFF768F8FFF70FFF27E0D5
:1044800097480068B0F52F7F0AD997480068B0F5C3
:104490002F7F05D9B420FFF758F8FFF7FFFE17E08C
:1044A000924800689249096808444FF42F71B1EBB3
:1044B000500F0BD28C480068B0F52F7F06D96FF0F3
:1044C0005900FFF742F8FFF7E9FE01E0FFF71FFF91
:1044D00010BD10B58748008848F2D04188420BDAF9
:1044E0008448008844F25061884205DD6FF01D0168
:1044F0000846FEF7D8FF30E07E480088B0F5FA6F36
:104500000ADD7C48008844F25061884204DA1E21AA
:104510000846FEF7C8FF20E07748008848F2D041FF
:1045200088420BDA7448008844F25061884205DD05
:104530006FF01D011E20FEF7B6FF0EE06E480088EA
:10454000B0F5FA6F09DD6C48008844F2506188428A
:1045500003DA1E214842FEF7A6FF10BD10B56348DE
:1045600000686349096808444FF4AF61B1EB500F2C
:1045700014D203E014210846FEF72EFF5F4840885E
:10458000B0F5966F09DD5D488088B0F5966FF9DD6E
:104590005A48C088B0F5966FECDCA0E0534800683C
:1045A000B0F52F7F1CD952480068B0F57A7F17D23A
:1045B0001420FEF7CAFF03E014210846FEF70CFFA3
:1045C0004E484088B0F5966F09DD4C488088B0F5BC
:1045D000966F04DD4948C088B0F5966FECDC7EE04C
:1045E00043480068B0F52F7F1DD940480068B0F5FA
:1045F0007A7F18D26FF01300FEF7A7FF03E01421B3
:104600000846FEF7E9FE3D484088B0F5966F66DD46
:104610003A488088B0F5966F61DD3848C088B0F5BB
:10462000966FECDC5BE02F480068B0F52F7F17D960
:104630005A20FEF78AFF03E014210846FEF7CCFE5D
:104640002E484088B0F5966F49DD2C488088B0F53B
:10465000966F44DD2948C088B0F5966FECDC3EE0EB
:1046600021480068B0F52F7F18D96FF05900FEF788
:104670006CFF03E014210846FEF7AEFE1F48408899
:10468000B0F5966F2BDD1D488088B0F5966F26DD5E
:104690001A48C088B0F5966FECDC20E0104800683E
:1046A000B0F52F7F17D9B420FEF74FFF03E0142198
:1046B0000846FEF791FE11484088B0F5966F0EDD72
:1046C0000E488088B0F5966F09DD0C48C088B0F5BB
:1046D000966FECDC03E014210846FEF77DFE10BD6A
:1046E0004000002044000020480000203800002046
:1046F0003C00002032000020340000205800002040
:1047000038B50C20042300909A480021026808461E
:10471000FFF7F1FA0C20042300909748002102686B
:104720002020FFF7E8FA0C20042300909348002192
:1047300002684020FFF7DFFA0C2004230090904825
:10474000002102686020FFF7D6FA0C2004230090B5
:104750008C480A2102680020FFF7CDFA0C200423C0
:10476000009089480A2102682020FFF7C4FA0C2033
:104770000423009085480A2102684020FFF7BBFA15
:104780000C200423009082480A2102686020FFF771
:10479000B2FA80A214210020FFF7FEFA7E480068DA
:1047A00000280FDA7DA214211920FFF7F5FA0C205A
:1047B0000323009078480068424214212520FFF727
:1047C0009AFA0DE076A214211920FFF7E5FA0C20E1
:1047D000032300907048142102682520FFF78BFA0C
:1047E00070A214214020FFF7D7FA6F480068002814
:1047F0000FDA6AA214215920FFF7CEFA0C20032306
:10480000009069480068424214216520FFF773FA5E
:104810000DE063A214215920FFF7BEFA0C200323F8
:1048200000906148142102686520FFF764FA5FA2D6
:104830001E210020FFF7B0FA5D48006800280FDA5B
:1048400056A21E210D20FFF7A7FA0C20042300908A
:104850005748006842421E211F20FFF74CFA0DE026
:104860004FA21E210D20FFF797FA0C200423009081
:104870004F481E2102681F20FFF73DFA4DA21E215E
:104880004020FFF789FA4C48006800280FDA43A25D
:104890001E214D20FFF780FA0C200423009046488B
:1048A000006842421E215F20FFF725FA0DE03CA27E
:1048B0001E214D20FFF770FA0C20042300903E4883
:1048C0001E2102685F20FFF716FA3CA22821002073
:1048D000FFF762FA3A480088642190FBF1F40C205B
:1048E00003232246282100901020FFF704FA31A26A
:1048F00028212A20FFF750FA32480088642190FBD3
:10490000F1F40C2003232246282100903A20FFF7DF
:10491000F2F92DA228215520FFF73EFA2B480088F6
:10492000642190FBF1F40C200323224628210090FF
:104930006520FFF7E0F90C20009025484288042309
:1049400032210020FFF7D7F90C2000902048828800
:10495000042332212820FFF7CEF90C2000901C48B8
:10496000C288042332215020FFF7C5F9FFF7E3F88E
:1049700038BD0000380000203C000020400000202E
:1049800044000020480000204C000020500000207F
:1049900054000020454E4C001C0000202D0000005B
:1049A0002B000000454E5200200000204C0000006B
:1049B00024000020520000002800002050000000C9
:1049C0003200002034000020590000003000002098
:1049D0005800002070477047704770477047754611
:1049E00000F028F8AE4605006946534620F007005F
:1049F000854618B020B5FBF733FDBDE820404FF0E9
:104A000000064FF000074FF000084FF0000B21F0B8
:104A10000701AC46ACE8C009ACE8C009ACE8C00985
:104A2000ACE8C0098D4670470446AFF300802046CD
:104A3000FBF7A3FB004870479C04002010B591EAE7
:104A4000030F48BF83F0004300F15883841A71EBD1
:104A5000030C05D2121943EB0C03001B61EB0C0194
:104A6000DFF824E14FEA1154A4EB135C1EEA430F74
:104A700018BF9EEA445F73D023EA0E03DCF1200ED8
:104A800021EA045143F4801332D322FA0CFE10EBD6
:104A90000E0023FA0CFE41EB0E01CCF1200E03FABE
:104AA0000EFE10EB0E0051F10001B1F5801FCCF1AC
:104AB000200E32D201EB045112FA0EF2BDE8104082
:104AC00058BF7047401C38BF5FEA420218BF7047AA
:104AD000002814BF20F0010041F100014FEA41031A
:104AE00013F5001F38BF7047A1F1C04100F0F8BABC
:104AF000012A43EB0302ACF1200CDCF11F0E32BFA4
:104B00004FF0000E23FA0CF310EB030041EB0451BD
:104B1000B4EB115FD0D0A1EB045101F5801149082D
:104B20005FEA300001EB04510ED350F1000038BFB2
:104B300012FA0EFE08D1BDE81040C9E7401C38BF8C
:104B40005FEA4202CAD1C3E7BDE810404FEA410321
:104B500013F5001F38BF7047A1F1C04100F0C0BA83
:104B60009EEA445F08D011EA5E0FBDE8104004BF22
:104B700001F0004100207047BDE8104070B500F022
:104B800061FA00BF64FBBE3E0000E0FF2DE9C041BA
:104B900030B4DFF8A0C23CEA111418BF3CEA131489
:104BA00000F0EC8081EA03051CEA111444EAD57494
:104BB00018BF1CEA131500F0C780A4EB05044FF0E2
:104BC000004545EAC12145EAC32341EA505143EA81
:104BD000525304F17F74994204F500344FEAC02027
:104BE0004FEAC22208BF904200F09C804FEA136552
:104BF0000FF24016765D4FEA134506FB05F7C7F145
:104C0000807706FB07F74FEAD737A7FB03687642A2
:104C1000C8F58038A7FB06CE38BFA8F1010807FB0E
:104C200008E64FF0000EA6FB028CE6FB03CEDCF19B
:104C3000000CCEF1004E38BFAEF1010EA6FB0C58B1
:104C40004FF000074FF00005E6FB0E87A1FB08C6FA
:104C5000A0FB07CE16EB0E0645F10005E1FB07654C
:104C600015F1E04E7EBFA4F580345FEA46066D4143
:104C700016F1800745F100054FEA17274FEA06664F
:104C800047EA0567A6F1DE46B6F1805F4FEA1525D3
:104C90001FD9384624F0010C05EBC471BCF1FE6F3E
:104CA00001EB0C1102D8F0BCBDE8008124425CBFCE
:104CB00001F5801E9EEAC47F02D4F0BCBDE80081ED
:104CC000244238D4F0BCA1F1C041BDE8004100F05D
:104CD00007BA4FEAD22242EA43524FEAD323A7FB54
:104CE00002864FEAD02040EA415007FB03661EEAE5
:104CF0000E0F4FEAD12105FB026658BFA6EB005606
:104D0000B6EB00564FEA520E4EEAC37E18EB0E0E7B
:104D100056EB530EBDD518EB02085E417F1C55F1D2
:104D20000005B6E74FF480154FF000074FF000067E
:104D30004FF00008ADE7F0BC4FF0000001F1C041BA
:104D400001F00041BDE8008111EA0C1F0CEA1315C7
:104D500000D00CE013EA0C1F00F025804FF000009B
:104D6000F0BC81EA030101F00041BDE80081F0BC24
:104D7000BDE8004181EA030100F0B2B9F0BCBDE832
:104D8000004170B500F05EF9097EFC3E00F007B806
:104D900081EA03014FF0000001F00041704781EA11
:104DA000030100F09DB9F0BCBDE800414FF00000E8
:104DB00021497047FFFDFBF9F7F5F4F2F0EEEDEB5A
:104DC000E9E8E6E4E3E1E0DEDDDBDAD8D7D5D4D309
:104DD000D1D0CFCDCCCBCAC8C7C6C5C4C2C1C0BF55
:104DE000BEBDBCBBBAB9B8B7B6B5B4B3B2B1B0AF5B
:104DF000AEADACABAAA9A8A8A7A6A5A4A3A3A2A13F
:104E0000A09F9F9E9D9C9C9B9A99999897979695F9
:104E100095949393929191908F8F8E8E8D8C8C8B95
:104E20008B8A89898888878786858584848383821D
:104E3000828181800000FF070000F87F4FEA410374
:104E40004FEA5353A3F58063D3F11E03C8BFD3F1D8
:104E5000210C0CDD4FF0004242EAC12242EA5052DE
:104E600032FA03FC8CEAE17CACEBE1707047102B6A
:104E7000C4BF0020704703F5787CBCF1FF3F04D02D
:104E80006FF0004282EA2100704770B500F0DAF856
:104E90004992248000207047F2E710F0004248BF9A
:104EA0004042B0FA80F310FA03F10AD0C3F11D03B7
:104EB00003F580634FEA415002EB035202EBD1212C
:104EC00070474FF000007047B0FA80F310FA03F11A
:104ED0000AD0C3F11D0303F580634FEA41504FEA46
:104EE000035202EBD12170474FF0000070470000E1
:104EF000DFF848C170B51CEA111E1EBF1CEA13156D
:104F00009EEA0C0F95EA0C0F00F06F8081EA030413
:104F100023EA4C134EEAD47E21EA4C1141F480116D
:104F200043F48013AE44A1FB024CA0FB0365AEF139
:104F30007F7E361955EB0C05A1FB034C4CF10003A9
:104F4000A0FB021C16EB0C06654153F1000309425D
:104F500018BF46F0010613F4007F0BD14FEA03316E
:104F60004FEA0530340341EA155140EA16506FF01C
:104F700003020AE04FEAC3214FEAC520F40241EAE6
:104F8000555140EA56506FF0020202EB2E4201EBFF
:104F9000025585EACE710AD05FEA440C18BF24F0AE
:104FA000004450F1000041F1000120EAD47040F2C9
:104FB000FE7C624500D270BDA84214BF4FF0804411
:104FC0004FF04044002E08BF0024BEF1806FA8BF00
:104FD000A1F1C041BDE8704080F282804FF0000036
:104FE00001F1C04101F0004170479EEA0C0F0CEA4C
:104FF000131518BF95EA0C0F06D04FF0000081EA98
:10500000030E0EF0004170BD00F01CF88900013E57
:1050100000F007B800F009B84FEA430C5FEA5C5CA7
:1050200008D081EA030100F05BB84FEA410C5FEA67
:105030005C5CF6D14FF00000014970470000FF07AB
:105040000000F87F0EF1020E2EF0030E5EF8046BE6
:10505000364205D4012A43EB030515F5001F12D88B
:10506000012841EB010C1CF5001F0CD80ED14FEAB2
:10507000D17C15F5001F0CEB4C0C0CF1020C08BF99
:105080004CEBD37C04E04FF0080C01E04FEAD37CFA
:105090000CEB4C0526FA05F606F00706B6F1040CF3
:1050A00006D20EEB860CBDE870404CF0010C604758
:1050B000DFE80CF0090B02024FF000414FF0000056
:1050C000A1F5002170BD19461046012851EB0104DD
:1050D00018BFD4F5001484BF002001F0004170BD5A
:1050E0000808A0F500114FEA3101704710B591EAA8
:1050F000030F48BF83F000433FF5A8AC841A71EB5F
:10510000030C07D212198CF0004C43EB0C03001B6C
:1051100061EB0C01DFF8A4E14FEA1154A4EB135C3E
:105120001EEA430F18BF9EEA445F00F0B08023EAF6
:105130006E03524221EA0451C3EB6E0338BF5B1E7B
:10514000DCF1200E25D322FA0CFE10EB0E0043FA00
:105150000CFE41EB0E01CCF1200E03FA0EFE10EB1B
:105160000E0051F10001CCF1200E29D412FA0EF2FA
:1051700001EB0451BDE8104058BF7047401C1CBFF4
:10518000B2F1004F704700280CBF491C20F001000D
:10519000704712EB020E43EB030218BF4FF0010EF3
:1051A0004EEA4202ACF1200CDCF11E0E54D943FA57
:1051B0000CFE10EB0E0051F1FF31CCF11E0ED5D5D7
:1051C0000EF1010E12FA0EFE404141EB010101EB1E
:1051D000445C5FEA5C5C10D910EBDE7001EB0451BB
:1051E00038BFBEF1004FBDE8104018BF704700281F
:1051F0000CBF491C20F00100704730D24FEAD42C7C
:1052000011F5001124F400641BD0B1FA81F20B3ABD
:10521000A41AA41ED2F12003914030FA03F31943DB
:10522000904001EBCC71002C01EB0451BDE8104023
:10523000A8BF704701F1C0414FF0000001F00041EC
:105240007047B0FA80F310FA03F100D110BDE41AF0
:10525000173C4805C90AE4E701EB045110BD4910A9
:1052600001EB0451BDE810404FEA300002E04FF07E
:10527000000170474A0008BF0042F8D0B2F5001F95
:1052800028BF704701F000414FF0000070479EEAD0
:10529000445F07D011EA5E0FBDE8104004BF002153
:1052A00000207047BDE8104070B5FFF7CBFE00BF8F
:1052B00040DFF63E83F00041104670470000E0FFFB
:1052C00000000000000000000000000000000000DE
:1052D0003F400000000000000000300040003000AF
:1052E0004000000009000BC03D000BC03D0009005C
:1052F00018C024407FE0224031800000180024C004
:105300001B000D803240018003801C4027401C8020
:105310000740004010006000000000000000000096
:105320000000000000001F802040402000004020BE
:1053300020401F8000000000090006001F800600BA
:1053400009000000040004003F8004000400000085
:1053500000100060000000000000000004000400D5
:1053600004000400040000000000004000000000F1
:1053700000000000002001C00600380040000000CE
:105380001F802040204020401F800000000010406F
:105390003FC000400000000018C0214022402440CF
:1053A0001840000010802040244024401B80000052
:1053B00002000D0011003FC0014000003C8024406D
:1053C00024402440238000001F8024402440344097
:1053D000038000003000200027C0380020000000BB
:1053E0001B802440244024401B8000001C0022C05D
:1053F000224022401F800000000000000840000002
:105400000000000000000000046000000000000038
:10541000000004000A00110020804040090009003B
:105420000900090009000000000040402080110030
:105430000A00040018002000234024001800000087
:105440001F802040274029401F400000004007C027
:1054500039000F0001C0004020403FC024402440DC
:105460001B8000001F802040204020403080000032
:1054700020403FC0204020401F80000020403FC00F
:1054800024402E4030C0000020403FC024402E0069
:10549000300000000F0010802040224033800200C6
:1054A00020403FC0040004003FC020402040204076
:1054B0003FC02040204000000060202020203FC04E
:1054C0002000200020403FC024400B0030C020407E
:1054D00020403FC020400040004000C03FC03C0092
:1054E00003C03C003FC0000020403FC00C402300F0
:1054F0003FC020001F802040204020401F8000002F
:1055000020403FC024402400180000001F8021409C
:10551000214020E01FA0000020403FC02440260082
:1055200019C0004018C024402440224031800000AF
:10553000300020403FC020403000000020003F806D
:10554000004000403F80200020003E0001C00700D6
:1055500038002000380007C03C0007C038000000B9
:10556000204039C0060039C02040000020003840EB
:1055700007C0384020000000304021C0264038409D
:1055800020C00000000000007FE04020402000001C
:10559000000070000C00038000400000000040206C
:1055A00040207FE0000000000000200040002000BC
:1055B000000000000010001000100010001000108B
:1055C0000000000040000000000000000000028019
:1055D0000540054003C0004020003FC00440044097
:1055E00003800000000003800440044006400000E7
:1055F00000000380044024403FC0004000000380BE
:105600000540054003400000000004401FC0244046
:1056100024402000000002E0055005500650042000
:1056200020403FC00440040003C00040000004408C
:1056300027C000400000000000100010041027E008
:105640000000000020403FC00140070004C00440AB
:10565000204020403FC000400040000007C0040040
:1056600007C0040003C00000044007C00440040059
:1056700003C0004000000380044004400380000099
:10568000041007F004500440038000000000038071
:105690000440045007F00010044007C0024004001A
:1056A00004000000000006400540054004C0000062
:1056B000000004001F800440004000000400078038
:1056C0000040044007C000400400070004C00180FF
:1056D00006000400060001C0070001C0060000002B
:1056E000044006C0010006C004400000041007107A
:1056F00004E00180060004000000044005C00640EC
:10570000044000000000000004007BE04020000096
:10571000000000000000FFF000000000000040203A
:105720007BE00400000000004000800040002000FA
:105730002000400000000000000000000000000009
:1057400000000000000000F800000000000000332E
:105750003000000000100C06100C060000000000D5
:105760000000000040C07840C0784000043F0404BE
:105770003F040400007088FC08300000001820FF7F
:10578000211E0000F008F000E018000000211C03BA
:105790001E211E0000F00888700000001E21232436
:1057A0001927211010160E00000000000000000054
:1057B00000000000000000E01804020000000007E4
:1057C0001820400000020418E000000000402018EB
:1057D00007000000404080F0804040000202010FBE
:1057E00001020200000000F0000000000101011FA2
:1057F00001010100000000000000000080B0700006
:105800000000000000000000000000000001010195
:105810000101010100000000000000000030300024
:1058200000000000000000008060180400601806FE
:105830000100000000E010080810E000000F102038
:1058400020100F00001010F8000000000020203F82
:10585000202000000070080808887000003028240C
:1058600022213000003008888848300000182020AD
:1058700020110E000000C02010F8000000070424D2
:10588000243F240000F80888880808000019212017
:1058900020110E0000E0108888180000000F112071
:1058A00020110E0000380808C83808000000003F2A
:1058B000000000000070880808887000001C222189
:1058C00021221C0000E010080810E0000000312236
:1058D00022110F00000000C0C000000000000030D6
:1058E0003000000000000080000000000000806028
:1058F00000000000000080402010080000010204A9
:10590000081020004040404040404000040404048F
:10591000040404000008102040800000002010084B
:1059200004020100007048080808F0000000003080
:1059300036010000C030C828E810E000071827240E
:1059400023140B000000C038E0000000203C2302BC
:105950000227382008F8888888700000203F20201F
:1059600020110E00C0300808080838000718202051
:105970002010080008F808080810E000203F202048
:1059800020100F0008F88888E8081000203F202029
:105990002320180008F88888E8081000203F20001D
:1059A00003000000C0300808083800000718202055
:1059B000221E020008F808000008F808203F210114
:1059C00001213F20000808F8080800000020203FBF
:1059D0002020000000000808F8080800C08080802F
:1059E0007F00000008F888C028180800203F200128
:1059F0002638200008F8080000000000203F202082
:105A00002020300008F8F800F8F80800203F003F98
:105A1000003F200008F830C00008F808203F2000B0
:105A200007183F00E01008080810E0000F102020C1
:105A300020100F0008F808080808F000203F210196
:105A400001010000E01008080810E0000F182424ED
:105A500038504F0008F8888888887000203F200060
:105A6000030C302000708808080838000038202116
:105A700021221C00180808F8080818000000203F20
:105A80002000000008F808000008F808001F202087
:105A900020201F000878880000C838080000073858
:105AA0000E010000F80800F80008F800033C0700A9
:105AB000073C0300081868808068180820302C0311
:105AC000032C30200838C800C83808000000203FE8
:105AD0002000000010080808C838080020382621D7
