:020000040800F2
:10000000D80C0020690200085D0A000805080008F5
:10001000590A0008ED0400086519000800000000F6
:10002000000000000000000000000000790F000840
:10003000B906000800000000370B00089110000806
:10004000830200088302000883020008830200087C
:10005000830200088302000883020008830200086C
:10006000830200088302000883020008830200085C
:10007000830200088302000883020008830200084C
:10008000830200088302000883020008830200083C
:10009000830200088302000883020008830200082C
:1000A000830200088302000883020008830200081C
:1000B000FD10000883020008830200088302000884
:1000C00083020008830200088302000883020008FC
:1000D0008302000883020008830200082D1800082C
:1000E00083020008830200088302000883020008DC
:1000F00083020008830200088302000883020008CC
:100100008302000883020008FD1300088302000830
:1001100083020008830200088302000883020008AB
:10012000830200088302000883020008830200089B
:10013000830200088302000883020008830200088B
:10014000830200088302000883020008830200087B
:10015000830200088302000883020008830200086B
:10016000830200088302000883020008830200085B
:10017000830200088302000883020008830200084B
:10018000830200088302000800F002F800F05CF827
:100190000AA090E8000C82448344AAF10107DA45E2
:1001A00001D100F051F8AFF2090EBAE80F0013F0D8
:1001B000010F18BFFB1A43F001031847B4200000D9
:1001C000D42000000A444FF0000C10F8013B13F05B
:1001D000070408BF10F8014B1D1108BF10F8015BA0
:1001E000641E05D010F8016B641E01F8016BF9D193
:1001F00013F0080F1EBF10F8014BAD1C0C1B09D1EA
:100200006D1E58BF01F801CBFAD505E014F8016B5B
:1002100001F8016B6D1EF9D59142D6D370470000ED
:100220000023002400250026103A28BF78C1FBD8FF
:10023000520728BF30C148BF0B6070471FB502F09E
:1002400011F81FBD10B510BD00F033F81146FFF7CF
:10025000F5FF01F0F3FD00F051F803B4FFF7F2FFF2
:1002600003BC01F081FB00000948804709480047B2
:10027000FEE7FEE7FEE7FEE7FEE7FEE7FEE7FEE756
:10028000FEE7FEE704480549054A064B70470000B3
:100290009510000889010008D8060020D80C00201D
:1002A000D8080020D8080020704770477047704772
:1002B0007047754600F028F8AE460500694653467B
:1002C00020F00700854618B020B5FFF7DBFFBDE83A
:1002D00020404FF000064FF000074FF000084FF0AD
:1002E000000B21F00701AC46ACE8C009ACE8C0093E
:1002F000ACE8C009ACE8C0098D4670470446AFF3CE
:1003000000802046FFF7A9FF0048704774060020D0
:1003100021B1826842F00102826003E0826822F02B
:1003200001028260704700000021084A1168084AF3
:100330001140D0E900231A4383681A43C3681A4363
:100340001143044AC2F8041370470000042301401B
:10035000E030FCFF0020014021B1826842F480724D
:10036000826003E0826822F480728260704721B16B
:10037000826842F40072826003E0826822F40072B4
:100380008260704710B50121080200F005FC0021D1
:100390004FF4807000F000FC10BD000030B5024644
:1003A000002000235068104C20400D790C6844EA6E
:1003B00005242043506090680C4C2040D1E9035440
:1003C0002C438D682C434D7944EA450420439060CA
:1003D000D06A20F470000C7D641EE4B2234340EA2E
:1003E0000350D06230BD0000FFFEFFFCFDF7FFC0F0
:1003F000F0B504460D4600200021092D11DDE0680E
:10040000A5F10A0606EB4607072606FA07F1884318
:10041000A5F10A0606EB460603FA06F10843E0607A
:100420000CE0206905EB4507072606FA07F188432B
:1004300005EB450603FA06F108432061072A0FDAA7
:10044000606B561E06EB86071F2606FA07F18843E7
:10045000561E06EB860605FA06F10843606322E0A5
:100460000D2A0FDA206BD61F06EB86071F2606FA29
:1004700007F18843D61F06EB860605FA06F1084306
:10048000206310E0E06AA2F10D0606EB86071F2646
:1004900006FA07F18843A2F10D0606EB860605FA77
:1004A00006F10843E062F0BD816841F0804181605F
:1004B000704700001CB54FF40060009001208DF8DB
:1004C000040000208DF8060003208DF805000120AF
:1004D0008DF807006946044800F01CF94FF40061EC
:1004E000014800F08DF91CBD000C024000BFFEE782
:1004F00021B1026842F00102026003E0026822F0CA
:100500000102026070470000016821F001010160F2
:100510000021016041608160C16001612121416170
:100520004A49884204D13D21484A103A91608CE002
:1005300046491831884205D14FF47461434A103A54
:10054000916082E041493031884205D14FF4741105
:100550003E4A103A916078E03C494831884205D1E2
:100560004FF07461394A103A91606EE0374960315A
:10057000884204D13649354A103AD16065E03349A2
:100580007831884204D13349304A103AD1605CE076
:100590002E499031884204D12F492C4A103AD1601B
:1005A00053E02A49A831884205D14FF03D51274AEE
:1005B000103AD16049E02949884204D13D21274AB7
:1005C000083A116041E025491831884205D14FF4BD
:1005D0007461224A083A116037E02049303188427C
:1005E00005D14FF474111D4A083A11602DE01B49E2
:1005F0004831884205D14FF07461184A083A1160B9
:1006000023E016496031884204D11149134A121F70
:1006100011601AE011497831884204D10D490F4A1E
:10062000121F116011E00D499031884204D10A492E
:100630000A4A121F116008E00849A831884204D113
:100640004FF03D51054A121F116070471060024083
:100650003D000020400F002000003D2010640240BB
:1006600010B500220268134B1A40CC680B68234374
:100670004C6923438C692343CC6923430C6A23438D
:100680004C6A23438C6A23434C6B23438C6B234378
:100690001A430260426922F00702D1E90B34234376
:1006A0001A4342610B6943604B6883608B68C36087
:1006B00010BD00003F801CF0704700001CB50220F8
:1006C000009001208DF804008DF8060003208DF8BD
:1006D000050001208DF807006946024800F01AF86D
:1006E0001CBD0000001002401CB50220009000203C
:1006F0008DF8040002208DF8070003208DF8050016
:1007000001208DF807006946014800F003F81CBD80
:1007100000100240F0B50A4600210023002400BF6B
:100720003DE0012505FA01F3156805EA03049C4242
:1007300034D105684F000326BE40B54305601579E6
:100740004E00B5400668354305601579012D02D08D
:100750001579022D16D185684F000326BE40B5439A
:10076000856055794E00B54086683543856045689B
:1007700001268E40B5434560456896798E40B6B2F5
:1007800035434560C5684F000326BE40B543C5608C
:10079000D5794E00B540C6683543C560491C10295F
:1007A000BFD3F0BDF0B5002300244D07ED0E02FAD3
:1007B00005F3CE1000F1200555F826504E07F70E30
:1007C0000F26BE40B543CF1000F1200646F8275053
:1007D000CE1000F1200555F8265045EA0304CE104E
:1007E00000F1200545F82640F0BD024600201369BF
:1007F0000B400BB1012000E000207047418370479F
:100800000183704700BFFEE710B54FF4C87001F0D8
:1008100001F900F06BF904213048FFF7EFFF0121E7
:100820002E48FFF7EDFFAE2001F028FC202001F05C
:1008300025FC102001F022FCB02001F01FFCC82094
:1008400001F01CFC002001F019FC102001F016FC46
:10085000402001F013FC812001F010FCFF2001F08A
:100860000DFCA12001F00AFCA62001F007FCA82045
:1008700001F004FC3F2001F001FCA42001F0FEFB8C
:10088000D32001F0FBFB002001F0F8FBD52001F0A4
:10089000F5FBF02001F0F2FBD92001F0EFFB222064
:1008A00001F0ECFBDA2001F0E9FB122001F0E6FB9D
:1008B000DB2001F0E3FB202001F0E0FB8D2001F0C4
:1008C000DDFB142001F0DAFBAF2001F0D7FB04219F
:1008D0000248FFF795FF01F073F810BD00100240C9
:1008E0001CB54020009000208DF8040003208DF8F6
:1008F000050001208DF8070069461948FFF70AFF37
:100900004FF40070009000208DF8040003208DF853
:10091000050001208DF8070069461248FFF7FAFE2E
:100920008020009000208DF8040003208DF8050041
:1009300001208DF8070069460B48FFF7EBFE4FF4E6
:100940000050009000208DF8040003208DF8050071
:1009500001208DF8070069460448FFF7DBFE1CBD47
:100960000010024000040240000C02400008024057
:100970001CB54FF48050009001208DF80400002039
:100980008DF8060003208DF8050001208DF8070082
:1009900069461048FFF7BEFE4FF400610D48FFF7AF
:1009A0002FFF4FF40060009001208DF8040000201C
:1009B0008DF8060003208DF8050001208DF8070052
:1009C00069460548FFF7A6FE4FF400610248FFF7AD
:1009D00017FF1CBD000002400010024010B54FF48C
:1009E000A06000F079F80121084600F0A5F8012187
:1009F000022000F0A1F80121042000F09DF801215F
:100A0000082000F099F80121102000F095F8A820A6
:100A100001F00EF80F49012001F094FBFFF74AFDA9
:100A2000FFF75EFFFFF7F0FE00F076F8532140F28B
:100A3000E73000F09DFB01F0FFFA532140F2E73070
:100A400000F0FEFC01F008FBFFF792FF00F028F930
:100A500010BD000040420F0000BFFEE770470000DD
:100A600070B5002100230F22C4781CB3174C2468F2
:100A700004F4E064C4F5E064C4F30721C1F10404A4
:100A8000E3B20A4144789C40E1B2847814402143A7
:100A90000C07210E0E4C05786155047804F01F05F3
:100AA0000124AC4005786D11AD0005F1E025C5F8D5
:100AB000004109E0047804F01F050124AC40054D15
:100AC0000678761145F8264070BD00000CED00E078
:100AD00000E400E080E100E002490143024A1160C5
:100AE000704700000000FA050CED00E01CB53F2047
:100AF000009001208DF8040000208DF806000320EE
:100B00008DF8050001208DF8070069460148FFF7C0
:100B100001FE1CBD0010024010B5022140F2E7307A
:100B200000F050FB022140F2E73000F0D9FB012039
:100B300001F054F910BD704729B1064A126802430A
:100B4000044B1A6004E0034A12688243014B1A60A6
:100B5000704700003038024029B1064A126802434B
:100B6000044B1A6004E0034A12688243014B1A6086
:100B7000704700004038024029B1064A126802431B
:100B8000044B1A6004E0034A12688243014B1A6066
:100B9000704700004438024029B1064A12680243F7
:100BA000044B1A6004E0034A12688243014B1A6046
:100BB0007047000024380240F0B5002100220024D4
:100BC000022500260223324F3F6807F00C0121B1B5
:100BD000042905D0082937D105E02E4F076036E0FB
:100BE0002D4F076033E02A4F3F1F3F68C7F3805601
:100BF000274F3F1F3F6807F03F036EB1264FB7FBFB
:100C0000F3F7DFF88CC0ACF1040CDCF800C0CCF3D7
:100C1000881C07FB0CF40CE01E4FB7FBF3F7DFF862
:100C200070C0ACF1040CDCF800C0CCF3881C07FBEE
:100C30000CF4174F3F1F3F68C7F301477F1C7D002F
:100C4000B4FBF5F7076002E0124F076000BF00BF7A
:100C50000F4F3F6807F0F0010909104F7A5C0768F1
:100C6000D74047600A4F3F6807F4E051890A0B4FAD
:100C70007A5C4768D7408760054F3F6807F460415A
:100C8000490B064F7A5C4768D740C760F0BD00004B
:100C9000083802400024F40000127A000406002004
:100CA00000B59BB001218805FFF746FF3F20199052
:100CB00003208DF8680000208DF86B0019A9A64864
:100CC000FFF728FDFF20199003208DF86800002011
:100CD0008DF86B0019A9A148FFF71CFD032019909E
:100CE0008DF8680000208DF86B0019A99C48FFF76B
:100CF00011FD4FF28070199000208DF868000320DC
:100D00008DF8690001208DF86B0019A99548FFF74F
:100D100001FD4FF60440199000208DF86800032073
:100D20008DF8690001208DF86B0019A98C48FFF738
:100D3000F1FC40F21F70199000208DF8680003202C
:100D40008DF8690001208DF86B0019A98648FFF71E
:100D5000E1FC4FF40040199000208DF8680003205A
:100D60008DF8690001208DF86B0019A97B48FFF709
:100D7000D1FC4FF48050199000208DF868000320BA
:100D80008DF8690001208DF86B0019A97248FFF7F2
:100D9000C1FC01210802FFF7FFFE00214FF4807023
:100DA000FFF7FAFE7148FFF7AFFB00200090704894
:100DB00001907048029000200390102004900020C1
:100DC00005904FF4806006904000079080000890E6
:100DD0004011099040020A9000200B9001200C90D5
:100DE00000200D900E9069466048FFF739FC012104
:100DF0005E48FFF77DFB01210802FFF7BDFE0121E0
:100E00000802FFF7C9FE00214FF48070FFF7C4FE0F
:100E1000FFF7B8FA0020159017904FF48030169025
:100E20000020189015A8FFF77FFA00200F900120EE
:100E30008DF840008DF84100002011901390102093
:100E40008DF850000FA94A484C38FFF7A7FA032342
:100E50000122002146484C38FFF7CAFA0323022238
:100E6000012143484C38FFF7C3FA03231A460221F5
:100E70003F484C38FFF7BCFA0323042219463C488C
:100E80004C38FFF7B5FA03230522042138484C38C3
:100E9000FFF7AEFA03230622052135484C38FFF749
:100EA000A7FA03230722062131484C38FFF7A0FA9E
:100EB0000323082207212E484C38FFF799FA032311
:100EC000092208212A484C38FFF792FA03230A2204
:100ED000092127484C38FFF78BFA03230B220A21FC
:100EE00023484C38FFF784FA03230C220B212048B7
:100EF0004C38FFF77DFA03230D220C211C484C3897
:100F0000FFF776FA03230E220D2119484C38FFF71C
:100F10006FFA03230F220E2115484C38FFF768FAA9
:100F2000032310220F2112484C38FFF761FA0121E8
:100F30000F484C38FFF71BFA01210D484C38FFF7DA
:100F40000BFA01210A484C38FFF7E2F908484C38FF
:100F5000FFF7AAFA1BB000BD0008024000000240E3
:100F60000004024000100240000C024010640240E5
:100F70004C20014014060020704700000CB50020F2
:100F8000019000903448006840F480303249086095
:100F900000BF3148006800F4003000900198401C08
:100FA0000190009818B90198B0F5A04FF1D12A48E6
:100FB000006800F4003010B10120009001E0002032
:100FC00000900098012846D123484030006840F046
:100FD00080502149403108602048006840F440407A
:100FE0001E4908601C48083000681B490831086029
:100FF0000846006840F4004008600846006840F475
:10100000A05008601648091F0860081F006840F0DB
:101010008070091F086000BF0F48006800F0007072
:101020000028F9D040F205700E4908600A480830DF
:10103000006820F00300084908310860084600688D
:1010400040F00200086000BF03480830006800F06C
:101050000C000828F8D10CBD003802400070004098
:1010600008544007003C0240042808D14FF0E0211A
:10107000096941F004014FF0E022116107E04FF0EF
:10108000E021096921F004014FF0E022116170476D
:101090007047000010B51548006840F4700013490F
:1010A00008601348006840F0010011490860002002
:1010B0000F49083108600E4800680E4908400C4985
:1010C00008600D48091D0860081F006820F4802092
:1010D000091F0860002006490C310860FFF74EFF29
:1010E0004FF0006001498039086010BD88ED00E0D4
:1010F00000380240FFFFF6FE1030002410B5012139
:10110000880700F0E2F9012823D11448007801286B
:1011100010D113480088401C1149088008460088F7
:10112000C82807DB01200F49086000200B49087020
:101130000B4908800C480088401C0B490880084671
:101140000088B0F57A7F04D108480088401C074920
:1011500008800121880700F0A9F910BDFC050020D6
:10116000FE050020AC824142F4050020F605002077
:101170007FB505460C4601210846FFF7EDFC0295B8
:10118000ADF804400020ADF80600ADF80C0001A950
:101190004FF0804000F008FB01221146900700F05C
:1011A000A5F91C208DF8000001208DF80100032016
:1011B0008DF8020001208DF803006846FFF750FC0F
:1011C0007FBD000030B58BB004460D4601210220E2
:1011D000FFF7C2FC022206213F48FFF7E3FA022292
:1011E00007213D48FFF7DEFA022208213A48FFF7BF
:1011F000D9FA022209213848FFF7D4FA4FF4707067
:10120000099002208DF8280003208DF82900002085
:101210008DF82A0001208DF82B0009A92E48FFF730
:1012200079FAA8B2ADF818000020ADF81A000794BA
:10123000ADF8200006A9294800F0B6FA6020ADF804
:1012400004000120ADF806000020ADF8100001A94F
:10125000224800F055F96020ADF804000120ADF8F7
:1012600006000020ADF8100001A91C4800F090F91C
:101270006020ADF804000120ADF806000020ADF8B4
:10128000100001A9154800F0E3F96020ADF8040052
:101290000120ADF806000020ADF8100001A90F48AC
:1012A00000F030FA08210D4800F068F908210B48D9
:1012B00000F0C0F90821094800F01AFA082107488F
:1012C00000F05CFA0121054800F0E4F80121034830
:1012D00000F0EFF80BB030BD000802400004004001
:1012E00030B58BB004460D4601210420FFF734FCD5
:1012F00002220C213F48FFF755FA02220D213D48FA
:10130000FFF750FA02220E213A48FFF74BFA022269
:101310000F213848FFF746FA4FF470400990022039
:101320008DF8280003208DF8290000208DF82A0070
:1013300001208DF82B0009A92E48FFF7EBF9A8B280
:10134000ADF818000020ADF81A000794ADF82000A1
:1013500006A9294800F028FA6020ADF80400012011
:10136000ADF806000020ADF8100001A9224800F0F9
:10137000C7F86020ADF804000120ADF80600002099
:10138000ADF8100001A91C4800F002F96020ADF88A
:1013900004000120ADF806000020ADF8100001A9FE
:1013A000154800F055F96020ADF804000120ADF8B3
:1013B00006000020ADF8100001A90F4800F0A2F9C6
:1013C00008210D4800F0DAF808210B4800F032F946
:1013D0000821094800F08CF90821074800F0CEF9EF
:1013E0000121054800F056F80121034800F061F89A
:1013F0000BB030BD000C02400008004010B50121C8
:101400000C4800F062F801280ED10B480088401CFF
:101410000949088008460088B0F57A7F04D107485A
:101420000088401C054908800121024800F03EF870
:1014300010BD0000000C0040F8050020FA05002057
:101440007FB505460C4601210820FFF785FB029574
:10145000ADF804400020ADF80600ADF80C0001A97D
:101460000B4800F0A1F901221146094800F03EF8AE
:1014700032208DF8000001208DF8010003208DF846
:10148000020001208DF803006846FFF7E9FA7FBDEE
:10149000000C004021B1028842F08002028004E08A
:1014A00002884FF67F731A4002807047CA43028257
:1014B000704721B1028842F00102028004E00288F4
:1014C0004FF6FE731A400280704730B50246002086
:1014D00000230024158A05EA0103958905EA010421
:1014E00013B10CB1012000E0002030BD1AB1838996
:1014F0000B43838102E083898B4383817047000023
:1015000070B5002400220023058C4FF6FE7635408E
:101510000584028C8388048B4FF68F752C40B51E92
:101520002C400D882C43751E2A408D892A434D88F6
:101530002A43104DA84202D00F4DA84213D14FF6B6
:10154000F7752A40CD892A434FF6FB752A408D88CE
:101550002A434FF6FF652B404FF6FF552B400D8A6F
:101560002B434D8A2B43838004838D68456302841B
:1015700070BD000000000140000401400A46002147
:10158000018B4FF6F7731940114301837047000038
:1015900070B5002400220023058C4FF6EF7635400D
:1015A0000584028C8388048B48F6FF752C404FF627
:1015B000FF452C400D884FF6FF7606EA05252C43A3
:1015C0004FF6DF752A408D8906EA05152A434D88B6
:1015D00006EA05152A43154DA84202D0144DA8422B
:1015E0001DD14FF67F752A40CD894FF6FF7606EA6A
:1015F00005152A434FF6BF752A408D8806EA051562
:101600002A434FF6FF352B404FF2FF752B400D8AD2
:1016100006EA85052B434D8A06EA85052B43838020
:1016200004838D688563028470BD00000000014062
:10163000000401400A460021018B4FF2FF7319405C
:101640004FF6FF7303EA022319430183704700003A
:1016500070B5002400220023058C4FF6FF6635404C
:101660000584028C8388848B4FF68F752C404FF64F
:10167000FC752C400D882C434FF6FF552A408D8970
:101680004FF6FF7606EA05252A434D8806EA05252A
:101690002A43154DA84202D0144DA8421DD14FF245
:1016A000FF752A40CD894FF6FF7606EA05252A43C5
:1016B0004FF6FF352A408D8806EA05252A434EF667
:1016C000FF752B404DF6FF752B400D8A06EA051578
:1016D0002B434D8A06EA05152B43838084838D684E
:1016E000C563028470BD0000000001400004014099
:1016F0000A460021818B4FF6F7731940114381830D
:101700007047000070B5002200230024058C4EF6BF
:10171000FF7635400584038C8488828B48F6FF75FC
:101720002A404FF6FF452A400D884FF6FF7606EA1D
:1017300005252A434DF6FF752B408D8906EA0535B0
:101740002B434D8806EA05352B430A4DA84202D0AB
:10175000094DA84208D14BF6FF752C400D8A4FF673
:10176000FF7606EA85152C43848082838D680564A4
:10177000038470BD00000140000401400A460021BE
:10178000818B4FF2FF7319404FF6FF7303EA022378
:101790001943818370474163704781637047C16318
:1017A000704701647047000000220288184B98427D
:1017B0000ED0184B98420BD0B0F1804F08D0164B8A
:1017C000984205D0154B984202D0154B984204D14F
:1017D0004FF68F731A404B881A43124B984207D02A
:1017E000114B984204D04FF6FF431A400B891A431D
:1017F00002804B68C3620B880385054B984202D078
:10180000044B984201D18B7A03860123838270476F
:1018100000000140000401400004004000080040B6
:10182000000C00400010004000140040704721B13F
:10183000828942F40052828104E082894DF6FF736E
:101840001A4082817047F0B5034600240026002527
:10185000002040F66A17B94200D100BF1846C1F314
:10186000421401F01F06012707FA06F5012C01D1E9
:101870000C3004E0022C01D1103000E014301AB119
:1018800007682F43076002E00768AF430760F0BDB9
:101890002DE9FF4705460E460024A14600BFA0469D
:1018A000B08900B100BF2C8A24F44054F08804436E
:1018B0002C82AC8941F20C608443B08831890843A2
:1018C000718908430443AC81AC8A24F44074B08924
:1018D0000443AC826846FFF76FF92048854202D086
:1018E0001F48854202D1DDF80C9001E0DDF8089038
:1018F000A88900F4004040B109EBC90000EB0910D1
:1019000031684900B0FBF1F707E009EBC90000EBD3
:10191000091031688900B0FBF1F76420B7FBF0F0E3
:1019200004012009642101FB1078A88900F400401B
:1019300040B1322000EBC800B0FBF1F000F007002E
:10194000044308E0322000EB08106421B0FBF1F002
:1019500000F00F0004432C81BDE8FF870010014018
:101960000014014000BFFEE7014600BF70472DE9AB
:10197000F04104460F4615461E462146002000F061
:101980009FFA3946012000F09BFA2946022000F018
:1019900097FA3146032000F093FABDE8F08110B5C4
:1019A00000F002F810BD000001200349087000207B
:1019B0000249086070470000FC050020AC824142EB
:1019C00070B504211248FEF719FF01211048FEF7F7
:1019D00017FF002414E004F1B00000F04FFB0020DA
:1019E00000F04CFB102000F049FB002504E0002033
:1019F00000F076FB681CC5B2802DF8DB601CC4B219
:101A0000082CE8DB04210248FEF7FAFE70BD000056
:101A100000100240002107E0002200E0521C41F2C9
:101A20007C539A42FADB491C8142F5DB7047000087
:101A300010B504466FF00400FFF716FBE11704EB46
:101A40005171C1F3C701074A11701046007800EBCD
:101A50004001C1EBC0104FF6FF7101EAC00002491E
:101A6000088010BD000600200206002070B5044664
:101A70004FF4077094FBF0F0C6B24FF4077094FB7C
:101A8000F0F100FB114085B205E04FF4077000F063
:101A900009F8701EC6B2002EF7D115B1284600F025
:101AA00001F870BD0146114A12884A434FF0E02305
:101AB0005A6100229A611A46126942F001021A61C3
:101AC00000BF4FF0E022106900F001021AB100F4EB
:101AD0008032002AF5D04FF0E022126922F0010294
:101AE0004FF0E0231A6100229A617047020600203D
:101AF0002DE9F0478EB082460E4615460024A8E038
:101B0000285DB02837DB285DF72834DC601C285CB2
:101B1000A12830DB285DB0385E2110FB01F0504970
:101B20000860601C285C00F2AD20096808444C493C
:101B30000860084600684001086008460068C0F375
:101B4000074708460088C0F30728084690F8009029
:101B5000202006AB4A4641460090384600F00CF97A
:101B600006AA3146504600F07FF8A01CC4B206F128
:101B70001000C6B26DE0285DA12836DB285DA328E1
:101B800033DC601C285CA1282FDB285DA1385E2196
:101B900010FB01F032490860601C285CA13809681C
:101BA00008442F490860084600684001086008465C
:101BB0000068C0F3074708460088C0F307280846B6
:101BC00090F80090202006AB4A46414600903846E7
:101BD00000F0D2F806AA3146504600F045F8A01CA5
:101BE000C4B206F11000C6B233E0285D20282EDB17
:101BF000285D7E282BDC285D2038194908600846BE
:101C00000068000108600846006816490844144945
:101C1000086008460068C0F3074708460088C0F31C
:101C20000728084690F80090102002AB4A4641462B
:101C30000090384600F0A0F802AA3146504600F065
:101C400041F8601CC4B206F10800C6B201E0601C95
:101C5000C4B2285D00283FF753AF0EB0BDE8F0874F
:101C6000F005002080CF03002DE9F04104460E4628
:101C7000154604211248FEF7C1FD01211048FEF768
:101C8000BFFD4FF0020812E0E1B2F0B200F0B8F888
:101C9000002705E0287800F023FA6D1C781C87B235
:101CA000102FF7DB641CA8F101001FFA80F8B8F1CF
:101CB000000FE9DC04210248FEF7A2FDBDE8F08137
:101CC000001002402DE9F04104460E46154604215D
:101CD0001048FEF793FD4FF0020812E0E1B23046E3
:101CE00000F08EF8002705E0287800F0F9F96D1C67
:101CF000781C87B2082FF7DB641CA8F101001FFADB
:101D000080F8B8F1000FE9DC04210248FEF778FD05
:101D1000BDE8F0810010024070B500242021154874
:101D2000FEF76EFD00BFFEF7DFFC00251CE0022180
:101D30001048FEF765FD00BF20210E48FEF75EFD4E
:101D400000BF6006040E02210A48FEF74EFD18B1DE
:101D5000601CC4B200BF01E0E4B200BF202105480E
:101D6000FEF74EFD681CC5B2082DE0DBFEF7A6FCB1
:101D7000204670BD001002402DE9F04780460D4618
:101D800016461F46DDF8209001211348FEF736FD68
:101D900004211148FEF734FD20210F48FEF72EFDE7
:101DA000032000F007F9404600F004F9284600F04F
:101DB00001F9304600F0FEF8002404E0FFF7ACFF24
:101DC0003855601CC4B24C45F8DB01210248FEF7CF
:101DD00017FDBDE8F08700000010024010B5044672
:101DE000012C04D101210548FFF763FB04E01CB975
:101DF00000210248FFF75DFB10BD00000008004015
:101E000070B504460D4605F1B00000F037F9102119
:101E100041EA141000F032F904F00F0000F02EF93E
:101E200070BD00000120014908607047B0024042C7
:101E30000020014908607047B002404200BFFEF731
:101E4000CDFD00F0DDF838E04FF496731A461946E0
:101E50001846FFF78CFD4FF47A70FFF707FE4FF43A
:101E60007A70FFF703FE00231A4619461846FFF75B
:101E70007EFD4FF47A70FFF7F9FD4FF47A70FFF7AB
:101E8000F5FD0E4B1A4619461846FFF770FD4FF444
:101E90007A70FFF7EBFD4FF47A70FFF7E7FD002350
:101EA0001A4619461846FFF762FD4FF47A70FFF79D
:101EB000DDFD4FF47A70FFF7D9FDC5E7E0FCFFFFC9
:101EC00070B505460C46B4F57A7F01DD4FF47A749F
:101ED00014F57A7F00DA344CBDB9002C0ADBC4F566
:101EE0007A713248FFF757FC4FF47A712F48FFF7A9
:101EF00054FC57E004F57A712C48FFF74EFC4FF480
:101F00007A712A48FFF747FC4CE0012D17D1002CCD
:101F10000ADBC4F57A712548FFF741FC4FF47A716A
:101F20002248FFF73EFC3DE004F57A711F48FFF7B9
:101F300038FC4FF47A711D48FFF731FC32E0022D76
:101F400017D1002C0ADBC4F57A711948FFF723FC7E
:101F50004FF47A711648FFF720FC23E004F57A71FC
:101F60001348FFF71AFC4FF47A711148FFF713FC7E
:101F700018E0032D16D1002C0ADBC4F57A710C4849
:101F8000FFF70DFC4FF47A710948FFF70AFC09E0EE
:101F900004F57A710648FFF704FC4FF47A7104489F
:101FA000FFF7FDFB70BD000018FCFFFF00080040BC
:101FB0000004004070B5044600251BE004F08000DA
:101FC00028B110210D48FEF71BFC00BF04E01021D2
:101FD0000A48FEF713FC00BF6006040E20210748E4
:101FE000FEF70CFC00BF20210448FEF709FC00BFEF
:101FF000681CC5B2082DE1DB70BD00000010024076
:1020000010B50AA201210220FFF772FDFFF7C7FCFD
:10201000FFF70EFF4FF49670FFF728FDFFF7BFFCA8
:10202000FFF700FFFFF7CCFC10BD000020202020B0
:1020300077656C636F6D650010B5002004490880FA
:102040000449088001218807FFF733FA10BD00001A
:10205000F4050020F605002010B500200449088092
:102060000449088001210448FFF723FA10BD00004D
:10207000F8050020FA050020000C004070B5044669
:1020800008211648FEF7BAFB04211448FEF7B6FBF8
:10209000002517E020211148FEF7B0FB04F0800076
:1020A00020B110210D48FEF7ABFB03E010210B48D7
:1020B000FEF7A4FB20210948FEF7A2FB00BF640045
:1020C000681CC5B2082DE5DB08210448FEF798FB23
:1020D00004210248FEF794FB70BD0000001002408E
:1020E00070B5044608211648FEF78AFB04211448FF
:1020F000FEF784FB002517E020211148FEF77EFB48
:1021000004F0800020B110210D48FEF779FB03E0B8
:1021100010210B48FEF772FB20210948FEF770FBE7
:1021200000BF6400681CC5B2082DE5DB0821044827
:10213000FEF766FB04210248FEF762FB70BD00005B
:102140000010024030B587B005460C460121C80496
:10215000FEF702FD01214804FEF7FEFC0121880480
:10216000FEF7FAFC072206213A48FEF71BFB07227E
:1021700011463848FEF716FBC020059002208DF866
:1021800018008DF8190000208DF81A0001208DF834
:102190001B0005A92F48FEF7BDFA012D15D10194AA
:1021A0000020ADF80800ADF80A00ADF80C00ADF85D
:1021B00010000C20ADF80E0001A92748FFF768FBBE
:1021C00001212548FFF733FB2EE0022D15D10194A4
:1021D0000020ADF80800ADF80A00ADF80C00ADF82D
:1021E00010000C20ADF80E0001A91C48FFF750FBB1
:1021F00001211B48FFF71BFB16E0032D14D10194AE
:102200000020ADF80800ADF80A00ADF80C00ADF8FC
:1022100010000C20ADF80E0001A90F48FFF738FBA5
:1022200001210E48FFF703FB012240F225510A4825
:10223000FFF709FB27208DF8000003208DF801002F
:1022400001208DF802008DF803006846FEF708FCB7
:1022500007B030BD00040240004800400044004088
:10226000004C00404FF04070E1EE100A7047000053
:10227000902200080000002014060000C40100089D
:102280001026000814060020C406000020020008E2
:10229000011372F84333301C100C0603912C40C01C
:1022A0007803112C043F0403212D7088FC08292693
:1022B0001820FF211E14F008F033E0184D211C03F4
:1022C0001E11338870000C101E21232419272110A1
:1022D00010160E45E018040225071820403D0204A0
:1022E00018E0692C20180707174080F08040403F15
:1022F0000202010F01022842F01D0101011F049199
:102300002B80B066B1191D2901913A30CE492C14A9
:102310006018043C6018061D1EE010080810721FAB
:102320000F102020100FF05310F83620203F2020EF
:102330003C700808C21E3028242221441E30088820
:102340008848082E1820202011CC3BC020322707B7
:102350000424243F241AF8202308084B192120368E
:10236000E0108888184B0F11101E380808C8382054
:1023700021523F1A702E29608F1C222121221C908D
:10238000111D31222211901961CAC0C26A80C6593A
:10239000081C40201050170102040810204A400178
:1023A000114A04012119152A403219251B0402F291
:1023B0001B7048D13AF0501A360F1EC030C828E8BA
:1023C0007028080718272423140B6F2A387E280D3D
:1023D000203C23020227382008F888889F4B203FA2
:1023E000F01BC0303F1B083830191019781B08F853
:1023F0000F194039201B100F103E8888E808101074
:10240000AC23201810112A035E2940223829402CC1
:10241000221E024019A41809F808203F21010121B9
:10242000252A0852298129424149112EC0808080E5
:102430007F0E2FF888C0281808501C0126382F2935
:1024400040292F29801B20301012F81AF81413206D
:102450003F190229204B30C0601A2074123F4BE014
:1024600010B06B0F10B029D01AF03019802201790A
:10247000203F18242438504FC04C888870C0140C5A
:1024800030204B7088C11738202121221C3A189F18
:102490004A188239A049D0112A1F90121F240878A7
:1024A000881BC838151C07380E60191A1AF8201135
:1024B00014033C0714073C0348140818688080681C
:1024C000180820302C03032C30200838C82F59500E
:1024D000298F29102F203826212020681145FE023F
:1024E0000202257F4040401A0CE0611C0106380BB7
:1024F000191D42FE191D527F1A04120211045A803E
:10250000011930D91D391621180819242222223F19
:1025100020AB390F115F3F112020110E21311A0E0F
:10252000104B2011104B88F8102A10B359401A1F75
:102530003F2B22130F16F0888888181A20D029D133
:10254000497A21176B94949493603960190F4C2049
:102550003F21F354809898793059121AC02719D125
:10256000193039311F203F24022D30212A081289C9
:102570003069D7294B2903190BC96079A019BF2BE2
:10258000201FDD390F9C80FFA1E0191229D03BA04C
:10259000FF0C3950194112208A01C01B3324012A33
:1025A000190F3AE0413952290F392349603C103F55
:1025B000202C29053F010E3008060170291038082B
:1025C0000F300C030C300F2C49A14E312E0E312050
:1025D0000C29621D818E70183059D1215721302C61
:1025E00022213055807C0202443F404072FF39086E
:1025F0003C02027C8F5440403F000820060101024B
:102600000204042D01020304040500060708090062
:040000050800018965
:00000001FF
