:020000040800F2
:10000000000B00201104000895010008970100086A
:100010009B0100089F010008A301000800000000E8
:10002000000000000000000000000000A701000820
:10003000A901000800000000AB010008AD010008A4
:100040002B0400082B0400082B0400082B040008D4
:100050002B0400082B0400082B0400089F42000812
:100060002B0400082B0400081D4200082B04000884
:100070002B0400082B0400082B0400082B040008A4
:100080002B0400082B0400082B0400082B04000894
:100090002B0400082B0400082B0400082B04000884
:1000A0002B0400082B0400082B0400082B04000874
:1000B000213B00084F320008093B00082B040008D0
:1000C0002B0400082B0400082B0400082B04000854
:1000D0002B040008C12B0008EB2B0008C52C0008DE
:1000E0002B0400082B0400082B04000800F002F881
:1000F00000F03AF80AA090E8000C82448344AAF188
:100100000107DA4501D100F02FF8AFF2090EBAE885
:100110000F0013F0010F18BFFB1A43F0010318473B
:10012000A45E0000C45E0000103A24BF78C878C105
:10013000FAD8520724BF30C830C144BF04680C60ED
:10014000704700000023002400250026103A28BF35
:1001500078C1FBD8520728BF30C148BF0B60704739
:100160001FB51FBD10B510BD04F05BFD1146FFF7B4
:10017000F7FF00F00DF904F079FD03B4FFF7F2FF8B
:1001800003BC02F01BFC000030BF72B662B680F305
:1001900008887047704700BFFEE700BFFEE700BF5A
:1001A000FEE700BFFEE770477047704770470000EA
:1001B0000CB50020019000906C48006840F480303D
:1001C0006A49086000BF6948006800F40030009088
:1001D0000198401C0190009818B90198B0F5A06FE3
:1001E000F1D16248006800F4003010B101200090A5
:1001F00001E0002000900098012843D15C4800688D
:1002000040F010005A4908600846006820F00300DA
:1002100008600846006840F00200086053484068E3
:10022000524948600846406848600846406840F4C3
:10023000806048600846406820F47C1048600846AA
:10024000406840F4E81048600846006840F080705C
:10025000086000BF4548006800F000700028F9D031
:100260004248406820F00300404948600846406822
:1002700040F00200486000BF3C48406800F00C00BD
:100280000828F9D10CBD10B5FFF792FF10BD10B5CD
:100290003648006840F0010034490860084640686C
:1002A00034490840314948600846006832490840EE
:1002B0002E4908600846006820F48020086008463F
:1002C000406820F4FE0048604FF41F008860FFF78C
:1002D000DAFF4FF000602949086010BD10B5002119
:1002E00000200022214B5B6803F00C0121B104299E
:1002F00006D0082928D107E0214B224C236027E0B3
:100300001F4B204C236023E0184B5B6803F47010F4
:10031000164B5B6803F48032022303EB904022B952
:10032000194B4343174C23600DE0104B5B6803F4FB
:10033000003323B1144B4343124C236003E0104BB2
:100340004343104C236003E00D4B0E4C236000BF71
:1003500000BF064B5B68C3F303130C4CE15C094B15
:100360001B68CB40074C236010BD0000001002400A
:10037000002002400000FFF8FFFFF6FE08ED00E05D
:1003800000127A000000002000093D000400002057
:1003900002F03EF903F078FE03F045FD04F0D2FAD6
:1003A0004FF4E13002F065FB4FF4E13002F0B9FBAD
:1003B000022002F095FA012002F092FA02F0BEFD4E
:1003C000022002F0A3F94721682002F0ADFF03F0FC
:1003D000DFFA03F02AFB02F005FF0B4802F0C6FD2E
:1003E00002F062FD4FF40051084800F08EFD4FF41A
:1003F000FA7002F04AF94FF40051044800F083FD0E
:1004000001E004F09FFAFCE75800002000100140D2
:100410000948804709480047FEE7FEE7FEE7FEE798
:10042000FEE7FEE7FEE7FEE7FEE7FEE704480549D4
:10043000054A064B704700008F020008ED000008D7
:1004400000050020000B002000070020000700200E
:1004500031490143314A1160704770B500210023D2
:100460000F22C47804B32D4C246804F4E064C4F56E
:10047000E064210AC1F10403CA40447804FA03F19C
:100480008478144021430901254C0678A15504784D
:1004900004F01F050124AC4005786D11AD0005F195
:1004A000E025C5F8004109E0047804F01F050124A7
:1004B000AC401C4D0678761145F8264070BD1A4AAE
:1004C0000A400243154B1B1F1A60704739B1134A8B
:1004D000121D12680243114B1B1D1A6006E00F4AE1
:1004E000121D126882430D4B1B1D1A6070470428B1
:1004F00008D14FF0E021096941F004014FF0E022FA
:10050000116107E04FF0E021096921F004014FF08B
:10051000E0221161704700000000FA050CED00E0D8
:1005200000E400E080E100E080FFFF1F10B504461A
:10053000FA48844208D10121401500F00DFF002146
:10054000601500F009FF17E0F548844208D1012149
:10055000001500F001FF0021201500F0FDFE0BE06A
:10056000F048844208D10121C80300F0F5FE0021C3
:100570004FF4004000F0F0FE10BD30B50246002000
:1005800000235068E84C20400D790C6844EA0524AB
:10059000204350609068E54C2040D1E902542C4340
:1005A0004D7944EA450420439060D06A20F47000FD
:1005B0000C7C641EE4B2234340EA0350D06230BD99
:1005C00000210160017141718160C16001210174EC
:1005D000704721B1826842F00102826003E08268C4
:1005E00022F001028260704721B1826842F4807279
:1005F000826003E0826822F480728260704710B5E6
:100600000023CBB21AB144681C43446002E0446842
:100610009C43446010BD816841F0080181607047CF
:10062000014600208A6802F008020AB1012000E0B9
:1006300000207047816841F00401816070470146E5
:1006400000208A6802F004020AB1012000E00020C4
:10065000704721B1826842F4A002826003E08268A0
:1006600022F4A00282607047014600208A6802F4EA
:1006700080020AB1012000E00020704710B50A4650
:1006800000210023416821F46041531E41EA4331B7
:10069000416010BD21B1426842F40062426003E053
:1006A000426822F4006242607047F0B504460D468D
:1006B00000200021092D11DDE068A5F10A0606EBF6
:1006C0004607072606FA07F18843A5F10A0606EB56
:1006D000460603FA06F10843E0600CE0206905EBEA
:1006E0004507072606FA07F1884305EB450603FA96
:1006F00006F108432061072A0FDA606B561E06EBED
:1007000086071F2606FA07F18843561E06EB860663
:1007100005FA06F10843606322E00D2A0FDA206B28
:10072000D61F06EB86071F2606FA07F18843D61F59
:1007300006EB860605FA06F10843206310E0E06A3E
:10074000A2F10D0606EB86071F2606FA07F188437D
:10075000A2F10D0606EB860605FA06F10843E062F3
:10076000F0BD21B1826842F48012826003E08268A9
:1007700022F48012826070470146C86C80B27047D4
:1007800066484C300068704721B1426842F480628C
:10079000426003E0426822F480624260704721B107
:1007A000426842F48052426003E0426822F4805280
:1007B000426070470A460021816821F4E0411143FC
:1007C0008160704721B1826842F40042826003E098
:1007D000826822F400428260704721B1826842F44C
:1007E0000212826003E0826822F402128260704783
:1007F000014600208A6802F400120AB1012000E0DC
:1008000000207047F0B5044615460020002200265F
:10081000092911DDE068A1F10A0707EB470C07275A
:1008200007FA0CF29043A1F10A0707EB470703FA16
:1008300007F21043E0600CE0206901EB410C072750
:1008400007FA0CF2904301EB410703FA07F2104359
:100850002061A06BC0F30156EF1C06F1010CA7EB61
:100860000C0707EB870C1F2707FA0CF29043EF1CCD
:1008700006F1010CA7EB0C0707EB870701FA07F25B
:100880001043A063F0BD10B50A4600210023816B20
:1008900021F44011531E41EA0351816310BD08B594
:1008A000002300930090009B0B440093009B1A6070
:1008B00008BD08B5024600200090009201F1280012
:1008C000009B184400900098006880B208BD0A465A
:1008D00000214168164B1940114341607047416245
:1008E000826270470A460021416821F01F011143CE
:1008F0004160704740B109490831096841F400017D
:10090000064A0832116007E004490831096821F4F9
:100910000001024A083211607047000000240140C3
:1009200000280140003C0140FFFEF0FFFDF7F1FF11
:10093000FFFD3FFF0246002013680B400BB1012072
:1009400000E000207047CA430260704770B502465D
:100950000020002300240B125568CEB205EA0604DD
:1009600015681D4015B10CB1012000E0002070BDDC
:1009700000220A12D34303607047000001684FF65B
:10098000FE72114001600021016041608160C16020
:100990008D49884208D18C490839496841F00F01D6
:1009A000894A083A51608AE087491431884208D15F
:1009B00085490839496841F0F001834A083A516095
:1009C0007DE081492831884208D17F49083949684A
:1009D00041F470617C4A083A516070E07A493C31D8
:1009E000884208D178490839496841F47041764A0B
:1009F000083A516063E074495031884208D1724925
:100A00000839496841F470216F4A083A516056E04C
:100A10006D496431884208D16B490839496841F40D
:100A20007001694A083A516049E067497831884263
:100A300008D165490839496841F07061624A083A4D
:100A400051603CE06149884206D1011F096841F0CC
:100A50000F01021F116032E05C491431884208D155
:100A60005A49091F096841F0F001584A121F1160E4
:100A700025E056492831884208D15449091F0968A0
:100A800041F47061514A121F116018E04F493C3126
:100A9000884208D14D49091F096841F470414B4A09
:100AA000121F11600BE049495031884207D1474974
:100AB000091F096841F47021444A121F11607047F0
:100AC00010B50022026847F6F0739A430C6A8B68EF
:100AD00023430C6923434C6923438C692343CC692A
:100AE00023434C6A23438C6A23431A430260CB6836
:100AF00043600B6883604B68C36010BD00210160D8
:100B000041608160C160016141618161C1610162D7
:100B100041628162704721B1026842F001020260C5
:100B200004E002684FF6FE731A40026070471AB183
:100B300003680B43036002E003688B430360704764
:100B4000416070470146486880B270470146002006
:100B5000002201F080531BB11C4B083B1A6802E0D5
:100B6000194B083B1A6802EA01030BB1012000E0AF
:100B70000020704700F0805119B11449091F086026
:100B800002E0114908394860704701460020002200
:100B900001F080531BB10D4B083B1A6802E00A4B71
:100BA000083B1A6802EA01030BB1012000E00020B3
:100BB000704700F0805119B10449091F086002E034
:100BC00001490839486070470800024008040240A3
:100BD000002044490860091D0860091D0860091DBE
:100BE000086041483F4914310860704700213D4981
:100BF0008279002A3AD00A46126803689A430B4663
:100C00001A600A1D126803689A430B1D1A60027964
:100C100011440A6803681A430A60324A08321268AB
:100C200003689A432F4B08331A601A1D1268036831
:100C30009A432C4B0C331A604279102A0ED11A1F9A
:100C4000126803681A43274B08331A601A1D12688A
:100C500003681A43234B0C331A600DE02149427993
:100C600011440A6803681A430A6005E002791144D6
:100C70000A6803689A430A607047002101600171A5
:100C80000C214171002181717047164910310968AA
:100C90000143144A10321160704701460020114A86
:100CA000143212680A400AB1012000E000207047A7
:100CB0000C49143108607047014600200022094B9E
:100CC0001B6803EA0102074B14331B680B4013B186
:100CD0000AB1012000E00020704702491431086089
:100CE0007047000000040140FFFF0F0010B50446EC
:100CF000CC48844208D10121042000F02DFB0021C2
:100D0000042000F029FB46E0C748844208D10121B5
:100D1000082000F021FB0021082000F01DFB3AE034
:100D2000C248844208D10121102000F015FB0021A7
:100D3000102000F011FB2EE0BD48844208D10121B3
:100D4000202000F009FB0021202000F005FB22E01C
:100D5000B848844208D10121402000F0FDFA00216A
:100D6000402000F0F9FA16E0B348844208D101218E
:100D7000802000F0F1FA0021802000F0EDFA0AE076
:100D8000AE48844207D10121801500F0E5FA002128
:100D9000A01500F0E1FA10BD10B50121084600F0E1
:100DA000DBFA0021012000F0D7FA10BD2DE9F04157
:100DB000024600250026002000230024002791F889
:100DC00003C00CF00F0591F803C00CF0100CBCF13F
:100DD000000F03D091F802C04CEA050591F800C05D
:100DE000BCF1000F31D0146800202BE04FF0010C53
:100DF0000CFA00F3B1F800C00CEA03069E4220D1C1
:100E000083004FF00F0C0CFA03F7BC4305FA03FC08
:100E10004CEA040491F803C0BCF1280F06D14FF04E
:100E2000010C0CFA00FCC2F814C00AE091F803C0EF
:100E3000BCF1480F05D14FF0010C0CFA00FCC2F8D0
:100E400010C0401C0828D1D31460B1F800C0BCF118
:100E5000FF0F34DD546800202EE000F1080C4FF045
:100E6000010808FA0CF3B1F800C00CEA03069E4230
:100E700021D183004FF00F0C0CFA03F7BC4305FAA5
:100E800003FC4CEA040491F803C0BCF1280F05D11F
:100E900000F1080C08FA0CF8C2F8148091F803C0AD
:100EA000BCF1480F07D100F1080C4FF0010808FA17
:100EB0000CF8C2F81080401C0828CED35460BDE85E
:100EC000F0814FF6FF710180022181700421C17011
:100ED00070470246002093680B400BB1012000E0F0
:100EE000002070470146886880B2704702460020A3
:100EF000D3680B400BB1012000E000207047014691
:100F0000C86880B2704701617047416170470AB19B
:100F1000016100E041617047C16070474FF4803269
:100F20000A438261816182618269826970470246F7
:100F30000020434B18684FF68073184040EA0210B7
:100F400008433F4B186070473E49C8617047F0B591
:100F50000A46002300240021002500F00046B6F1D7
:100F6000004F02D1364EF16901E0354E7168C0F391
:100F7000034583B200F44016B6F5401F08D121F0B6
:100F800070612F4E766826F070662D4F7E6012E0FD
:100F900000F48016B6F5801F06D1032606FA05F484
:100FA000A14341F0706106E0460D360103FA06F6F2
:100FB000B14341F0706122B1460D360103FA06F6E5
:100FC000314300F00046B6F1004F02D11C4EF161F2
:100FD00001E01B4E7160F0BD30B500228B071C0F85
:100FE0000F2303FA04F2164B08338C1053F8243005
:100FF0009343134C08348D1044F8253023468C104D
:1010000053F824308C07240F00FA04F423430C4CCB
:1010100008348D1044F8253030BD0A49DC310860B1
:101020007047000000080140000C01400010014022
:101030000014014000180140001C01400020014044
:101040000000014000002042DF48006840F001003D
:10105000DD49086008464068DC490840DA494860D4
:1010600008460068DA490840D74908600846006821
:1010700020F4802008600846406820F4FE004860A4
:101080004FF41F0088607047CF49096821F4803110
:10109000CD4A11601146096821F480211160B0F534
:1010A000803F03D0B0F5802F0ED106E0C649096815
:1010B00041F48031C44A116007E0C349096841F432
:1010C000A021C14A116000E000BF00BF704710B509
:1010D00001460022002300204A11012A02D1BA4C05
:1010E000236806E0022A02D1B74C236A01E0B64C1D
:1010F000636A01F01F02012494401C400CB10120DE
:1011000000E0002010BD38B500200090002400252C
:1011100000BF3120FFF7DBFF05460098401C009020
:101120000098B0F5A06F01D0002DF2D03120FFF76C
:10113000CEFF08B1012400E00024204638BD01465E
:101140000020A14A106820F0F80040EAC1001060B9
:101150007047A04908607047024600209A4B5868C3
:1011600020F47C1042EA01031843974B5860704703
:1011700098490866704701460020934A506820F05D
:1011800003000843506070478F48406800F00C002F
:101190007047014600208C4A506820F0F000084358
:1011A0005060704701460020874A506820F4E06094
:1011B00008435060704701460020834A506820F47D
:1011C000605040EAC1005060704729B17E4A527AAF
:1011D00002437D4B5A7204E07B4A527A82437A4B37
:1011E0005A7270477B49D831086070470146002029
:1011F000754A506820F44040084350607047002111
:10120000714A20321170704A82F82010012802D0F1
:1012100004280AD104E001216B4A2032117005E054
:101220000521694A2032117000E000BF00BF7047FD
:101230006949086070476449096A0143624A11625A
:101240007047654944390860704730B50021002275
:10125000002400235C4D6D6805F00C0121B10429C8
:1012600005D0082923D105E05C4D056022E05B4DE7
:1012700005601FE0544D6D6805F47012524D6D68A5
:1012800005F48034022505EB92421CB9544D5543B8
:1012900005600BE04C4D6D6805F400351DB1504DF7
:1012A0005543056002E04D4D5543056002E04B4D4E
:1012B000056000BF00BF444D6D6805F0F0010909ED
:1012C000484D6B5C0568DD4045603F4D6D6805F439
:1012D000E061090A434D6B5C4568DD4085603A4D2D
:1012E0006D6805F46051C90A3E4D6B5C4568DD4090
:1012F000C560354D6D6805F44041890B3A4D6B5C16
:10130000C568B5FBF3F5056130BD29B12E4A5269B8
:1013100002432D4B5A6104E02B4A526982432A4B07
:101320005A61704729B1284A92690243264B9A6153
:1013300004E0254A92698243234B9A61704729B1A0
:10134000214AD2690243204BDA6104E01E4AD26985
:1013500082431D4BDA61704729B11B4AD2680243B0
:10136000194BDA6004E0184AD2688243164BDA60FF
:10137000704729B1144A12690243134B1A6104E001
:10138000114A12698243104B1A6170471249403961
:10139000086070470F49C86470470B49C8717047AF
:1013A0000948406A40F0807007494862704701462A
:1013B0000020054A92680A400AB1012000E000209E
:1013C0007047014988727047001002400000FFF822
:1013D000FFFFF6FE000042428004424200127A0003
:1013E00000093D00600000207000002010B5044698
:1013F000FE48844208D10121C014FFF7ADFF00214F
:10140000E014FFF7A9FFC4E0B4F1804F08D1012137
:101410000846FFF7AEFF00210120FFF7AAFFB8E062
:10142000F348844208D101210220FFF7A2FF0021E6
:101430000220FFF79EFFACE0EE48844208D1012174
:101440000420FFF796FF00210420FFF792FFA0E0A1
:10145000E948844208D101210820FFF78AFF0021D2
:101460000820FFF786FF94E0E448844208D1012178
:101470001020FFF77EFF00211020FFF77AFF88E0A1
:10148000DF48844208D101212020FFF772FF0021AC
:101490002020FFF76EFF7CE0DA48844208D101216A
:1014A0004014FFF759FF00216014FFF755FF70E06B
:1014B000D548844209D10121C804FFF74DFF00211E
:1014C0004FF40020FFF748FF63E0D048844209D181
:1014D00001210805FFF740FF00214FF48010FFF7BE
:1014E0003BFF56E0CA48844209D101214805FFF775
:1014F00033FF00214FF40010FFF72EFF49E0C548ED
:10150000844208D101214020FFF733FF0021402011
:10151000FFF72FFF3DE0C048844208D10121802021
:10152000FFF727FF00218020FFF723FF31E0BB48B2
:10153000844208D101218015FFF71BFF0021A0156F
:10154000FFF717FF25E0B648844209D101210804BE
:10155000FFF702FF00214FF48030FFF7FDFE18E097
:10156000B048844209D101214804FFF7F5FE00216B
:101570004FF40030FFF7F0FE0BE0AB48844208D197
:1015800001218804FFF7E8FE00214FF48020FFF7D7
:10159000E3FE10BD00220288944B98420ED0994B76
:1015A00098420BD0B0F1804F08D0914B984205D0B3
:1015B000904B984202D0904B984204D14FF68F73D3
:1015C0001A404B881A438D4B984207D08C4B984257
:1015D00004D04FF6FF431A40CB881A4302808B8811
:1015E00083850B880385814B98420BD0854B9842AD
:1015F00008D08B4B984205D08A4B984202D08A4B38
:10160000984201D10B7A038601238382704770B51B
:10161000002400220023058C4FF6FE763540058419
:10162000028C8388048B4FF68F752C40B51E2C409E
:101630000D882C43751E2A400D892A434D882A4364
:101640006A4DA8420BD06F4DA84208D0744DA842F5
:1016500005D0744DA84202D0734DA84213D14FF665
:10166000F7752A404D892A434FF6FB752A408D882D
:101670002A434FF6FF652B404FF6FF552B408D89CF
:101680002B43CD892B4383800483CD8885860284B8
:1016900070BD70B5002400220023058C4FF6EF7654
:1016A00035400584028C8388048B48F6FF752C40F6
:1016B0004FF6FF452C400D884FF6FF7606EA0525CC
:1016C0002C434FF6DF752A400D8906EA05152A439B
:1016D0004D8806EA05152A43444DA84202D0494DDB
:1016E000A8421DD14FF67F752A404D894FF6FF76EF
:1016F00006EA05152A434FF6BF752A408D8806EA8B
:1017000005152A434FF6FF352B404FF2FF752B404E
:101710008D8906EA85052B43CD8906EA85052B438D
:1017200083800483CD880587028470BD70B5002452
:1017300000220023058C4FF6FF6635400584028C9D
:101740008388848B4FF68F752C404FF6FC752C40A8
:101750000D882C434FF6FF552A400D894FF6FF7632
:1017600006EA05252A434D8806EA05252A431F4D2A
:10177000A84202D0234DA8421DD14FF2FF752A4046
:101780004D894FF6FF7606EA05252A434FF6FF35C9
:101790002A408D8806EA05252A434EF6FF752B4020
:1017A0004DF6FF752B408D8906EA05152B43CD8933
:1017B00006EA05152B4383808483CD8885870284C0
:1017C00070BD70B5002200230024058C4EF6FF7614
:1017D00035400584038C8488828B48F6FF752A4047
:1017E0004FF6FF452A400D8820E00000002C014004
:1017F0000004004000080040000C004000100040C1
:101800000014004000340140004C014000500140F1
:101810000054014000180040001C0040002000401F
:101820000040014000440140004801404FF6FF766F
:1018300006EA05252A434DF6FF752B400D8906EA79
:1018400005352B434D8806EA05352B43FA4DA84252
:1018500002D0FA4DA84208D14BF6FF752C408D8975
:101860004FF6FF7606EA85152C4384808283CD8867
:10187000A0F84050038470BD828B4FF2FF331A40B2
:101880008283828B4FF6FF7303EA01231A4382831C
:101890007047F0B50C461546002200210026078C43
:1018A0004EF6FF7C07EA0C070784828B018C4FF60B
:1018B000FF7707EA043640F6FF473A404FF6FF77D6
:1018C00007EA05273A434FF6FF7707EA03373A431B
:1018D000D94FB8420ED0D94FB8420BD0B0F1804F9B
:1018E00008D0D74FB84205D0D64FB84202D0D64F15
:1018F000B84206D14DF6FF77394046F48057394358
:1019000005E047F6FF57394044F480573943828356
:101910000184F0BD828B4FF6F3731A408283828B71
:101920000A4382837047F0B50C4615460022002119
:101930000026078C4FF6FF6C07EA0C070784828BA2
:10194000018C4FF6FF7707EA04264FF60C773A40F2
:101950004FF6FF7707EA03172F433A43B64FB842D3
:101960000ED0B64FB8420BD0B0F1804F08D0B44F74
:10197000B84205D0B34FB84202D0B34FB84206D1F7
:101980004FF6FF57394046F48077394305E04FF270
:10199000FF57394044F48077394382830184F0BD96
:1019A000028B4FF2FF331A400283028B4FF6FF7314
:1019B00003EA01231A4302837047F0B50C4615462B
:1019C000002200210026078C4FF6EF7C07EA0C0767
:1019D0000784028B018C4FF6FF7707EA041640F666
:1019E000FF473A404FF6FF7707EA03373A434FF68F
:1019F000FF7707EA05273A438F4FB8420ED08F4F43
:101A0000B8420BD0B0F1804F08D08D4FB84205D00E
:101A10008C4FB84202D08C4FB84206D14FF6DF77D8
:101A2000394046F01007394305E04FF65F773940FB
:101A300044F01007394302830184F0BD028B4FF656
:101A4000F3731A400283028B0A4302837047F0B596
:101A50000C46154600220021068C4FF6FE773E40CC
:101A60000684028B018C4FF60C7632407E1C06EA0F
:101A700003162E433243704EB0420ED06F4EB0422A
:101A80000BD0B0F1804F08D06D4EB04205D06D4EF6
:101A9000B04202D06C4EB04206D14FF6FD763140D6
:101AA00044F00106314305E04FF6F576314044F04D
:101AB0000106314302830184F0BD70B505460C4632
:101AC0005D4885420ED05D4885420BD0B5F1804F10
:101AD00008D05B48854205D05A48854202D05A4812
:101AE000854200D100E000BF208850B92389A28838
:101AF00061882846FFF7ABFFE1882846FFF79EFF85
:101B000025E0208804280AD12389A28861882846F4
:101B1000FFF753FFE1882846FFF742FF17E02088D0
:101B200008280AD12389A28861882846FFF7FBFE8E
:101B3000E1882846FFF7EEFE09E02389A288618844
:101B40002846FFF7A6FEE1882846FFF795FE70BD00
:101B50002DE9F04105460C4600260127608808B9AA
:101B6000022600E00026A088012801D1022700E01B
:101B700001272088A0B92389A28861882846FFF719
:101B800066FFE1882846FFF759FF23893A46314628
:101B90002846FFF712FFE1882846FFF701FF13E010
:101BA0002389A28861882846FFF707FFE188284635
:101BB000FFF7F6FE23893A4631462846FFF747FFEE
:101BC000E1882846FFF73AFFBDE8F0810A884B8894
:101BD0001A438B881A43CB881A430B891A434B89C3
:101BE0001A438B891A43A0F8442070474FF6FF71BF
:101BF000818000210180C1804180017270470021F5
:101C0000018041808180C180018141818181C181C8
:101C10007047002101804180012181800021C18025
:101C2000018170470021018041808180C180018154
:101C30004181818170470000002C01400034014047
:101C40000004004000080040000C004021B1028860
:101C500042F00102028004E002884FF6FE731A404F
:101C60000280704731B1B0F8442042F40042A0F83D
:101C7000442005E0B0F84420C2F30E02A0F844204E
:101C800070471AB183890B43838102E083898B43B8
:101C9000838170478182704741EA0203A0F848308F
:101CA00070471AB183890B43838102E083898B4398
:101CB0008381704701894FF6F872114001817047A6
:101CC0000A46002101894FF68F73194011430181A3
:101CD000704730B504460D4629462046FFF7F0FF11
:101CE000208940F00700208130BD2DE9F0410446F5
:101CF0000D4616461F46602D06D13B460122314651
:101D00002046FFF75AFE05E03B46012231462046B9
:101D1000FFF79DFE29462046FFF7D2FF208940F0BD
:101D200007002081BDE8F08130B50C460021018913
:101D3000C9B24FF6FF7505EA03251543254329432C
:101D4000018130BD2DE9F04105460E461746984603
:101D5000002443463A4631462846FFF7E5FF2C89E2
:101D60004FF6F870044044F007044FF68F700440BB
:101D700044F070042C81BDE8F081F0B504460D46B6
:101D800016461F463B46324629462046FFF7CCFF03
:101D9000208940F480402081F0BD01858282704717
:101DA0000A46002101884FF68F73194011430180C4
:101DB0007047F0B50C4615461E4600210022002350
:101DC0000189028B038C4FF6F877394021434FF697
:101DD000FC473A4040F201173A434FF6DD773B406B
:101DE0004FF6FF7707EA06172F433B430181028333
:101DF0000384F0BD0A460021018B4FF68F73194012
:101E00001143018370470A460021018B48F6FF7396
:101E100019404FF6FF7303EA022319430183704709
:101E20000A460021818B4FF68F731940114381833D
:101E300070470A460021818B48F6FF7319404FF620
:101E4000FF7303EA022319438183704721B102889B
:101E500042F08002028004E002884FF67F731A404D
:101E60000280704721B1828842F00402828004E03F
:101E700082884FF6FB731A408280704721B18288B6
:101E800042F00802828004E082884FF6F7731A401D
:101E90008280704721B1828842F00102828004E092
:101EA00082884FF6FE731A40828070470A460021EE
:101EB000018B4FF6F77319401143018370470A46AF
:101EC0000021018B4FF2FF7319404FF6FF7303EAB5
:101ED00002231943018370470A460021818B4FF684
:101EE000F77319401143818370470A460021818BA3
:101EF0004FF2FF7319404FF6FF7303EA02231943B1
:101F0000818370470A460021018B4FF6FB7319400D
:101F10001143018370470A460021018B4FF6FF33BE
:101F200019404FF6FF7303EA0223194301837047F8
:101F30000A460021818B4FF6FB73194011438183C0
:101F400070470A460021818B4FF6FF3319404FF648
:101F5000FF7303EA02231943818370470A46002175
:101F6000018B4FF67F7319401143018370470A4676
:101F70000021018BC1F30E014FF6FF7303EA022328
:101F80001943018370470A460021818B4FF67F7306
:101F900019401143818370470A460021818BC1F3A8
:101FA0000E014FF6FF7303EA022319438183704742
:101FB0000A460021018C4FF6FD731940114301843C
:101FC00070470A460021018C4FF6F7731940114300
:101FD000018470470A460021018C4FF6DF731940D7
:101FE0004FF6FF7303EA02131943018470470A4650
:101FF0000021018C4FF67F7319404FF6FF7303EAFF
:1020000002131943018470470A460021018C4FF6E0
:10201000FF5319404FF6FF7303EA0223194301846B
:1020200070470A460021018C4FF2FF7319404FF6AA
:10203000FF7303EA02231943018470470A46002113
:10204000018C4DF6FF7319404FF6FF7303EA02331C
:1020500019430184704730B5002301248C40A3B29A
:10206000048C9C430484048C02FA01F5ADB22C4329
:10207000048430BD30B5002304248C40A3B2048C0A
:102080009C430484048C02FA01F5ADB22C43048411
:1020900030BD70B5034600200024184618300125D5
:1020A0008D40ACB21D8CA5431D8409B1082909D10E
:1020B00000EB6100056825F07005056005681543B3
:1020C00005600EE00D1FC5F34E052844056825F494
:1020D000E045056005684FF6FF7606EA02263543BF
:1020E000056070BD21B1028842F00202028004E066
:1020F00002884FF6FD731A400280704721B10288B2
:1021000042F00402028004E002884FF6FB731A409A
:102110000280704721B1828842F08002828004E010
:1021200082884FF67F731A408280704702884FF68C
:10213000F7731A40028002880A430280704782883F
:102140004FF68F731A40828082880A4382807047DC
:1021500002894FF6F8731A40028102890A4302810C
:10216000704702894FF67F731A40028102890A4341
:1021700002817047818470478185704781867047EE
:102180000187704781877047A0F840107047028828
:102190004FF6FF431A40028002880A4302807047CC
:1021A0000146888E70470146088F70470146888F28
:1021B00070470146B1F8400070470146888C70476F
:1021C0000146088D704702460020138A0B400BB170
:1021D000012000E000207047CA430282704730B5FA
:1021E0000246002000230024158A05EA0103958990
:1021F00005EA010413B10CB1012000E0002030BD5C
:10220000CA4302827047000010B50446FB4884426E
:1022100009D101218803FFF79FF800214FF4804086
:10222000FFF79AF832E0F648844209D101214804C8
:10223000FFF79FF800214FF40030FFF79AF825E0F0
:10224000F048844209D101218804FFF792F8002167
:102250004FF48020FFF78DF818E0EB48844209D155
:102260000121C804FFF785F800214FF40020FFF793
:1022700080F80BE0E548844208D101210805FFF70A
:1022800078F800214FF48010FFF773F810BD2DE9A6
:10229000F04786B005460E460024A24600BFA14680
:1022A0000027B08900B100BF2F462C8A4CF6FF7082
:1022B0000440F08804432C82AC894EF6F3100440AD
:1022C000B08831890843718908430443AC81AC8AE2
:1022D0004FF6FF400440B0890443AC8201A8FEF7EA
:1022E000B4FFC648874202D1DDF810A001E0DDF856
:1022F0000CA0A88900F4004040B10AEBCA0000EB32
:102300000A1031684900B0FBF1F807E00AEBCA0097
:1023100000EB0A1031688900B0FBF1F86420B8FBCB
:10232000F0F004012009642101FB1089A88900F460
:10233000004040B1322000EBC900B0FBF1F000F0EA
:102340000700044308E0322000EB09106421B0FBD1
:10235000F1F000F00F0004432C8106B0BDE8F087D7
:102360004FF41651016000218180C18001810C2150
:10237000418100218181704710B502460020108AFA
:102380004FF2FF0318400B884C8823438C8823436B
:10239000CC8823431843108210BD00210180418066
:1023A0008180C180704721B1828942F400528281CC
:1023B00004E082894DF6FF731A4082817047F0B5C0
:1023C0000346002400260025002040F66A17B94283
:1023D00000D100BF1846C1F3421401F01F060127C7
:1023E00007FA06F5012C01D10C3004E0022C01D1D2
:1023F000103000E014301AB107682F43076002E084
:102400000768AF430760F0BD1AB1838A0B4383822C
:1024100002E0838A8B4383827047028A4FF6F0730F
:102420001A400282028A0A430282704782894FF26E
:10243000FF731A40828182890A438281704721B1E9
:10244000828942F00202828104E082894FF6FD73A4
:102450001A4082817047028A4FF6DF731A40028267
:10246000028A0A430282704721B1028A42F4804202
:10247000028204E0028A4BF6FF731A400282704720
:10248000C1F308028280704701468888C0F30800C3
:102490007047818941F0010181817047028BD2B27E
:1024A0000283028B42EA012202837047028B02F40C
:1024B0007F420283028B0A430283704721B1828AE2
:1024C00042F02002828204E0828A4FF6DF731A40D3
:1024D0008282704721B1828A42F01002828204E037
:1024E000828A4FF6EF731A408282704721B1828A46
:1024F00042F00802828204E0828A4FF6F7731A40A3
:102500008282704721B1828942F40042828103E0D5
:102510008289C2F30E028281704721B1828A42F41D
:102520000062828204E0828A4FF2FF731A40828244
:102530007047828A4FF6FB731A408282828A0A436E
:102540008282704721B1828A42F00202828204E0D4
:10255000828A4FF6FD731A4082827047024600203D
:10256000B1F5007F00D100BF13880B400BB10120F3
:1025700000E00020704701F40072B2F5007F00D146
:1025800000BFCA430280704770B502460024002392
:102590000025002040F66A16B14200D100BFC1F309
:1025A000421501F01F03012606FA03F3012D02D1A3
:1025B0009689334006E0022D02D1168A334001E0AD
:1025C000968A33400C12012606FA04F41688344029
:1025D00013B10CB1012000E0002070BD10B5002245
:1025E000002340F66A14A14200D100BF0A12012460
:1025F0009440A3B2DC43048010BD000000380140C9
:102600000044004000480040004C004000500040A2
:1026100010B56FF00400FDF76AFF344800683449D4
:10262000B0FBF1F0334908700846007800EB400138
:10263000C1EBC0104FF6FF7101EAC0002E490880BF
:1026400010BD01462B4A12784A434FF0E0235A61ED
:1026500000229A611A46126942F001021A6100BF13
:102660004FF0E022106900F001021AB100F480324C
:10267000002AF5D04FF0E022126922F001024FF05B
:10268000E0231A6100229A61704701461A4A1288B3
:102690004A434FF0E0235A6100229A611A461269B8
:1026A00042F001021A6100BF4FF0E022106900F011
:1026B00001021AB100F48032002AF5D04FF0E02276
:1026C000126922F001024FF0E0231A6100229A61A0
:1026D000704707E0421E90B2002100E0491C074A03
:1026E0009142FBDB0028F5DC704700000000002071
:1026F00000127A00740000207600002040190100CA
:10270000A34A0A400243A34B1A60704701460723BD
:1027100023EA010212029F4B1B1D18684FF6FF03AC
:1027200018409D4B184310439A4B1B1D186070476F
:102730002DE9F0410746884614461D462846FFF716
:10274000E5FFC5F1040007FA00F60F20284100EA72
:102750000800064306F00F06E21704EBD26252119E
:10276000920002F1E022D2F800212146E31704EBA7
:10277000D3635B11A4EB431C012303FA0CF31A434C
:102780002046E31704EBD3635B119B0003F1E023C6
:10279000C3F800218148005D40EA06107F490855D2
:1027A000BDE8F08170B504460B46CE1701EB967676
:1027B000C6F38700CE1701EB9676B610A1EB86061E
:1027C000B606350E764B9B6943F00103744EB36138
:1027D0004FEAB63353F820300F26AE40B343714E64
:1027E00046F82030334653F8203004FA05F61E43ED
:1027F0006C4B43F820606C4B1B6801268E403343C2
:10280000694E336002F0010343B1674B0C331B6820
:1028100001268E403343644E0C36336002F00203CF
:1028200043B1614B08331E6801238B401E435E4B4E
:1028300008331E6070BD00B5002059490861C860AA
:102840001420486100208861C8610846006840F093
:1028500001000860084640685449084050494860F3
:1028600008460068524908404D490860084600681B
:1028700020F4802008600846406820F4FE0048608C
:102880000020886000214FF00060FFF739FF00BD95
:1028900010B540480830006840F004003D49083158
:1028A00008603F48C06940F080503D49C8614148D8
:1028B000406840F480703F4948600846006840F036
:1028C000040008600846006840F002000860FDF758
:1028D0005BFC10BD3048001D2E49091D0860704783
:1028E000014649062E4A926942F001022C4B9A6138
:1028F0002C4A083A526822F0E0622A4B083B5A60A0
:102900001A4652680A435A60704730B5044600259B
:10291000FFF791FF2248006840F4803020490860AA
:1029200000BF1F480068400C0028FAD04FF48060B8
:102930001B494860A01EC4B20846406840EA844073
:1029400048600846406840F4803048601A48006893
:1029500040F03200184908601148006840F080706B
:102960000F49086000BF0E480068400E0028FAD0EA
:102970000B48406840F002000949486005E00848FB
:102980004068C0F3870505F00305022DF7D130BD7F
:1029900080FFFF1F08ED00E00000FA0500E400E002
:1029A0000010024008000140000401400000FFF850
:1029B000FFFFF6FE0070004000200240014600BF0D
:1029C000704700BFFE4A128802F04002002AF9D088
:1029D000C2B2FB4B1B1D1A80704710B586B004466F
:1029E000012144F20400FEF79DFC4FF40070ADF8A5
:1029F000140003208DF8160018208DF8170005A983
:102A0000F048FEF7D3F94FF48060ADF814000420CD
:102A10008DF8170005A9EB48FEF7C8F925208DF8B9
:102A2000000002208DF801008DF8020001208DF8D1
:102A300003006846FDF711FD01940020ADF8080081
:102A4000ADF80A00ADF80C00ADF810000C20ADF8A0
:102A50000E0001A9DC48FFF71AFC012240F22551C3
:102A6000D948FFF7ACFC0121D748FFF79CFC06B022
:102A700010BD10B586B0044601210420FEF752FCBB
:102A800001214804FEF75BFC0420ADF81400182077
:102A90008DF8170005A9CB48FEF788F90820ADF896
:102AA000140004208DF8170005A9C648FEF77EF92A
:102AB00001214804FEF75DFC00214FF40030FEF7D1
:102AC00058FC01940020ADF80800ADF80A00ADF8FC
:102AD0000C00ADF810000C20ADF80E0001A9BB48A9
:102AE000FFF7D5FB4021B948FFF745FD26208DF8BB
:102AF000000001208DF8010000208DF80200012067
:102B00008DF803006846FDF7A8FC012240F225512C
:102B1000AE48FFF754FC0121AC48FFF744FC06B077
:102B200010BD10B586B0044601210820FEF7FAFB5F
:102B300001218804FEF703FC4FF48060ADF8140017
:102B400003208DF8160018208DF8170005A9A0485D
:102B5000FEF72CF94FF40060ADF8140004208DF856
:102B6000170005A99A48FEF721F927208DF80000E3
:102B700000208DF8010001208DF802008DF803007F
:102B80006846FDF76AFC01940020ADF80800ADF836
:102B90000A00ADF80C00ADF810000C20ADF80E00E6
:102BA00001A98748FFF773FB012240F225518448B1
:102BB000FFF705FC01218248FFF7F5FB06B010BDC9
:102BC00010B540F225518048FFF7DEFC60B140F2BD
:102BD00025517D48FFF7CFFC7B48FFF755FCC4B279
:102BE00021467748FFF74CFC10BD10B50821774807
:102BF000FFF7CAFC18B108217448FFF7BCFC40F28B
:102C000025517248FFF7C0FC00285AD040F22551E8
:102C10006E48FFF7B0FC6D48FFF736FC6D4948740D
:102C200008460078AA2842D10846407C55283ED163
:102C300008468078497840EA01206749086065487D
:102C400000796449C97840EA012064490860614814
:102C500080796049497940EA0120614908605D480E
:102C6000007A5C49C97940EA01205E490860594808
:102C7000807A5849497A40EA01205B490860554802
:102C8000007B5449C97A40EA0120584908605148FC
:102C9000807B5049497B40EA0120554908604D48F6
:102CA000007C4C49C97B40EA01205249086000245D
:102CB00005E04849601C085C0855601CC4B2112C32
:102CC000F7DB10BD10B540F225513D48FFF75CFC25
:102CD00001285DD13A48FFF7D7FB474908700846FD
:102CE000807A55284AD10846407A532846D108466A
:102CF0000079C97840EA0120404908803E48007ABE
:102D00003D49C97940EA01203D4908803A48807927
:102D10003949497940EA01203A4908803748008812
:102D200044F25061884209DD344800884FF6FF7153
:102D3000081A48F6A041081A30490880314800882E
:102D400044F25061884209DD2E4800884FF6FF7139
:102D5000081A48F6A041081A2A490880284800881D
:102D600044F25061884209DD254800884FF6FF7122
:102D7000081A48F6A041081A214908800B2405E0EA
:102D8000601E1D49085C0855601EC4B2002CF7DCAB
:102D900040F225510A48FFF7EEFB10BD10B500BF09
:102DA0000748008800F040000028F9D0A521044819
:102DB000FFF766FB00BF0248008800F0400023E0F8
:102DC0000048004000080140003801400044004035
:102DD000000C01407C000020380000203C00002056
:102DE0004000002044000020480000204C0000204B
:102DF00050000020540000208E00002030000020F1
:102E000034000020320000200028D4D052214A484B
:102E1000FFF736FB00BF4848008800F0400000285C
:102E2000F9D0A5214448FFF72BFB00BF424800889A
:102E300000F040000028F9D055213F48FFF720FB63
:102E400000BF3D48008800F040000028F9D0A521CF
:102E50003948FFF715FB00BF3748008800F04000F5
:102E60000028F9D054213448FFF70AFB00BF32484C
:102E7000008800F040000028F9D0A5212E48FFF777
:102E8000FFFA00BF2C48008800F040000028F9D06D
:102E900052212948FFF7F4FA00BF2748008800F0C4
:102EA00040000028F9D010BD10B5FF212248FFF7DF
:102EB000E7FA6420FFF7C5FBAA211F48FFF7E0FAF5
:102EC0006420FFF7BEFB27211B48FFF7D9FA6420D7
:102ED000FFF7B7FBFF211848FFF7D2FA6420FFF78E
:102EE000B0FB00211448FFF7CBFA6420FFF7A9FBE1
:102EF000FF211148FFF7C4FA6420FFF7A2FBAA21C3
:102F00000D48FFF7BDFA6420FFF79BFB76210A48C6
:102F1000FFF7B6FA6420FFF794FB00210648FFF79D
:102F2000AFFA6420FFF78DFB00210348FFF7A8FAF2
:102F30006420FFF786FB10BD0048004008B5012162
:102F40001020FEF7EFF94FF40050ADF8000010200C
:102F50008DF8030069460448FDF728FF4FF400513F
:102F60000148FDF7D0FF08BD0010014010B592B038
:102F7000044601210846FEF7C8F901214FF401700B
:102F8000FEF7D0F9F020ADF8440000208DF847009E
:102F900011A98C48FDF70AFF8B48FDF7EFFC8B4821
:102FA00001900294002003900820049000200590D6
:102FB0008020069040000790800008902020099013
:102FC00000020A9000200B9001A97F48FDF778FDD0
:102FD00001217D48FDF79FFD7C484C38FDF7A6FA9E
:102FE00000200C9001208DF834008DF835004FF44E
:102FF00060200E9000200F9008208DF840000CA952
:1030000072484C38FDF7B9FA4FF40040FEF7EEF87D
:103010000723012204216D484C38FDF746FB0723A6
:103020000222052169484C38FDF73FFB07230322A4
:10303000062166484C38FDF738FB07230422194661
:1030400062484C38FDF731FB012160484C38FDF7F0
:10305000CBFA01215D484C38FDF7BBFA5B484C3890
:10306000FDF7D9FA00BF59484C38FDF7D9FA0028C6
:10307000F9D156484C38FDF7DDFA00BF53484C38BB
:10308000FDF7DDFA0028F9D1012150484C38FDF751
:10309000E0FA12B010BD00B587B001214FF4017005
:1030A000FEF740F94FF40040FEF7A0F8F020ADF82D
:1030B000040000208DF8070001A94248FDF776FEC4
:1030C00042484C38FDF732FA002002908DF80C008F
:1030D0008DF80D004FF46020049000200590012031
:1030E0008DF8180002A939484C38FDF746FA01213D
:1030F00036484C38FDF76DFA34484C38FDF78BFAFA
:1031000000BF32484C38FDF78BFA0028F9D12F4820
:103110004C38FDF78FFA00BF2C484C38FDF78FFA7A
:103120000028F9D107B000BD10B5044607230122DD
:10313000214626484C38FDF7B8FA012123484C387F
:10314000FDF787FA00BF022120484C38FDF7F2FB5B
:103150000028F8D01D484C38FDF70EFB10BD2DE9B6
:10316000F04F87B00420FFF7DFFF834601F0FCFF3C
:103170004FF06632164BCDE9000102F009F800224B
:10318000144BCDE9020102F003F880460022124BF5
:1031900001F0FEFF06460022104B01F019FE00224E
:1031A0000F4BCDE9040101F013FE044601F068FF66
:1031B000824640F2EC40824500DD8246504607B030
:1031C000BDE8F08F00080140080002404C24014097
:1031D00066660A4000002640000059400000F03FAB
:1031E0000000B0401FB501210220FEF7A8F84720DB
:1031F000ADF804000020ADF8060044F61F60ADF8FD
:1032000008000020ADF80A008DF80C0001A9414823
:10321000FEF7C0F901213F48FEF7DEFF012211460B
:103220003C48FEF72EFD1D208DF8000002208DF891
:10323000010000208DF8020001208DF8030068468F
:10324000FDF70BF900213348FEF700FD1FBD10B557
:1032500001213048FEF7C3FF01285AD101212D4832
:10326000FEF7CEFF2C480088B0F5FA6F07DD2A483C
:10327000008848F2D041884201DA012000E00020B5
:1032800026490988B1F5FA6F07DD2449098848F213
:10329000D042914201DA012100E00021084358B1F7
:1032A0001F480078401C1E49087008460078142802
:1032B0002FDD01F04EFA2CE0002019490870194862
:1032C0004088B0F5617F22DA16488088B0F5617FCA
:1032D0001DDA1448C088B0F5617F18DA0021481E55
:1032E00000F02AFC0F484088B0F5617F0CDA0D48E9
:1032F0008088B0F5617F07DA0A48C088B0F5617F41
:1033000002DA01F0BFFA04E001F068FA01E001F02E
:1033100065FA10BD00040040320000203400002097
:10332000780000205800002030B589B005460C46D2
:103330000121C802FDF7F6FF01210420FDF7F2FF8D
:103340004FF47060ADF8200018208DF823000320A2
:103350008DF8220008A9FE48FDF728FDADF81850A9
:10336000ADF814400020ADF81A00ADF8160005A91C
:10337000F848FEF70FF96020ADF804000120ADF821
:1033800006000020ADF80A00ADF80C0001A9F148D4
:10339000FEF73DF901A9EF48FEF77BF901A9ED48D9
:1033A000FEF7C4F901A9EB48FEF70BFA0121E94841
:1033B000FEF758FC0821E748FEF778FD0821E548AC
:1033C000FEF77DFD0821E348FEF786FD0821E14870
:1033D000FEF78BFD0121DF48FEF738FD0121DD48B6
:1033E000FEF734FC09B030BD0146002901DA48423D
:1033F00000E008467047014611F1640F02DA6FF0F1
:1034000063007047642901DD6420FAE70846F8E7A5
:1034100000B503460A461846FFF7EDFF034610467F
:10342000FFF7E9FF0246CC480360CC480260002B5E
:1034300006DBC84934310B800020091D088006E0F6
:103440000020C449343108805842091D0880002AF0
:1034500006DBC0493C310A800020091D088006E0D7
:103460000020BC493C3108805042091D088000BD45
:1034700070B504460D46002C05DDB74800680028ED
:1034800001DA012000E00020002C05DAB2490968C9
:10349000002901DD012100E000210843002D05DDA8
:1034A000AE490968002901DA012100E00021084342
:1034B000002D05DAA9490968002901DD012100E094
:1034C0000021084330B100210846FFF7A1FF642026
:1034D000FFF7DBF829462046FFF79AFF70BD70B56D
:1034E00004460D4629462046FFF792FF01F02AFACE
:1034F00070BD70B504460D4629462046FFF7B8FF5B
:1035000001F020FA70BD00210846FFF7B1FF00BFAF
:10351000FEE700210846FFF7ECFF4FF4005190480A
:10352000FDF7F3FC6420FFF7B0F84FF400518C482E
:10353000FDF7E9FC6420FFF7A8F84FF40051884834
:10354000FDF7E3FC6420FFF7A0F800BFFEE70844A6
:10355000002803DA48F6A042104404E048F6A042EE
:10356000904200DD801A70470246881A7D4B9842CF
:1035700003DA48F6A043184405E044F25063984249
:1035800001DDA0EB430070472DE9F04F87B0814685
:103590004FF0000A642009FB00F949467248008890
:1035A000FFF7D5FF059075E02046FFF71DFFB0F54A
:1035B0007A6F45DA6C4800880599FFF7D5FF044615
:1035C000A244504601F0B9FD0546684A684B01F037
:1035D000DFFDCDE90201204601F0AFFD0546654A59
:1035E000654B01F0D5FDCDE90001DDE9022301F0D5
:1035F00047FB074601F044FD8346504601F09DFD20
:1036000005465A4A5A4B01F0C3FDCDE9000160421C
:1036100001F093FD0546574A574B01F0B9FD0746A7
:10362000DDE9002301F0B2FECDE9020101F028FD41
:1036300059460490FFF753FF0220FFF74AF823E0B2
:10364000494800880599FFF78FFF0446204601F09E
:1036500074FD0746474A484B01F09AFD054601F0C4
:103660000FFD8346604201F068FD0746414A424B28
:1036700001F08EFD054601F003FD59460490FFF769
:103680002EFF0220FFF725F82046FFF7ADFEC828E1
:1036900000DA00E088E700BF00210846FFF71FFFBF
:1036A00007B0BDE8F08F2DE9F04F85B081464FF0AF
:1036B000000A642009FB00F9C0E02046FFF794FEF1
:1036C000B0F57A7F5EDA494627480088FFF74CFF5D
:1036D0000446A244504601F030FD0546234A244BDF
:1036E00001F056FD07468846204601F026FD0546B6
:1036F000204A214B01F04CFD3A464346CDE90001FA
:1037000001F0BEFACDE9020101F0BAFC8346504651
:1037100001F013FD0546154A154B01F039FD07462A
:103720008846604201F009FD0546124A124B01F03D
:103730002FFD3A464346CDE9000101F027FECDE9D1
:10374000020101F09DFC59460490FFF7C8FE15E008
:1037500000080140002C0140240000202800002027
:1037600000100140B0B9FFFF30000020FCA9F1D2E9
:103770004D62503F7B14AE47E17A743F0220FEF762
:10378000A8FF55E02046FFF72FFE42F2283188427D
:103790002ADA2046FFF728FEB0F57A7F24DD494675
:1037A00076480088FFF7E0FE0446204601F0C5FC9D
:1037B0000746734A734B01F0EBFC054601F060FCD1
:1037C0008346604201F0B9FC07466D4A6D4B01F03B
:1037D000DFFC054601F054FC59460490FFF77FFEDC
:1037E0000220FEF776FF23E0494664480088FFF791
:1037F000BBFE0446204601F0A0FC0546624A634B2E
:1038000001F0C6FC074601F03BFC8346604201F034
:1038100094FC07465C4A5D4B01F0BAFC054601F09A
:103820002FFC59460490FFF75AFE0220FEF751FF85
:103830002046FFF7D9FDC82800DA00E03DE700BFC9
:1038400000210846FFF74BFE05B0BDE8F08F10B52C
:103850004A480088002807DD4848008841F2941152
:10386000884201DA012000E000204449098848F636
:10387000A042914207DA4149098847F60C32914249
:1038800001DD012100E00021084318B10020FFF70D
:103890000AFF47E03948008843F2BC41884201DA18
:1038A000012000E000203549098841F2941291423C
:1038B00001DD012100E00021084318B15A20FFF783
:1038C000F2FE2FE02D48008845F2E471884201DACB
:1038D000012000E000202949098843F2BC429142BE
:1038E00001DD012100E00021084318B1B420FFF7F9
:1038F000DAFE17E02148008847F60C31884201DAE9
:10390000012000E000201D49098845F2E47291423F
:1039100001DD012100E00021084318B14FF4877058
:10392000FFF7C1FE10BD70B504466FF01D011E20EB
:10393000FFF7D5FD04EB840000011E2190FBF1F0A0
:1039400085B22846FEF7A1FE00210846FFF7C7FD15
:1039500070BD70B504461E214842FFF7C0FD04EB60
:10396000840000011E2190FBF1F085B22846FEF78D
:103970008CFE00210846FFF7B2FD70BD300000202C
:103980007B14AE47E17A743FFCA9F1D24D62703FDF
:1039900000B587B001210846FDF7D1FC01210420C4
:1039A000FDF7C0FC0320ADF8000004208DF80300F3
:1039B00069469748FDF7FAF904A8FEF717F90020C1
:1039C000ADF810004FF6FF70ADF814000020ADF810
:1039D0001600ADF8120004A94FF08040FDF7DAFDA3
:1039E00000231A4603214FF08040FEF7E2F901A8B8
:1039F000FEF70FF90A20ADF80C0001A94007FEF709
:103A00005CF801218807FEF7E7FB012211469007C9
:103A1000FEF737F900214FF08040FEF7ABFB0121A4
:103A20008807FEF713F907B000BD00B587B0012184
:103A30000420FDF784FC01210820FDF773FCC02061
:103A4000ADF8000004208DF8030069467148FDF7C9
:103A5000ADF904A8FEF7CAF80020ADF810004FF643
:103A6000FF70ADF814000020ADF81600ADF812009C
:103A700004A96948FDF78EFD00231A460321664814
:103A8000FEF797F901A8FEF7C4F80A20ADF80C007C
:103A900001A96148FEF711F801215F48FEF79CFB80
:103AA000012211465C48FEF7ECF800215A48FEF767
:103AB00061FB01215848FEF7C9F807B000BD014677
:103AC000022904D003290BD0042919D10FE04FF0AB
:103AD0008042928C10B200224FF080439A8411E011
:103AE0004E4A128810B200224C4B1A800AE04A4A11
:103AF0002432128810B20022474B24331A8001E08E
:103B0000002000BF00BF7047434810300088424883
:103B10001030008820F001003F49103108807047C4
:103B20004FF08040008A4FF08040008A20F0010072
:103B30004FF08041088270472DE9FE4F04468946C8
:103B4000002C31DD484601F0F8FA07464FF03332D9
:103B5000334B01F01DFB05460E4604EB440101EB1F
:103B6000C4014FF6FF72A2EB012001F0E6FA2A46EB
:103B70003346CDE9000101F009FC824601F0B0FABC
:103B800080B2014602902448FEF7F4FA03E01E21B9
:103B90000846FFF73DFC2048FEF70FFB0128F6D151
:103BA00000210846FFF734FC002C2FDA6442484617
:103BB00001F0C3FA07464FF03332194B01F0E8FA2F
:103BC00005460E464FF4306104FB01F001F0B5FAF2
:103BD00082462A46334601F053F8CDE9000101F050
:103BE0007FFA80B2014602900B48FEF7C3FA04E068
:103BF0006FF01D010846FFF70BFC0748FEF7DDFAE2
:103C00000128F5D100210846FFF702FCBDE8FE8F30
:103C100000080140000C014000080040240400405E
:103C200033331F4010B54FF40071FE48FDF76BF9B8
:103C30004FF48071FB48FDF766F94FF48071F94845
:103C4000FDF763F94FF40071F648FDF75EF910BD1A
:103C500010B54FF40071F348FDF755F94FF480713A
:103C6000F048FDF752F94FF48071EE48FDF74BF93B
:103C700010BD10B54FF40071EA48FDF744F94FF458
:103C80000071E848FDF741F910BD2DE9F041054606
:103C90002C464FF40071E348FDF737F900261CE08D
:103CA000274607F08007802F04D17900DD48FDF713
:103CB0002AF904E04FF48071DA48FDF726F960062E
:103CC000040E4FF40071D748FDF71DF94FF4007151
:103CD000D448FDF71AF9701CC6B2082EE0DBBDE827
:103CE000F08110B50446FFF79DFF7820FFF7CDFF68
:103CF000FFF7BFFF0020FFF7C8FFFFF7BAFF20461E
:103D0000FFF7C3FFFFF7B5FFFFF7A2FF10BD10B528
:103D10000446FFF787FF7820FFF7B7FFFFF7A9FFFB
:103D20004020FFF7B2FFFFF7A4FF2046FFF7ADFFEB
:103D3000FFF79FFFFFF78CFF10BD70B504460D46DF
:103D40001DB1E0B2FFF7E3FF02E0E0B2FFF7C9FF09
:103D500070BD06E041F6650100E0491E0029FCD176
:103D6000401E0028F6D17047014605E0002001E022
:103D7000421CD0B27B28FBDB0A00A1F10101F5D186
:103D8000704770B504460D4605F1B0000021FFF7FD
:103D9000D4FF102141EA14100021FFF7CEFF04F0F8
:103DA0000F000021FFF7C9FF70BD10B500218D2065
:103DB000FFF7C3FF00211420FFF7BFFF0021AF2052
:103DC000FFF7BBFF10BD10B500218D20FFF7B5FF39
:103DD00000211020FFF7B1FF0021AE20FFF7ADFF5B
:103DE00010BD70B500241BE004F1B0000021FFF706
:103DF000A4FF00210846FFF7A0FF00211020FFF7D5
:103E00009CFF002508E0884901EBC501085D012100
:103E1000FFF793FF681CC5B2802DF4DB601CC4B2B1
:103E2000082CE1DB70BD70B500240CE0002506E035
:103E300000207D4901EBC5010855681CC5B2802DE5
:103E4000F6DB601CC4B2082CF0DBFFF7CAFF70BDC4
:103E500070B5002418E004F1B0000021FFF76DFFF9
:103E600000210846FFF769FF00211020FFF765FFDA
:103E7000002505E001210846FFF75FFF681CC5B279
:103E8000802DF7DB601CC4B2082CE4DB70BDF0B5FC
:103E9000144600267D2801DC3F2900DDF0BD0B46DD
:103EA000CF1701EB5777C7F3C702CF1701EB57774F
:103EB000FF10A1EBC707C7F10707FDB2C5F1070760
:103EC0000123BB40DEB25CB1574F831C07EBC30339
:103ED0009B5C3343BC46871C0CEBC707BB540AE012
:103EE000514F831C07EBC3039B5CB343BC46871C49
:103EF0000CEBC707BB5400BFD0E72DE9F04F80465D
:103F00000C4616461D46A346A6F12000C6B2002761
:103F100038E00C2D06D106EB4600444901EB800049
:103F200010F807904FF0000A26E009F0800028B151
:103F300021464046099AFFF7AAFF09E0099808B907
:103F4000012000E00020024621464046FFF79FFF87
:103F50004FEA49604FEA1069601CC4B2A4EB0B0041
:103F6000A84205D15C4608F1010000F0FF0806E018
:103F70000AF1010000F0FF0ABAF1080FD5DB00BF1B
:103F8000781CC7B2AF42C4DBBDE8F08F10B5024663
:103F9000012000E050430B00A1F10104E1B2F9D18E
:103FA00010BD2DE9FF4F81B0074691461E460E9D7C
:103FB0004FF0000A002440E0301B401EC1B20A202E
:103FC000FFF7E4FFB9FBF0F00A21B0FBF1F201FBCF
:103FD0001208BAF1000F16D1701EA04213DDB8F11D
:103FE000000F0ED10120AB4605EBDB71491001FB40
:103FF00004710090C8B22B4620220299FFF77DFF82
:1040000019E04FF0010A0120AB4605EBDB714910C6
:1040100001FB04710090C8B208F13001CAB22B460E
:10402000029905E0000C014099000020605500084D
:10403000FFF763FF00BF601CC4B2B442BCDB05B035
:10404000BDE8F08FF8B505460E46144618E07A2D07
:1040500003DD002506F11000C6B23A2E04DD002073
:1040600005460646FFF7DFFE0120009022780C236C
:1040700031462846FFF741FF05F10800C5B2641C30
:1040800020780028E3D1F8BD08B501214FF49C70D9
:10409000FDF748F94FF44070ADF8000010208DF89E
:1040A000030003208DF8020069463C48FCF77EFEC1
:1040B0004FF440713948FCF726FFC820FEF7E5FAB7
:1040C0000021AE20FFF739FE00210846FFF735FE3C
:1040D00000211020FFF731FE00214020FFF72DFEC8
:1040E0000021B020FFF729FE00218120FFF725FEE7
:1040F0000021FF20FFF721FE0021A120FFF71DFE78
:104100000021A620FFF719FE0021A820FFF715FEC9
:1041100000213F20FFF711FE0021C820FFF70DFE10
:104120000021D320FFF709FE00210846FFF705FE16
:104130000021D520FFF701FE00218020FFF7FDFDC3
:104140000021D820FFF7F9FD00210520FFF7F5FD3C
:104150000021D920FFF7F1FD0021F120FFF7EDFD4F
:104160000021DA20FFF7E9FD00211220FFF7E5FD2D
:104170000021DB20FFF7E1FD00213020FFF7DDFD0E
:1041800000218D20FFF7D9FD00211420FFF7D5FD78
:104190000021AF20FFF7D1FD08BD0000000C014059
:1041A00008B501210420FDF7BDF81020ADF800008E
:1041B00048208DF8030069462548FCF7F7FD08BD47
:1041C0000EB501210846FDF7ADF8FFF7E9FF042120
:1041D0000020FCF701FF1020019000208DF808005E
:1041E00008208DF8090001208DF80A0001A8FCF7CD
:1041F000FDFC1020019001A8FCF7F8FC0A208DF8C6
:10420000000001208DF8010000208DF8020001203F
:104210008DF803006846FCF720F90EBD10B54FF489
:1042200000510C48FCF771FE6420FEF72EFA4FF4A3
:1042300000510848FCF767FE6420FEF726FA4FF4A9
:1042400000510448FCF761FE1020FCF746FD10BD4C
:1042500000080140001001400EB501210846FDF79D
:1042600061F80220019000208DF8080010208DF8E0
:10427000090001208DF80A0001A8FCF7B7FC07200F
:104280008DF8000001208DF8010000208DF802005B
:1042900001208DF803006846FCF7DFF80EBD10B56D
:1042A0000220FCF71AFD10BD10B5002410E0F848FC
:1042B000006840F6C411884209D9F648006888426F
:1042C00005D9601CC4B23220FEF7DFF900E00024FB
:1042D000142CECDBFFF71DF9EF48007810BD10B58A
:1042E000EE480068B0F5FA6F05D2ED48006840F678
:1042F000C411884216D8EA480068B0F5FA6F05D2B2
:10430000E648006840F6C41188420BD86FF01D01E2
:104310000846FFF7ADF84FF49670FEF7B6F9B420F3
:10432000FFF701FB10BD10B54FF40051DD48FCF75D
:10433000ECFD6FF01D010846FFF7DBF8C820FEF723
:10434000A4F9B420FFF7EFFA4FF40051D548FCF779
:10435000DAFD10BD01460020D34A12688A4201D915
:10436000421CD0B2D14A1268D14B1B681A44B1EB3F
:10437000520F01D2421CD0B2C54A12688A4201D9FA
:10438000421CD0B2C34A12688A4201D9421CD0B240
:10439000704701460020C44A12688A4201D2421C7A
:1043A000D0B2C24A1268C24B1B681A44B1EB520F1A
:1043B00001D9421CD0B2B64A1268643A8A4201D28C
:1043C000421CD0B2B34A12688A4201D2421CD0B217
:1043D000704701460020B74A52888A4201DD421CDC
:1043E000D0B2B44A92888A4201DD421CD0B2B14AAE
:1043F000D2888A4201DD421CD0B2704701460020BB
:10440000AC4A52888A4201DA421CD0B2A94A928848
:104410008A4201DA421CD0B2A64AD2888A4201DA24
:10442000421CD0B2704710B5A3480068B0F5966F33
:1044300025D903E00F210846FFF75BF89B48006889
:104440009B490968084440F2DC51B1EB500FF1D3AD
:10445000B420FFF799F803E00F210846FFF749F869
:104460009248006892490968084440F69801B1EB07
:10447000500FF1D8FFF7EBF9FFF74BF849E004E0F4
:104480006FF00E010846FFF734F88748006840F6E1
:1044900098018842F4D388480068B0F5966F25D912
:1044A00003E00F210846FFF724F8804800688049A0
:1044B0000968084440F2DC51B1EB500FF1D3B4204D
:1044C000FFF762F803E00F210846FFF712F877487C
:1044D000006877490968084440F69801B1EB500F2D
:1044E000F1D8FFF7B4F9FFF714F812E003E00F2159
:1044F0000846FEF7FEFF6D4800686D4909680844EC
:1045000040F6C411B1EB500FF1D8FFF7A0F9FFF757
:1045100000F810BD10B503E00F210846FEF7E9FFD3
:104520006248006862490968084440F2DC51B1EB16
:10453000500FF1D86FF05900FFF726F803E00F2174
:104540000846FEF7D6FF58480068B0F52F7FF6D82A
:104550004FF47A70FEF799F85A20FFF715F803E048
:104560000F210846FEF7C5FF50480068504909680A
:10457000084440F69801B1EB500FF1D8FFF767F906
:10458000FEF7C7FF10BD10B54848006848490968E4
:1045900008444FF42F71B1EB500F01D2012000E01D
:1045A000002041490968B1F52F7F01D9012100E0C0
:1045B00000210843E0B1364800683649096888425E
:1045C0000AD95A20FEF7E0FF0F210846FEF720FF28
:1045D0006420FEF75AF837E06FF05900FEF7D4FF79
:1045E0000F210846FEF714FF6420FEF74EF82BE07B
:1045F00027480068B0F52F7F01D9012000E0002096
:1046000024490968B1F52F7F01D9012100E000217B
:104610000843C8B12548006825490968084422496B
:104620000968B1EB500F07D20F210846FEF7F0FEE4
:104630006420FEF72AF807E06FF00E010846FEF747
:10464000E7FE6420FEF721F810BD10B5174800689A
:104650001749096808444FF42F71B1EB500F07D286
:1046600011480068B0F52F7F02D9FFF7DCFE6FE03C
:1046700007480068B0F52F7F20D906480068B0F5DC
:104680002F7F1BD95A20FEF77FFFFFF7CCFE5FE09C
:104690004400002048000020790000205000002045
:1046A000540000200010014040000020380000208D
:1046B0003C000020580000204C0000209A48006870
:1046C0009A49096808444FF42F71B1EB500F07D293
:1046D00097480068B0F52F7F02D9FFF71BFF37E03E
:1046E00094480068B0F52F7F0AD991480068B0F56A
:1046F0002F7F05D95A20FEF747FFFFF70BFF27E072
:104700008C480068B0F52F7F0AD98B480068B0F557
:104710002F7F05D9B420FEF737FFFFF7FBFE17E028
:10472000814800688149096808444FF42F71B1EB52
:10473000500F0BD280480068B0F52F7F06D96FF07C
:104740005900FEF721FFFFF7E5FE01E0FFF71BFF31
:1047500010BD10B57948008848F2D04188420BDA84
:104760007648008844F25061884205DD6FF01D01F3
:104770000846FEF7B4FE30E070480088B0F5FA6FE6
:104780000ADD6E48008844F25061884204DA1E2136
:104790000846FEF7A4FE20E06948008848F2D041B0
:1047A00088420BDA6648008844F25061884205DD91
:1047B0006FF01D011E20FEF792FE0EE0604800889B
:1047C000B0F5FA6F09DD5E48008844F25061884216
:1047D00003DA1E214842FEF782FE10BD10B5524892
:1047E000006840F2DC51884208D95048006888428D
:1047F00004D946210846FEF70BFE42E04A4800680D
:1048000040F2DC51884209D948480068B0F5AF6FE2
:1048100004D214214842FEF76CFE32E0434800689F
:1048200040F2DC5188420AD93F480068B0F5AF6FCA
:1048300005D26FF013011420FEF75BFE21E03C4827
:10484000006840F2DC51884203D95A20FFF781F812
:1048500017E03948006840F2DC51884203D95A20F9
:10486000FFF761F80DE03348006840F2DC51884200
:1048700003D9B420FFF757F803E01E210846FEF7DE
:104880002EFE10BD10B52848006828490968084464
:104890004FF42F71B1EB500F07D226480068B0F5E6
:1048A0002F7F02D9FFF7BFFD3DE021480068B0F53A
:1048B0002F7F0AD920480068B0F52F7F05D95A20EC
:1048C000FEF762FEFFF7AFFD2DE04FF42F70FFF70C
:1048D00041FD012813DD14480068144909680844A3
:1048E0004FF42F71B1EB500F04D20021C81EFFF717
:1048F00023F918E000210320FFF71EF913E00A480E
:1049000000680A49096808440A490968B1EB500F70
:1049100004D91E210846FEF7E2FD04E06FF01D01F8
:104920000846FEF7DCFD10BD380000203C000020EA
:1049300044000020400000204800002032000020F9
:104940003400002038B50C20042300909A48002140
:1049500002680846FFF725FB0C20042300909748C7
:10496000002102682020FFF71CFB0C20042300908C
:104970009348002102684020FFF713FB0C2004231A
:1049800000909048002102686020FFF70AFB0C208D
:10499000042300908C480A2102680020FFF701FBE5
:1049A0000C200423009089480A2102682020FFF788
:1049B000F8FA0C200423009085480A210268402060
:1049C000FFF7EFFA0C200423009082480A210268C6
:1049D0006020FFF7E6FA80A214210020FFF732FBE7
:1049E0007E48006800280FDA7DA214211920FFF705
:1049F00029FB0C20032300907848006842421421D0
:104A00002520FFF7CEFA0DE076A214211920FFF73A
:104A100019FB0C2003230090704814210268252004
:104A2000FFF7BFFA70A214214020FFF70BFB6F487D
:104A3000006800280FDA6AA214215920FFF702FB50
:104A40000C2003230090694800684242142165202D
:104A5000FFF7A7FA0DE063A214215920FFF7F2FA3D
:104A60000C20032300906148142102686520FFF7A1
:104A700098FA5FA21E210020FFF7E4FA5D48006863
:104A800000280FDA56A21E210D20FFF7DBFA0C20BA
:104A9000042300905748006842421E211F20FFF760
:104AA00080FA0DE04FA21E210D20FFF7CBFA0C205B
:104AB000042300904F481E2102681F20FFF771FA5F
:104AC0004DA21E214020FFF7BDFA4C480068002887
:104AD0000FDA43A21E214D20FFF7B4FA0C20042365
:104AE00000904648006842421E215F20FFF759FAB5
:104AF0000DE03CA21E214D20FFF7A4FA0C20042358
:104B000000903E481E2102685F20FFF74AFA3CA24F
:104B100028210020FFF796FA3A480088642190FB8C
:104B2000F1F40C2003232246282100901020FFF7E7
:104B300038FA31A228212A20FFF784FA3248008867
:104B4000642190FBF1F40C200323224628210090DD
:104B50003A20FFF726FA2DA228215520FFF772FAF6
:104B60002B480088642190FBF1F40C20032322469B
:104B7000282100906520FFF714FA0C2000902548AA
:104B80004288042332210020FFF70BFA0C2000900A
:104B900020488288042332212820FFF702FA0C20C3
:104BA00000901C48C288042332215020FFF7F9F9F5
:104BB000FFF717F938BD0000380000203C00002046
:104BC0004000002044000020480000204C0000204D
:104BD0005000002054000020454E4C001C000020D6
:104BE0002D0000002B000000454E52002000002048
:104BF0004C0000002400002052000000280000208B
:104C00005000000032000020340000205900000055
:104C100030000020580000207047704770477047F0
:104C20007047754600F028F8AE46050069465346C1
:104C300020F00700854618B020B5FBF7F7FBBDE86C
:104C400020404FF000064FF000074FF000084FF0F3
:104C5000000B21F00701AC46ACE8C009ACE8C00984
:104C6000ACE8C009ACE8C0098D4670470446AFF314
:104C700000802046FBF781FA004870479C04002022
:104C800010B591EA030F48BF83F0004300F186831B
:104C9000841A71EB030C05D2121943EB0C03001BB1
:104CA00061EB0C01DFF824E14FEA1154A4EB135C33
:104CB0001EEA430F18BF9EEA445F73D023EA0E0337
:104CC000DCF1200E21EA045143F4801332D322FA9E
:104CD0000CFE10EB0E0023FA0CFE41EB0E01CCF1A2
:104CE000200E03FA0EFE10EB0E0051F10001B1F59B
:104CF000801FCCF1200E32D201EB045112FA0EF2D9
:104D0000BDE8104058BF7047401C38BF5FEA420200
:104D100018BF7047002814BF20F0010041F10001C6
:104D20004FEA410313F5001F38BF7047A1F1C0419E
:104D300000F026BB012A43EB0302ACF1200CDCF1AE
:104D40001F0E32BF4FF0000E23FA0CF310EB0300DE
:104D500041EB0451B4EB115FD0D0A1EB045101F54C
:104D6000801149085FEA300001EB04510ED350F185
:104D7000000038BF12FA0EFE08D1BDE81040C9E7A6
:104D8000401C38BF5FEA4202CAD1C3E7BDE8104009
:104D90004FEA410313F5001F38BF7047A1F1C0412E
:104DA00000F0EEBA9EEA445F08D011EA5E0FBDE85B
:104DB000104004BF01F0004100207047BDE81040E2
:104DC00070B500F08FFA00BF64FBBE3E0000E0FF4C
:104DD0002DE9C04130B4DFF8A0C23CEA111418BF7D
:104DE0003CEA131400F0EC8081EA03051CEA11147C
:104DF00044EAD57418BF1CEA131500F0C780A4EB71
:104E000005044FF0004545EAC12145EAC32341EAC4
:104E1000505143EA525304F17F74994204F500342F
:104E20004FEAC0204FEAC22208BF904200F09C80A7
:104E30004FEA13650FF24016765D4FEA134506FB05
:104E400005F7C7F1807706FB07F74FEAD737A7FBCF
:104E500003687642C8F58038A7FB06CE38BFA8F1B4
:104E6000010807FB08E64FF0000EA6FB028CE6FBEC
:104E700003CEDCF1000CCEF1004E38BFAEF1010ED6
:104E8000A6FB0C584FF000074FF00005E6FB0E871D
:104E9000A1FB08C6A0FB07CE16EB0E0645F10005E8
:104EA000E1FB076515F1E04E7EBFA4F580345FEAB3
:104EB00046066D4116F1800745F100054FEA1727B8
:104EC0004FEA066647EA0567A6F1DE46B6F1805F5F
:104ED0004FEA15251FD9384624F0010C05EBC471A3
:104EE000BCF1FE6F01EB0C1102D8F0BCBDE80081F3
:104EF00024425CBF01F5801E9EEAC47F02D4F0BC50
:104F0000BDE80081244238D4F0BCA1F1C041BDE825
:104F1000004100F035BA4FEAD22242EA43524FEA4A
:104F2000D323A7FB02864FEAD02040EA415007FB7B
:104F300003661EEA0E0F4FEAD12105FB026658BF39
:104F4000A6EB0056B6EB00564FEA520E4EEAC37E71
:104F500018EB0E0E56EB530EBDD518EB02085E4152
:104F60007F1C55F10005B6E74FF480154FF00007A0
:104F70004FF000064FF00008ADE7F0BC4FF0000026
:104F800001F1C04101F00041BDE8008111EA0C1FB0
:104F90000CEA131500D00CE013EA0C1F00F025807A
:104FA0004FF00000F0BC81EA030101F00041BDE8D0
:104FB0000081F0BCBDE8004181EA030100F0E0B9E6
:104FC000F0BCBDE8004170B500F08CF9097EFC3EF4
:104FD00000F007B881EA03014FF0000001F0004142
:104FE000704781EA030100F0CBB9F0BCBDE8004195
:104FF0004FF0000021497047FFFDFBF9F7F5F4F28F
:10500000F0EEEDEBE9E8E6E4E3E1E0DEDDDBDAD863
:10501000D7D5D4D3D1D0CFCDCCCBCAC8C7C6C5C4C1
:10502000C2C1C0BFBEBDBCBBBAB9B8B7B6B5B4B3D8
:10503000B2B1B0AFAEADACABAAA9A8A8A7A6A5A4C3
:10504000A3A3A2A1A09F9F9E9D9C9C9B9A99999887
:105050009797969595949393929191908F8F8E8E2A
:105060008D8C8C8B8B8A89898888878786858584B7
:1050700084838382828181800000FF070000F87FA3
:105080004FEA41034FEA5353A3F58063D3F11E0364
:10509000C8BFD3F1210C0CDD4FF0004242EAC1221F
:1050A00042EA505232FA03FC8CEAE17CACEBE1704C
:1050B0007047102BC4BF0020704703F5787CBCF10B
:1050C000FF3F04D06FF0004282EA2100704770B5C4
:1050D00000F008F94992248000207047F2E70000B0
:1050E0004FEA1153A3F58063D3F11E03A8BFD3F198
:1050F000200C08DB4FF0004242EAC12252EA505233
:1051000032FA03F0704709420BD4102BC4BF0020C1
:10511000704703F5787CBCF1FF3F05D04FF0FF30BE
:1051200070474FF00000704770B500F0DBF800BF2B
:105130004992248000207047F0E710F0004248BFF9
:105140004042B0FA80F310FA03F10AD0C3F11D0314
:1051500003F580634FEA415002EB035202EBD12189
:1051600070474FF000007047B0FA80F310FA03F177
:105170000AD0C3F11D0303F580634FEA41504FEAA3
:10518000035202EBD12170474FF00000704700003E
:10519000DFF848C170B51CEA111E1EBF1CEA1315CA
:1051A0009EEA0C0F95EA0C0F00F06F8081EA030471
:1051B00023EA4C134EEAD47E21EA4C1141F48011CB
:1051C00043F48013AE44A1FB024CA0FB0365AEF197
:1051D0007F7E361955EB0C05A1FB034C4CF1000307
:1051E000A0FB021C16EB0C06654153F100030942BB
:1051F00018BF46F0010613F4007F0BD14FEA0331CC
:105200004FEA0530340341EA155140EA16506FF079
:1052100003020AE04FEAC3214FEAC520F40241EA43
:10522000555140EA56506FF0020202EB2E4201EB5C
:10523000025585EACE710AD05FEA440C18BF24F00B
:10524000004450F1000041F1000120EAD47040F226
:10525000FE7C624500D270BDA84214BF4FF080446E
:105260004FF04044002E08BF0024BEF1806FA8BF5D
:10527000A1F1C041BDE8704080F282804FF0000093
:1052800001F1C04101F0004170479EEA0C0F0CEAA9
:10529000131518BF95EA0C0F06D04FF0000081EAF5
:1052A000030E0EF0004170BD00F01CF88900013EB5
:1052B00000F007B800F009B84FEA430C5FEA5C5C05
:1052C00008D081EA030100F05BB84FEA410C5FEAC5
:1052D0005C5CF6D14FF00000014970470000FF0709
:1052E0000000F87F0EF1020E2EF0030E5EF8046B44
:1052F000364205D4012A43EB030515F5001F12D8E9
:10530000012841EB010C1CF5001F0CD80ED14FEA0F
:10531000D17C15F5001F0CEB4C0C0CF1020C08BFF6
:105320004CEBD37C04E04FF0080C01E04FEAD37C57
:105330000CEB4C0526FA05F606F00706B6F1040C50
:1053400006D20EEB860CBDE870404CF0010C6047B5
:10535000DFE80CF0090B02024FF000414FF00000B3
:10536000A1F5002170BD19461046012851EB01043A
:1053700018BFD4F5001484BF002001F0004170BDB7
:105380000808A0F500114FEA3101704710B591EA05
:10539000030F48BF83F000433FF57AAC841A71EBEA
:1053A000030C07D212198CF0004C43EB0C03001BCA
:1053B00061EB0C01DFF8A4E14FEA1154A4EB135C9C
:1053C0001EEA430F18BF9EEA445F00F0B08023EA54
:1053D0006E03524221EA0451C3EB6E0338BF5B1ED9
:1053E000DCF1200E25D322FA0CFE10EB0E0043FA5E
:1053F0000CFE41EB0E01CCF1200E03FA0EFE10EB79
:105400000E0051F10001CCF1200E29D412FA0EF257
:1054100001EB0451BDE8104058BF7047401C1CBF51
:10542000B2F1004F704700280CBF491C20F001006A
:10543000704712EB020E43EB030218BF4FF0010E50
:105440004EEA4202ACF1200CDCF11E0E54D943FAB4
:105450000CFE10EB0E0051F1FF31CCF11E0ED5D534
:105460000EF1010E12FA0EFE404141EB010101EB7B
:10547000445C5FEA5C5C10D910EBDE7001EB045118
:1054800038BFBEF1004FBDE8104018BF704700287C
:105490000CBF491C20F00100704730D24FEAD42CD9
:1054A00011F5001124F400641BD0B1FA81F20B3A1B
:1054B000A41AA41ED2F12003914030FA03F3194339
:1054C000904001EBCC71002C01EB0451BDE8104081
:1054D000A8BF704701F1C0414FF0000001F000414A
:1054E0007047B0FA80F310FA03F100D110BDE41A4E
:1054F000173C4805C90AE4E701EB045110BD491007
:1055000001EB0451BDE810404FEA300002E04FF0DB
:10551000000170474A0008BF0042F8D0B2F5001FF2
:1055200028BF704701F000414FF0000070479EEA2D
:10553000445F07D011EA5E0FBDE8104004BF0021B0
:1055400000207047BDE8104070B5FFF7CBFE00BFEC
:1055500040DFF63E83F00041104670470000E0FF58
:10556000000000000000000000000000000000003B
:105570003F4000000000000000003000400030000C
:105580004000000009000BC03D000BC03D000900B9
:1055900018C024407FE0224031800000180024C061
:1055A0001B000D803240018003801C4027401C807E
:1055B00007400040100060000000000000000000F4
:1055C0000000000000001F8020404020000040201C
:1055D00020401F8000000000090006001F80060018
:1055E00009000000040004003F80040004000000E3
:1055F0000010006000000000000000000400040033
:10560000040004000400000000000040000000004E
:1056100000000000002001C006003800400000002B
:105620001F802040204020401F80000000001040CC
:105630003FC000400000000018C02140224024402C
:105640001840000010802040244024401B800000AF
:1056500002000D0011003FC0014000003C802440CA
:1056600024402440238000001F80244024403440F4
:10567000038000003000200027C038002000000018
:105680001B802440244024401B8000001C0022C0BA
:10569000224022401F80000000000000084000005F
:1056A0000000000000000000046000000000000096
:1056B000000004000A001100208040400900090099
:1056C000090009000900000000004040208011008E
:1056D0000A000400180020002340240018000000E5
:1056E0001F802040274029401F400000004007C085
:1056F00039000F0001C0004020403FC0244024403A
:105700001B8000001F80204020402040308000008F
:1057100020403FC0204020401F80000020403FC06C
:1057200024402E4030C0000020403FC024402E00C6
:10573000300000000F001080204022403380020023
:1057400020403FC0040004003FC0204020402040D3
:105750003FC02040204000000060202020203FC0AB
:105760002000200020403FC024400B0030C02040DB
:1057700020403FC020400040004000C03FC03C00EF
:1057800003C03C003FC0000020403FC00C4023004D
:105790003FC020001F802040204020401F8000008C
:1057A00020403FC024402400180000001F802140FA
:1057B000214020E01FA0000020403FC024402600E0
:1057C00019C0004018C0244024402240318000000D
:1057D000300020403FC020403000000020003F80CB
:1057E000004000403F80200020003E0001C0070034
:1057F00038002000380007C03C0007C03800000017
:10580000204039C0060039C0204000002000384048
:1058100007C0384020000000304021C026403840FA
:1058200020C00000000000007FE040204020000079
:10583000000070000C0003800040000000004020C9
:1058400040207FE000000000000020004000200019
:1058500000000000001000100010001000100010E8
:105860000000000040000000000000000000028076
:105870000540054003C0004020003FC004400440F4
:105880000380000000000380044004400640000044
:1058900000000380044024403FC00040000003801B
:1058A0000540054003400000000004401FC02440A4
:1058B00024402000000002E005500550065004205E
:1058C00020403FC00440040003C0004000000440EA
:1058D00027C000400000000000100010041027E066
:1058E0000000000020403FC00140070004C0044009
:1058F000204020403FC000400040000007C004009E
:1059000007C0040003C00000044007C004400400B6
:1059100003C00040000003800440044003800000F6
:10592000041007F0045004400380000000000380CE
:105930000440045007F00010044007C00240040077
:1059400004000000000006400540054004C00000BF
:10595000000004001F800440004000000400078095
:105960000040044007C000400400070004C001805C
:1059700006000400060001C0070001C00600000088
:10598000044006C0010006C00440000004100710D7
:1059900004E00180060004000000044005C0064049
:1059A000044000000000000004007BE040200000F4
:1059B000000000000000FFF0000000000000402098
:1059C0007BE0040000000000400080004000200058
:1059D0002000400000000000000000000000000067
:1059E00000000000000000F800000000000000338C
:1059F0003000000000100C06100C06000000000033
:105A00000000000040C07840C0784000043F04041B
:105A10003F040400007088FC08300000001820FFDC
:105A2000211E0000F008F000E018000000211C0317
:105A30001E211E0000F00888700000001E21232493
:105A40001927211010160E000000000000000000B1
:105A500000000000000000E0180402000000000741
:105A60001820400000020418E00000000040201848
:105A700007000000404080F0804040000202010F1B
:105A800001020200000000F0000000000101011FFF
:105A900001010100000000000000000080B0700063
:105AA00000000000000000000000000000010101F3
:105AB0000101010100000000000000000030300082
:105AC000000000000000000080601804006018065C
:105AD0000100000000E010080810E000000F102096
