:020000040800F2
:1000000088060020CD0100089D080008950800081A
:1000100099080008D7050008131000080000000028
:10002000000000000000000000000000810A00083D
:100030007D07000800000000110900086D0B000892
:10004000E7010008E7010008E7010008E7010008F0
:10005000E7010008E7010008E7010008E7010008E0
:10006000E7010008E7010008E7010008E7010008D0
:10007000E7010008E7010008E7010008E7010008C0
:10008000E7010008E7010008E7010008E7010008B0
:10009000E7010008E7010008E7010008E7010008A0
:1000A000E7010008E7010008E7010008E701000890
:1000B000E7010008490C0008E7010008E701000813
:1000C000E7010008E7010008E7010008E701000870
:1000D000E7010008C90D0008FD0D0008310E0008F9
:1000E000E7010008E7010008E7010008E701000850
:1000F000E7010008E7010008E7010008E701000840
:10010000E7010008E7010008E7010008E70100082F
:10011000E7010008E7010008E7010008E70100081F
:10012000E7010008E7010008E7010008E70100080F
:1001300000F002F800F03AF80AA090E8000C8244BF
:100140008344AAF10107DA4501D100F02FF8AFF29C
:10015000090EBAE80F0013F0010F18BFFB1A43F0A5
:10016000010318478C100000AC100000103A24BFA7
:1001700078C878C1FAD8520724BF30C830C144BF0C
:1001800004680C607047000000230024002500264E
:10019000103A28BF78C1FBD8520728BF30C148BFEA
:1001A0000B6070471FB51FBD10B510BD00F036F8CD
:1001B0001146FFF7F7FF00F05DFF00F054F803B4BD
:1001C000FFF7F2FF03BC00F055F800000948804734
:1001D00009480047FEE7FEE7FEE7FEE7FEE7FEE729
:1001E000FEE7FEE7FEE7FEE704480549054A064B41
:1001F00070470000850B00083101000888000020CE
:10020000880600208802002088020020704770477E
:100210007047000000487047280000207546FFF72F
:10022000F9FFAE4605006946534620F007008546B3
:1002300018B020B5FFF7D8FFBDE820404FF000060A
:100240004FF000074FF000084FF0000B21F00701BE
:10025000AC46ACE8C009ACE8C009ACE8C009ACE801
:10026000C0098D4670470446AFF300802046FFF773
:10027000A6FF000001491820ABBEFEE726000200E1
:10028000704721B1826842F00102826003E0826817
:1002900022F001028260704721B1826842F48072CC
:1002A000826003E0826822F48072826070470000FE
:1002B00010B592B004460121084600F037FB012139
:1002C0004FF4017000F052FBFF20ADF84400002015
:1002D0008DF8470011A94F4800F051FA4E4800F040
:1002E00089F94E4801900294002003900820049060
:1002F0000020059080200690400007908000089024
:100300002020099000020A9000200B9001A9424889
:1003100000F016FA0121404800F05FF93F484C38E0
:1003200000F07EF800200C9001208DF834008DF84C
:1003300035004FF460200E9000200F9008208DF8BB
:1003400040000CA935484C3800F0ACF84FF40040A0
:1003500000F0E0FA07230122002130484C3800F079
:10036000C9F80723022201212C484C3800F0C2F8BA
:1003700007230322022129484C3800F0BBF8072349
:100380000422032125484C3800F0B4F80723052245
:10039000042122484C3800F0ADF80723062205213D
:1003A0001E484C3800F0A6F807231A4606211B48C1
:1003B0004C3800F09FF807230822194617484C389C
:1003C00000F098F8012115484C38FFF765FF01212E
:1003D00012484C38FFF755FF10484C3800F0E6F84B
:1003E00000BF0E484C3800F053F80028F9D10B48F4
:1003F0004C3800F0EBF800BF08484C3800F03EF8ED
:100400000028F9D1012105484C3800F0D4F812B089
:1004100010BD000000080140080002404C240140CB
:1004200010B504461248844208D10121401500F05D
:10043000ADFA0021601500F0A9FA17E00D488442DA
:1004400008D10121001500F0A1FA0021201500F0CB
:100450009DFA0BE00848844208D10121C80300F04E
:1004600095FA00214FF4004000F090FA10BD000012
:100470000024014000280140003C014001460020CA
:100480008A6802F004020AB1012000E000207047EF
:10049000014600208A6802F008020AB1012000E04B
:1004A0000020704730B502460020002350680F4CF2
:1004B00020400D790C6844EA052420435060906880
:1004C0000B4C2040D1E902542C434D7944EA4504B9
:1004D00020439060D06A20F470000C7C641EE4B26B
:1004E000234340EA0350D06230BD0000FFFEF0FF1E
:1004F000FDF7F1FFF0B504460D4600200021092D5F
:1005000011DDE068A5F10A0606EB4607072606FAA4
:1005100007F18843A5F10A0606EB460603FA06F141
:100520000843E0600CE0206905EB4507072606FA62
:1005300007F1884305EB450603FA06F108432061FD
:10054000072A0FDA606B561E06EB86071F2606FA8F
:1005500007F18843561E06EB860605FA06F10843A6
:10056000606322E00D2A0FDA206BD61F06EB8607A8
:100570001F2606FA07F18843D61F06EB860605FA02
:1005800006F10843206310E0E06AA2F10D0606EBD5
:1005900086071F2606FA07F18843A2F10D0606EB2F
:1005A000860605FA06F10843E062F0BD816841F075
:1005B00008018160704721B1826842F4A002826024
:1005C00003E0826822F4A00282607047816841F0F3
:1005D00004018160704700BFFEE721B1026842F06C
:1005E0000102026004E002684FF6FE731A400260E6
:1005F0007047000001684FF6FE7211400160002153
:10060000016041608160C1604B49884208D14A491C
:100610000839496841F00F01474A083A51608AE0B9
:1006200045491431884208D143490839496841F0A5
:10063000F001414A083A51607DE03F492831884243
:1006400008D13D490839496841F470613A4A083A8D
:10065000516070E038493C31884208D13649083948
:10066000496841F47041344A083A516063E03249C4
:100670005031884208D130490839496841F4702125
:100680002D4A083A516056E02B496431884208D11E
:1006900029490839496841F47001274A083A5160EC
:1006A00049E025497831884208D123490839496809
:1006B00041F07061204A083A51603CE01F4988428D
:1006C00006D1011F096841F00F01021F116032E0DD
:1006D0001A491431884208D11849091F096841F0A4
:1006E000F001164A121F116025E014492831884292
:1006F00008D11249091F096841F470610F4A121F9D
:10070000116018E00D493C31884208D10B49091F9E
:10071000096841F47041094A121F11600BE0074952
:100720005031884207D10549091F096841F47021F9
:10073000024A121F1160704708000240080402407C
:1007400010B50022026847F6F0739A430C6A8B6872
:1007500023430C6923434C6923438C692343CC69AD
:1007600023434C6A23438C6A23431A430260CB68B9
:1007700043600B6883604B68C36010BD70472DE910
:10078000F041024600250026002000230024002717
:1007900091F803C00CF00F0591F803C00CF0100C99
:1007A000BCF1000F03D091F802C04CEA050591F8A6
:1007B00000C0BCF1000F31D0146800202BE04FF0D6
:1007C000010C0CFA00F3B1F800C00CEA03069E42DB
:1007D00020D183004FF00F0C0CFA03F7BC4305FA4D
:1007E00003FC4CEA040491F803C0BCF1280F06D1C5
:1007F0004FF0010C0CFA00FCC2F814C00AE091F8AA
:1008000003C0BCF1480F05D14FF0010C0CFA00FCFD
:10081000C2F810C0401C0828D1D31460B1F800C041
:10082000BCF1FF0F34DD546800202EE000F1080C0D
:100830004FF0010808FA0CF3B1F800C00CEA030607
:100840009E4221D183004FF00F0C0CFA03F7BC43FA
:1008500005FA03FC4CEA040491F803C0BCF1280F2C
:1008600005D100F1080C08FA0CF8C2F8148091F8D0
:1008700003C0BCF1480F07D100F1080C4FF001088C
:1008800008FA0CF8C2F81080401C0828CED3546037
:10089000BDE8F08100BFFEE700BFFEE77047000043
:1008A00070B5002100230F22C47804B3154C2468CE
:1008B00004F4E064C4F5E064210AC1F10403CA4011
:1008C000447804FA03F184781440214309010E4C62
:1008D0000678A155047804F01F050124AC40057882
:1008E0006D11AD0005F1E025C5F8004109E004787F
:1008F00004F01F050124AC40044D0678761145F83C
:10090000264070BD0CED00E000E400E080E100E076
:100910007047000001460020034A506820F4404020
:1009200008435060704700000010024029B1064A99
:1009300052690243044B5A6104E0034A52698243FC
:10094000014B5A61704700000010024029B1064A6D
:10095000D2690243044BDA6104E0034AD26982435C
:10096000014BDA61704700000010024029B1064ACD
:1009700092690243044B9A6104E0034A92698243FC
:10098000014B9A61704700000010024029B1064AED
:10099000D2680243044BDA6004E0034AD26882431F
:1009A000014BDA60704700000010024030B50021B2
:1009B0000022002400232D4D6D6805F00C0121B1AB
:1009C000042905D0082923D105E0294D056022E03E
:1009D000274D05601FE0254D6D6805F47012234D0D
:1009E0006D6805F48034022505EB92421CB9214D57
:1009F000554305600BE01D4D6D6805F400351DB1D4
:100A00001C4D5543056002E0194D5543056002E059
:100A1000174D056000BF00BF144D6D6805F0F00173
:100A20000909154D6B5C0568DD4045600F4D6D682B
:100A300005F4E061090A104D6B5C4568DD40856096
:100A40000A4D6D6805F46051C90A0B4D6B5C456831
:100A5000DD40C560054D6D6805F44041890B074DCB
:100A60006B5CC568B5FBF3F5056130BD0010024055
:100A700000127A0000093D00000000201000002054
:100A8000704710B500F002F810BD00000CB5002052
:100A9000019000903348006840F48030314908608C
:100AA00000BF3048006800F4003000900198401CFE
:100AB0000190009818B90198B0F5A06FF1D12948BC
:100AC000006800F4003010B10120009001E0002027
:100AD00000900098012843D12348006840F010009E
:100AE000214908600846006820F0030008600846B5
:100AF000006840F0020008601A48406819494860E0
:100B00000846406848600846406840F48060486095
:100B10000846406820F47C1048600846406840F46D
:100B2000E81048600846006840F08070086000BF28
:100B30000C48006800F000700028F9D009484068AF
:100B400020F00300074948600846406840F0020072
:100B5000486000BF0348406800F00C000828F9D145
:100B60000CBD000000100240002002400448006854
:100B700020B103480068401E01490860704700002A
:100B80001400002010B51348006840F0010011491E
:100B9000086008464068104908400E494860084609
:100BA00000680E4908400B4908600846006820F4B8
:100BB000802008600846406820F4FE0048604FF43A
:100BC0001F008860FFF75DFF4FF000600449086078
:100BD00010BD0000001002400000FFF8FFFFF6FE0D
:100BE00008ED00E01FB501210220FFF7AFFE47200E
:100BF000ADF804000020ADF8060042F20F70ADF829
:100C000008000020ADF80A008DF80C0001A90D487D
:100C100000F088F801210B4800F058F80122114635
:100C2000084800F076F81D208DF8000002208DF8AD
:100C300001008DF8020001208DF803006846FFF7DF
:100C40002FFE1FBD0004004010B586B001211C48D6
:100C500000F04EF8012830D10121194800F039F890
:100C6000AA208DF8040055208DF8150000240FE00F
:100C7000144830F8140001126000401C01AA1154FD
:100C8000104810F814106000801C1154601CC4B28D
:100C9000082CEDDB00240DE001A8015D0A4800F0FE
:100CA000B4F900BF0848008800F040000028F9D0DF
:100CB000601CC4B2122CEFDB00BF06B010BD0000F8
:100CC000000400401800002000480040CA4302828F
:100CD0007047CA430282704721B1028842F0010284
:100CE000028004E002884FF6FE731A4002807047CB
:100CF00030B50246002000230024158A05EA0103CE
:100D0000958905EA010413B10CB1012000E000202F
:100D100030BD1AB183890B43838102E083898B4301
:100D200083817047002202881D4B98420ED01D4BD4
:100D300098420BD0B0F1804F08D01B4B984205D0A1
:100D40001A4B984202D01A4B984204D14FF68F7337
:100D50001A404B881A43174B984207D0164B9842BB
:100D600004D04FF6FF431A40CB881A4302808B8889
:100D700083850B8803850A4B98420BD0094B984218
:100D800008D00E4B984205D00D4B984202D00D4B27
:100D9000984201D10B7A03860123838270470000B9
:100DA000002C0140003401400004004000080040D5
:100DB000000C0040001000400014004000400140C2
:100DC000004401400048014010B540F22551094857
:100DD00000F05BF8012807D1064800F011F904463D
:100DE0002146054800F011F940F22551014800F074
:100DF00037F810BD003801400044004010B540F203
:100E00002551094800F041F8012807D1064800F0B3
:100E1000F7F804462146054800F0F7F840F225515E
:100E2000014800F01DF810BD0044004000380140AA
:100E300010B540F22551094800F027F8012807D1E4
:100E4000064800F0DDF804462146044800F0DDF8CD
:100E500040F22551014800F003F810BD0048004061
:100E600001F40072B2F5007F00D100BFCA430280D6
:100E7000704721B1828942F40052828104E0828964
:100E80004DF6FF731A408281704770B50246002408
:100E900000230025002040F66A16B14200D100BFB1
:100EA000C1F3421501F01F03012606FA03F3012DD9
:100EB00002D19689334006E0022D02D1168A3340D2
:100EC00001E0968A33400C12012606FA04F41688D3
:100ED000344013B10CB1012000E0002070BDF0B52A
:100EE0000346002400260025002040F66A17B94278
:100EF00000D100BF1846C1F3421401F01F060127BC
:100F000007FA06F5012C01D10C3004E0022C01D1C6
:100F1000103000E014301AB107682F43076002E078
:100F20000768AF430760F0BD2DE9F04786B005467E
:100F30000E460024A24600BFA1460027B08900B19A
:100F400000BF2F462C8A4CF6FF700440F088044303
:100F50002C82AC894EF6F3100440B08831890843E6
:100F6000718908430443AC81AC8A4FF6FF400440CA
:100F7000B0890443AC8201A8FFF718FD1F488742DF
:100F800002D1DDF810A001E0DDF80CA0A88900F482
:100F9000004040B10AEBCA0000EB0A10316849007A
:100FA000B0FBF1F807E00AEBCA0000EB0A10316869
:100FB0008900B0FBF1F86420B8FBF0F004012009CF
:100FC000642101FB1089A88900F4004040B132205F
:100FD00000EBC900B0FBF1F000F00700044308E0AB
:100FE000322000EB09106421B0FBF1F000F00F009B
:100FF00004432C8106B0BDE8F087000000380140B2
:1010000001468888C0F308007047C1F30802828057
:10101000704700BFFEE7000030B54821B1F1807F86
:1010200001D301201DE021F07F40401E4FF0E0225F
:10103000506150170F22002807DA13071D0E0B4BC3
:1010400000F00F04241F1D5503E013071C0E084B6E
:101050001C5400BF00204FF0E02290610720106177
:101060000020012801D100BFFEE730BD18ED00E0EF
:1010700000E400E0FFF7D0FF4FF4E13000F014F897
:101080004FF4E13000F060F80548FFF711F9FFF781
:10109000A9FD01210348FFF71FFE00BFFEE7000086
:1010A000180000200004004010B586B0044601215D
:1010B00044F20400FFF75AFC4FF40070ADF814003E
:1010C00003208DF8160018208DF8170005A91C487C
:1010D000FFF755FB4FF48060ADF8140004208DF845
:1010E000170005A91648FFF74AFB25208DF80000D8
:1010F00000208DF8010001208DF802008DF803001A
:101100006846FFF7CDFB01940020ADF80800ADF86C
:101110000A00ADF80C00ADF810000C20ADF80E0080
:1011200001A90848FFF700FF012240F225510548B8
:10113000FFF7D5FE01210348FFF79BFE06B010BD67
:10114000000801400038014010B586B00446012176
:101150000820FFF70BFC01218804FFF7F7FB4FF491
:101160008060ADF8140003208DF8160018208DF86B
:10117000170005A91C48FFF702FB4FF40060ADF80B
:10118000140004208DF8170005A91748FFF7F7FA97
:1011900027208DF8000000208DF8010001208DF837
:1011A00002008DF803006846FFF77AFB01940020E7
:1011B000ADF80800ADF80A00ADF80C00ADF810006D
:1011C0000C20ADF80E0001A90848FFF7ADFE012282
:1011D00040F225510548FFF782FE01210348FFF741
:1011E00048FE06B010BD0000000C01400048004061
:1011F0001012000800000020180000006C01000818
:10120000281200081800002070060000880100085D
:10121000000000000102030401020304060708099C
:081220000204060800000000B2
:04000005080001CD21
:00000001FF
