:020000040800F2
:10000000000002207D560008891700088B170008A1
:100010008D1700088F1700089117000800000000D6
:10002000000000000000000000000000514A00082D
:100030009317000800000000F14A0008554B000823
:10004000CD560008CD560008CD560008CD56000804
:10005000CD560008CD560008CD560008CD560008F4
:10006000CD560008CD560008CD560008CD560008E4
:10007000CD560008CD560008CD560008CD560008D4
:1000800095170008A5170008B5170008CD560008F9
:10009000CD560008CD560008CD560008CD560008B4
:1000A000CD560008CD560008CD560008CD560008A4
:1000B000CD560008CD560008CD560008CD56000894
:1000C000CD560008CD560008CD560008CD56000884
:1000D000CD560008C5170008DD170008CD560008EA
:1000E000CD560008CD560008CD560008CD56000864
:1000F000CD560008F5170008CD560008CD5600086B
:10010000CD560008CD560008CD560008CD56000843
:10011000CD560008CD560008CD560008CD56000833
:1001200005180008CD56000815180008CD5600081F
:10013000CD560008CD560008CD560008CD56000813
:10014000CD560008CD560008CD560008CD56000803
:10015000CD560008CD56000825180008CD560008D9
:10016000CD560008CD560008CD560008CD560008E3
:10017000CD560008CD560008CD56000800000000FE
:08018000CD560008CD56000821
:1001900010B5054C237833B9044B13B10448AFF3C1
:1001A00000800123237010BD3C04002000000000EB
:1001B0009C58000808B5034B1BB103490348AFF333
:1001C000008008BD00000000400400209C5800088A
:1001D00070B54FF0FF0C4CF4E06C1CEA11541DBFDD
:1001E0001CEA135594EA0C0F95EA0C0F00F0DEF8A8
:1001F0002C4481EA030621EA4C5123EA4C5350EA8D
:10020000013518BF52EA033541F4801143F48013DD
:1002100038D0A0FB02CE4FF00005E1FB02E506F06E
:100220000042E0FB03E54FF00006E1FB03569CF0C3
:10023000000F18BF4EF0010EA4F1FF04B6F5007FC9
:1002400064F5407404D25FEA4E0E6D4146EB06063B
:1002500042EAC62141EA55514FEAC52040EA5E50C4
:100260004FEACE2EB4F1FD0C88BFBCF5E06F1ED86E
:10027000BEF1004F08BF5FEA500E50F1000041EBA5
:10028000045170BD06F0004646EA010140EA020052
:1002900081EA0301B4EB5C04C2BFD4EB0C0541EA74
:1002A000045170BD41F480114FF0000E013C00F389
:1002B000AB8014F1360FDEBF002001F0004170BDAD
:1002C000C4F10004203C35DA0C341BDC04F11404C6
:1002D000C4F1200500FA05F320FA04F001FA05F252
:1002E00040EA020001F0004221F0004110EBD3701F
:1002F00021FA04F642EB06015EEA430E08BF20EA4B
:10030000D37070BDC4F10C04C4F1200500FA04F3ED
:1003100020FA05F001FA04F240EA020001F000417F
:1003200010EBD37041F100015EEA430E08BF20EAF2
:10033000D37070BDC4F1200500FA05F24EEA020E3A
:1003400020FA04F301FA05F243EA020321FA04F069
:1003500001F0004121FA04F220EA020000EBD37020
:100360005EEA430E08BF20EAD37070BD94F0000F20
:100370000FD101F00046400041EB010111F4801F54
:1003800008BF013CF7D041EA060195F0000F18BF05
:10039000704703F00046520043EB030313F4801F41
:1003A00008BF013DF7D043EA0603704794EA0C0FFB
:1003B0000CEA135518BF95EA0C0F0CD050EA410611
:1003C00018BF52EA4306D1D181EA030101F000418E
:1003D0004FF0000070BD50EA410606BF10461946B6
:1003E00052EA430619D094EA0C0F02D150EA0136C2
:1003F00013D195EA0C0F05D152EA03361CBF104603
:1004000019460AD181EA030101F0004141F0FE41A1
:1004100041F470014FF0000070BD41F0FE4141F425
:10042000780170BD81F0004102E000BF83F000431D
:1004300030B54FEA41044FEA430594EA050F08BF7F
:1004400090EA020F1FBF54EA000C55EA020C7FEA43
:10045000645C7FEA655C00F0E2804FEA5454D4EBC0
:100460005555B8BF6D420CDD2C4480EA020281EA8A
:10047000030382EA000083EA010180EA020281EAC2
:100480000303362D88BF30BD11F0004F4FEA013114
:100490004FF4801C4CEA113102D0404261EB410123
:1004A00013F0004F4FEA03334CEA133302D05242A9
:1004B00063EB430394EA050F00F0A780A4F1010465
:1004C000D5F1200E0DDB02FA0EFC22FA05F280189F
:1004D00041F1000103FA0EF2801843FA05F3594185
:1004E0000EE0A5F120050EF1200E012A03FA0EFC04
:1004F00028BF4CF0020C43FA05F3C01851EBE3712E
:1005000001F0004507D54FF0000EDCF1000C7EEB4A
:1005100000006EEB0101B1F5801F1BD3B1F5001F88
:100520000CD349085FEA30004FEA3C0C04F10104A7
:100530004FEA445212F5800F80F09A80BCF1004FD0
:1005400008BF5FEA500C50F1000041EB045141EA52
:10055000050130BD5FEA4C0C404141EB0101013C1B
:1005600028BFB1F5801FE9D291F0000F04BF01460A
:100570000020B1FA81F308BF2033A3F10B03B3F1DC
:1005800020020CDA0C3208DD02F1140CC2F10C026C
:1005900001FA0CF021FA02F10CE002F11402D8BFCA
:1005A000C2F1200C01FA02F120FA0CFCDCBF41EA96
:1005B0000C019040E41AA2BF01EB0451294330BD65
:1005C0006FEA04041F3C1CDA0C340EDC04F1140442
:1005D000C4F1200220FA04F001FA02F340EA030019
:1005E00021FA04F345EA030130BDC4F10C04C4F15F
:1005F000200220FA02F001FA04F340EA030029463F
:1006000030BD21FA04F0294630BD94F0000F83F488
:10061000801306BF81F480110134013D4EE77FEA6B
:10062000645C18BF7FEA655C29D094EA050F08BFB7
:1006300090EA020F05D054EA000C04BF1946104698
:1006400030BD91EA030F1EBF0021002030BD5FEADC
:10065000545C05D14000494128BF41F0004130BD04
:1006600014F580043CBF01F5801130BD01F0004558
:1006700045F0FE4141F470014FF0000030BD7FEACB
:10068000645C1ABF194610467FEA655C1CBF0B46C6
:10069000024650EA013406BF52EA033591EA030FDD
:1006A00041F4002130BD00BF90F0000F04BF0021D5
:1006B000704730B54FF4806404F132044FF0000508
:1006C0004FF0000150E700BF90F0000F04BF002181
:1006D000704730B54FF4806404F1320410F00045E7
:1006E00048BF40424FF000013EE700BF42004FEAE2
:1006F000E2014FEA31014FEA02701FBF12F07F435F
:1007000093F07F4F81F06051704732F07F4208BF15
:10071000704793F07F4F04BF41F40021704730B51C
:100720004FF4607401F0004521F000411CE700BF68
:1007300050EA010208BF704730B54FF000050AE0EB
:1007400050EA010208BF704730B511F0004502D5EC
:10075000404261EB41014FF4806404F132045FEAEE
:10076000915C3FF4D8AE4FF003025FEADC0C18BF97
:1007700003325FEADC0C18BF033202EBDC02C2F189
:10078000200300FA03FC20FA02F001FA03FE40EA1B
:100790000E0021FA02F11444BDE600BF4FEA410207
:1007A00012F5001215D211D56FF47873B3EB6252C3
:1007B00012D94FEAC12343F0004343EA505311F0EA
:1007C000004F23FA02F018BF404270474FF000007C
:1007D000704750EA013005D111F0004008BF6FF0BA
:1007E000004070474FF00000704700BF53B94AB94E
:1007F000002908BF00281CBF4FF0FF314FF0FF3029
:1008000000F074B9ADF1080C6DE904CE00F006F803
:10081000DDF804E0DDE9022304B070472DE9F0477C
:10082000089D04468E46002B4DD18A42944669D9D4
:10083000B2FA82F252B101FA02F3C2F1200120FAB7
:1008400001F10CFA02FC41EA030E94404FEA1C4805
:10085000210CBEFBF8F61FFA8CF708FB16E341EA01
:10086000034306FB07F199420AD91CEB030306F187
:10087000FF3080F01F81994240F21C81023E6344A8
:100880005B1AA4B2B3FBF8F008FB103344EA03444C
:1008900000FB07F7A7420AD91CEB040400F1FF3361
:1008A00080F00A81A74240F207816444023840EA9E
:1008B0000640E41B00261DB1D4400023C5E90043D7
:1008C0003146BDE8F0878B4209D9002D00F0EF805A
:1008D0000026C5E9000130463146BDE8F087B3FA8D
:1008E00083F6002E4AD18B4202D3824200F2F98075
:1008F000841A61EB030301209E46002DE0D0C5E978
:10090000004EDDE702B9FFDEB2FA82F2002A40F0C3
:100910009280A1EB0C014FEA1C471FFA8CFE0126C6
:10092000200CB1FBF7F307FB131140EA01410EFB6A
:1009300003F0884208D91CEB010103F1FF3802D211
:10094000884200F2CB804346091AA4B2B1FBF7F00B
:1009500007FB101144EA01440EFB00FEA64508D92E
:100960001CEB040400F1FF3102D2A64500F2BB806B
:100970000846A4EB0E0440EA03409CE7C6F12007BA
:10098000B34022FA07FC4CEA030C20FA07F401FA00
:1009900006F31C43F9404FEA1C4900FA06F3B1FB89
:1009A000F9F8200C1FFA8CFE09FB181140EA0141EE
:1009B00008FB0EF0884202FA06F20BD91CEB01018B
:1009C00008F1FF3A80F08880884240F28580A8F1E3
:1009D00002086144091AA4B2B1FBF9F009FB101135
:1009E00044EA014100FB0EFE8E4508D91CEB0101D3
:1009F00000F1FF346CD28E456AD90238614440EA76
:100A00000840A0FB0294A1EB0E01A142C846A646F5
:100A100056D353D05DB1B3EB080261EB0E0101FA7E
:100A200007F722FA06F3F1401F43C5E900710026DB
:100A30003146BDE8F087C2F12003D8400CFA02FC31
:100A400021FA03F3914001434FEA1C471FFA8CFE41
:100A5000B3FBF7F007FB10360B0C43EA064300FB31
:100A60000EF69E4204FA02F408D91CEB030300F1CF
:100A7000FF382FD29E422DD9023863449B1B89B286
:100A8000B3FBF7F607FB163341EA034106FB0EF30F
:100A90008B4208D91CEB010106F1FF3816D28B42BC
:100AA00014D9023E6144C91A46EA004638E72E4688
:100AB000284605E70646E3E61846F8E64B45A9D280
:100AC000B9EB020864EB0C0E0138A3E74646EAE7EF
:100AD000204694E74046D1E7D0467BE7023B61449D
:100AE00032E7304609E76444023842E7704700BF06
:100AF000844641EA000313F003036DD1403A41D329
:100B000051F8043B40F8043B51F8043B40F8043BE7
:100B100051F8043B40F8043B51F8043B40F8043BD7
:100B200051F8043B40F8043B51F8043B40F8043BC7
:100B300051F8043B40F8043B51F8043B40F8043BB7
:100B400051F8043B40F8043B51F8043B40F8043BA7
:100B500051F8043B40F8043B51F8043B40F8043B97
:100B600051F8043B40F8043B51F8043B40F8043B87
:100B700051F8043B40F8043B51F8043B40F8043B77
:100B8000403ABDD2303211D351F8043B40F8043B17
:100B900051F8043B40F8043B51F8043B40F8043B57
:100BA00051F8043B40F8043B103AEDD20C3205D327
:100BB00051F8043B40F8043B043AF9D2043208D01F
:100BC000D2071CBF11F8013B00F8013B01D30B8891
:100BD00003806046704700BF082A13D38B078DD06F
:100BE00010F003038AD0C3F10403D21ADB071CBF41
:100BF00011F8013B00F8013B80D331F8023B20F8AB
:100C0000023B7BE7043AD9D3013A11F8013B00F8E3
:100C1000013BF9D20B7803704B7843708B7883706B
:100C200060467047034B0360034B0B6080231360E7
:100C3000704700BF580600205804002030B58DB022
:100C400000240794089409940A940B940194274B68
:100C50001A6B42F080021A631A6B02F08002019252
:100C6000019A02941A6B42F004021A631A6B02F0A2
:100C700004020292029A03941A6B42F001021A6370
:100C80001A6B02F001020392039A04941A6B42F069
:100C900002021A631A6B02F002020492049A05948B
:100CA0001A6B42F010021A631A6B02F010020592DE
:100CB000059A06941A6B42F008021A631B6B03F044
:100CC00008030693069B0A4D22460221284602F09D
:100CD000DDF9022307930123089309940A9407A9D5
:100CE000284602F0E1F80DB030BD00BF00380240E8
:100CF0000000024010B582B0002400941E4B1A6B15
:100D000042F480021A631A6B02F480020092009A85
:100D100001941A6B42F400121A631B6B03F4001364
:100D20000193019B22460521102001F011FE1020A5
:100D300001F046FE22460521112001F009FE112096
:100D400001F03EFE22460521382001F001FE382048
:100D500001F036FE224605213A2001F0F9FD3A2045
:100D600001F02EFE22460521462001F0F1FD46202D
:100D700001F026FE02B010BD0038024008B500F0B8
:100D8000D9FF054C0021204600F0A8FDE062642058
:100D900003F0BAFDF3E700BFF414002008B5034BDD
:100DA0000522DA61642003F0AFFDF8E79414002017
:100DB00008B5642003F0A8FDFBE708B500F022FFAA
:100DC000642003F0A1FDF9E708B50268034B9A42DD
:100DD00000D008BD01F02EFAFBE700BF0020004064
:100DE00072B6FEE700B585B000230093019302932D
:100DF00003934948494A02604FF48032426083605D
:100E000001220261027680F82030C3624449816287
:100E1000C3600A23C36180F83020426101F0CAFA3E
:100E2000002863D10223009301230193002302933E
:100E30006946394801F0ACFC002859D103230093DE
:100E4000022301936946344801F0A2FC002851D1E5
:100E5000042300930323019369462F4801F098FC73
:100E6000002849D1052300930423019369462A48A9
:100E700001F08EFC002841D1062300930523019345
:100E80006946254801F084FC002839D107230093E6
:100E9000062301936946204801F07AFC90BB0823A1
:100EA00000930723019369461B4801F071FC58BB6E
:100EB00009230093082301936946174801F068FC51
:100EC00020BB0A230093092301936946124801F0CD
:100ED0005FFCE8B90B2300930A23019369460E488F
:100EE00001F056FCB0B905B05DF804FBFFF778FFE0
:100EF000FFF776FFFFF774FFFFF772FFFFF770FF52
:100F0000FFF76EFFFFF76CFFFFF76AFFFFF768FF61
:100F1000FFF766FFFFF764FFBC06002000200140DA
:100F20000100000F00B58DB02422002103A804F0B9
:100F3000F3FB0023019302931048114A02604360BF
:100F400083604EF66022C2600361436183610123C6
:100F500003930593099303A902F042FE50B90023BD
:100F60000193029301A9054803F02EF820B90DB0B2
:100F70005DF804FBFFF734FFFFF732FFE4080020C1
:100F80000000014000B58DB02422002103A804F028
:100F9000C3FB00230193029310484FF0804202608C
:100FA000436083604EF66022C26003618361012367
:100FB00003930593099303A902F012FE50B900238D
:100FC0000193029301A9054802F0FEFF20B90DB07C
:100FD0005DF804FBFFF704FFFFF702FF2C09002078
:100FE00000B58BB0002308930993019302930393F8
:100FF00004930593069307932248234A02605322E1
:101000004260836040F2E732C2600361836102F0B4
:10101000BBFD58BB00230893099308A9194802F0A7
:10102000D3FF28BB60230193002202920392059212
:1010300001A9144802F068FEE0B904220DEB020198
:10104000104802F061FEB8B9082201A90D4802F06B
:101050005BFE98B90C2201A90A4802F055FE78B946
:10106000084800F037FA0BB05DF804FBFFF7B8FE54
:10107000FFF7B6FEFFF7B4FEFFF7B2FEFFF7B0FED4
:10108000FFF7AEFE740900200004004008B50A48CE
:101090000A4B03604FF4E133436000238360C36075
:1010A00003610C2242618361C36103F0E5F800B97A
:1010B00008BDFFF795FE00BFBC09002000100140ED
:1010C00008B50A480A4B03604FF4165343600023E7
:1010D0008360C36003610C2242618361C36103F0DA
:1010E000CBF800B908BDFFF77BFE00BF000A002067
:1010F0000044004000B595B03022002108A804F05B
:101100000BFB00230393049305930693079301932A
:101110001F4A116C41F080511164126C02F0805230
:101120000192019A02931B4A116841F480411160B7
:10113000126802F480420292029A0222089201216D
:101140000B9110210C910E920F9308231093A8235A
:10115000119312920423139308A801F0A7FF98B9E2
:101160000F23039302230493002305934FF4A0530A
:1011700006934FF480530793052103A802F0E4F986
:1011800020B915B05DF804FBFFF72AFEFFF728FE33
:10119000003802400070004000B59DB001F030F80A
:1011A000FFF7A8FFFFF74AFDFFF7A4FDFFF71AFEC0
:1011B000FFF7B8FEFFF7E6FEFFF712FFFFF766FF47
:1011C000FFF77EFF00F0CAFC244C0DF1540CA6463C
:1011D000BEE80F00ACE80F009EE807008CE80700AF
:1011E000002115A803F05BFB1D4B18600DF1380CB6
:1011F00004F11C0EBEE80F00ACE80F009EE80700EB
:101200008CE8070000210EA803F049FB154B18607D
:101210000DF11C0C04F1380EBEE80F00ACE80F0015
:101220009EE807008CE80700002107A803F037FBC1
:101230000D4B1860EE4604F1540CBCE80F00AEE80C
:101240000F009CE807008EE807000021684603F0C5
:1012500026FB064B186003F01DFBFEE7B4580008A0
:10126000B8060020B4060020AC060020B00600201E
:1012700000B583B0002200920D4B596C41F48041BF
:101280005964596C01F48041009100990192196CE4
:1012900041F0805119641B6C03F080530193019B52
:1012A0000F216FF0010001F053FB03B05DF804FB68
:1012B0000038024070B58AB0002305930693079367
:1012C00008930993026803F1804303F590339A422F
:1012D00001D00AB070BD04460025019503F58C339A
:1012E0005A6C42F480725A645A6C02F48072019211
:1012F000019A02951A6B42F004021A631A6B02F00B
:1013000004020292029A03951A6B42F001021A63D8
:101310001A6B02F001020392039A04951A6B42F0D1
:1013200002021A631B6B03F002030493049B03265F
:101330000596069605A91C4801F0B6FDFC23059309
:101340000696079505A9194801F0AEFD0596069683
:10135000079505A9164801F0A7FD1648164B03602E
:1013600045608560C5604FF4806303614FF480532E
:1013700043614FF4804383614FF48073C36105621E
:10138000456201F0ABFB58B90A4BA3639C63002292
:101390000521122001F0DCFA122001F011FB98E780
:1013A000FFF71EFDF0E700BF00080240000002400A
:1013B00000040240040700201064024070B58AB0A7
:1013C0000023059306930793089309930368304A13
:1013D000934204D0B3F1804F24D00AB070BD0021F5
:1013E00000912C4B5A6C42F001025A645A6C02F084
:1013F00001020092009A01911A6B42F010021A63E6
:101400001B6B03F010030193019B4FF420630593C2
:101410000223069301230793099305A91E4801F0AF
:1014200043FDDAE70025029503F50E331A6C42F00E
:1014300001021A641A6C02F001020292029A0395E8
:101440001A6B42F001021A631A6B02F00102039256
:10145000039A04951A6B42F002021A631B6B03F0A5
:1014600002030493049B0124059402260696079424
:10147000099405A9094801F017FD0823059306966C
:1014800007940895099405A9054801F00DFDA4E706
:1014900000000140003802400010024000000240FD
:1014A000000402400268094B9A4200D0704782B0A3
:1014B00000230193064B1A6C42F002021A641B6C63
:1014C00003F002030193019B02B070470004004047
:1014D0000038024000B587B00023019302930393C4
:1014E0000493059302680E4B9A4202D007B05DF850
:1014F00004FB002300930B4B1A6B42F004021A63A7
:101500001B6B03F004030093009B4FF47073019373
:1015100002230293059301A9034801F0C5FCE5E706
:1015200000040040003802400008024030B58BB093
:1015300004460023059306930793089309930368D1
:10154000654A934204D0654A934263D00BB030BDE4
:1015500000250195624B5A6C42F010025A645A6C95
:1015600002F010020192019A02951A6B42F00102F8
:101570001A631B6B03F001030293029B4FF4C063D9
:10158000059302230693032308930723099305A9D0
:10159000544801F089FC5448544B03604FF00063F9
:1015A00043608560C5604FF4806303614561856178
:1015B0004FF48073C3610562456201F08FFA18BB76
:1015C000494BA3639C634A484A4B03604FF0006356
:1015D0004360402383600023C3604FF48062026154
:1015E00043618361C3610362436201F077FA70B9BA
:1015F0003F4B63639C6300220521252001F0A8F97D
:10160000252001F0DDF9A1E7FFF7EAFBD8E7FFF7B6
:10161000E7FBEDE700250395314B1A6C42F40032ED
:101620001A641A6C02F400320392039A04951A6B3E
:1016300042F008021A631B6B03F008030493049B37
:10164000602305930223069303230893072309933A
:1016500005A9294801F028FC2848294B03604FF0D0
:10166000006343608560C5604FF48063036145613A
:1016700085614FF48073C3610562456201F02EFA03
:1016800018BB1E4BA3639C631E481F4B03604FF0A7
:1016900000634360402383600023C3604FF4806293
:1016A000026143618361C3610362436201F016FA20
:1016B00070B9144B63639C6300220521262001F05E
:1016C00047F9262001F07CF940E7FFF789FBD8E7CE
:1016D000FFF786FBEDE700BF00100140004400402B
:1016E00000380240000002406407002040640240CD
:1016F000C4070020B8640240000C02402408002007
:101700008860024084080020A060024010B588B0C4
:10171000014600222D2001F01BF92D2001F050F987
:1017200000240194144B1A6C42F480721A641B6CEE
:1017300003F480730193019B02A903A801F0DAFF6F
:1017400001F0B8FF43000D48A0FB03239B0C013BB5
:101750000B480C4A026040F2E732C2604360046109
:10176000846002F0E5F910B1012008B010BD044812
:1017700002F074F8F9E700BF0038024083DE1B4333
:10178000440A002000200040FEE7FEE7FEE7FEE7F7
:10179000FEE7704708B5024801F098FA08BD00BF9F
:1017A0002408002008B5024801F090FA08BD00BFE7
:1017B0008408002008B5024800F0FFFE08BD00BF05
:1017C000BC06002010B5044C204602F0C5FE2046A1
:1017D00000F08CF910BD00BFBC09002010B5044C0E
:1017E000204602F0B9FE204600F080F910BD00BF8F
:1017F000000A002008B5024802F078F808BD00BFD2
:10180000440A002008B5024801F060FA08BD00BF94
:101810000407002008B5024801F058FA08BD00BFCF
:101820006407002008B5024801F050FA08BD00BF67
:10183000C4070020034AD2F8883043F47003C2F88A
:101840008830704700ED00E00028B8BF4042704784
:101850000346084653F82110904221DA10B400E004
:10186000013A904203DA53F822408C42F8DA4FEA08
:10187000820C53F8224043F8204000E001309042AF
:1018800003DA53F820408C42F8DD53F8204043F847
:101890000C409042E5DB43F820105DF8044B7047A4
:1018A00043F820107047914200DB7047F8B50646B8
:1018B0000D461446FFF7CCFF0746421E2946304628
:1018C000FFF7F1FF2246791C3046FFF7ECFFF8BD29
:1018D00008B54A1E0021FFF7E6FF08BD30B589B004
:1018E0000D46002309E050F8234008AA02EB8302CA
:1018F00042F8204C42F8104C0133032BF3DD042155
:101900006846FFF7E5FFC5F1030508AB03EB850566
:1019100055F8203C40F24C4293420DDD049A93422C
:101920000DD0059A93420CD0069A93420BD0079A99
:1019300093420AD0052000E0052009B030BD012007
:10194000FBE70220F9E70320F7E70420F5E70000B2
:101950002DE9F843D0F80090D0F804804FF47A6174
:10196000A9EB080000F0DCF90446FFF76DFFC8287A
:101970002FDD2046FEF7A8FE1BA3D3E90023FEF7C8
:1019800027FC0022164BFEF753FD04460D46024687
:101990000B4600201349FEF749FD06460F46484610
:1019A000FEF792FE22462B46FEF712FC04460D4639
:1019B0004046FEF789FE32463B46FEF709FC0246EA
:1019C0000B4620462946FEF733FDFEF7E7FEBDE84D
:1019D000F8830026024F34463D46E0E7AFF300802F
:1019E0000000E03F0000F03F2D431CEBE2362A3FB1
:1019F000F8B5044602F0DBFC1B4B1B685A68D2B2F8
:101A0000D243D6B2194F4FF40073324639462046BE
:101A100002F061FC164D324639462846FFF768F859
:101A20002B78322B17D0332B19D0312B0BD00F4DF5
:101A300032460021284603F06FFEFF222946204649
:101A400002F006FFF8BD0B4B01225A6202210A4840
:101A500001F022FBEBE7074B02225A62E7E7054B56
:101A600003225A62E3E700BF64070020900E0020C3
:101A700024150020941400200000024038B50446CC
:101A800002F095FC144B1B685A68D2B2D243D2B212
:101A9000124B93F80434552B0AD0114D00212846DF
:101AA00003F03AFEFF222946204602F0D1FE38BD5F
:101AB0000A4B93F81B34532BEFD10A4D0A4B03CB3F
:101AC000286069602B4633F8061925F8061C198929
:101AD000598059899980E0E724080020900F002060
:101AE00094130020C2140020AC13002010B582B063
:101AF00004460368124A934205D02368114A934270
:101B00000FD002B010BD1A6812F0100FF5D00022ED
:101B100000921A6800925B680093009BFFF768FFD1
:101B2000EBE71A6812F0100FEBD0002201921A684E
:101B300001925B680193019B2046FFF79FFFE0E75E
:101B40000010014000440040024B28229A61024AE2
:101B50001A627047941400207F6ABC3C10B500F0F4
:101B600093FA1F480268D36843F01003D360FF2242
:101B70001C4902F06DFE1C480268D36843F0100354
:101B8000D360FF22194902F063FE0A22184919485E
:101B900000F03CFC184C0021204602F0AFF9042173
:101BA000204602F0ABF9154C0021204602F0A6F9C0
:101BB0000421204602F0A2F9114C0021204602F037
:101BC0001BF90421204602F017F90821204602F0F3
:101BD00013F90C21204602F00FF9FFF7B5FF10BDF5
:101BE000BC090020900E0020000A00209413002061
:101BF000CC140020BC060020E40800202C090020A2
:101C00007409002030B583B0404D0C2400940423A7
:101C10006A6A0021084600F0B7F900940423EA6AD2
:101C20000021202000F0B0F9009404232A6A00214A
:101C3000402000F0A9F9009404236A6B0021602081
:101C400000F0A2F900940423AA6A0A21002000F0FF
:101C50009BF9009404232A6B0A21202000F094F9B8
:101C600000940423EA690A21402000F08DF90094D1
:101C700004236A6E0A21602000F086F90094022392
:101C8000234A12781E21002000F07EF92346214AC3
:101C90002821002000F0C6F9009405232A88282175
:101CA0000E2000F071F904231B4A28212A2000F09D
:101CB000B9F9009405236A882821382000F064F9D6
:101CC0000423164A2821552000F0ACF9009405237E
:101CD000AA882821632000F057F9009404232A6978
:101CE0003221002000F050F9009404236A69322167
:101CF000282000F049F900940423AA6932215020D9
:101D000000F042F900F062F803B030BDBC140020CE
:101D100024150020785900087C59000880590008D3
:101D20000346884200DD0B464842984200DC1846D4
:101D30007047000010B50D4C636AA364636BE364E5
:101D400004F14800FFF704FEA063236BE363A36A7A
:101D50002364E3696364E36A2365236A6365236933
:101D6000A3656369E365A369236610BDBC14002005
:101D7000144BC3F894120023134AC2F8B0320BE09C
:101D8000114A0021C2F8BC120F4A0121C2F8B41254
:101D90008840C0B20B44DBB2072B0AD80A4A0021A4
:101DA000C2F8B41210F0800FEAD00121C2F8BC12C0
:101DB000EAE70123044AC2F8B03202F50042C2F851
:101DC00094327047000041420080404238B50025FF
:101DD0000DE0104B03EBC4030121585DFFF7C8FF72
:101DE0000134E4B214F0800FF3D00135EDB2072DC9
:101DF0000FD8A5F150000021C0B2FFF7B9FF0021B4
:101E00000846FFF7B5FF00211020FFF7B1FF0024BF
:101E1000E8E738BD2416002008B500200BE0094A89
:101E200002EBC302002111540133DBB213F0800F27
:101E3000F5D00130C0B2072801D80023F6E7FFF73C
:101E4000C5FF08BD2416002010F0800F20D13F29C7
:101E50001ED8CB08C3F10703DBB201F00701C1F1C3
:101E600007014FF0010C0CFA01F15FFA81FC42B15D
:101E7000084A02EBC000C25C4CEA020C00F803C046
:101E80007047044A02EBC000C25C22EA0101C1545F
:101E9000704700BF241600202DE9F04F83B0804624
:101EA00089461F469DF830B013F0070318BF012381
:101EB00003EBD703790811FB03F3DBB20093203A5D
:101EC000D3B201934C464FF0000A34E0019B03EB80
:101ED0004303244A02EB830313F80A503CE0224BED
:101EE000019A03EB021313F80A5035E0BBFA8BF2A8
:101EF000520921464046FFF7A7FF6D00EDB20134BD
:101F0000E4B2A4EB0903BB420CD00136F6B2072EB3
:101F10000DD815F0800FE9D05A4621464046FFF70C
:101F200093FFEAE708F101085FFA88F84C460AF1E6
:101F3000010A5FFA8AFA009B9A450FD20C2FC5D08E
:101F4000102FCCD0182F09D1019B03EBC303074AF4
:101F500002EB830313F80A500026D8E703B0BDE86C
:101F6000F08F00BF84590008F85D0008E86300089E
:101F70000246012002E002FB00F019464B1EDBB2D4
:101F80000029F8D1704700002DE9F04782B0824661
:101F9000894690461D469DF8286000273C461DE076
:101FA000700810FB04F05AFA80F0012300933346C6
:101FB00020224946C0B2FFF76FFF0DE0700810FB0A
:101FC00004F030325AFA80F0012300933346D2B243
:101FD0004946C0B2FFF760FF0134E4B2AC421CD204
:101FE000291BC9B20139C9B20A20FFF7C1FFB8FBEA
:101FF000F0F00B4AA2FB003C4FEADC0C0CEB8C0C23
:10200000A0EB4C0C5FFA8CF2002FD7D16B1E9C42D8
:10201000D4DA002AC4D00127D0E702B0BDE8F087A7
:10202000CDCCCCCC2DE9F04182B004460D46904693
:102030001F460EE0C7F140039D421CDC01230093C4
:102040003B4618F8012B29462046FFF725FF34446C
:10205000E4B298F800C0ACF1200C5FFA8CFCBCF143
:102060005E0F0DD87E08C6F180039C42E2DD3D4440
:10207000EDB20024DEE7FFF7CFFE00252C46DDE7BA
:1020800002B0BDE8F08100002DE9F04188B00024E5
:10209000039404940594069407940194534B1A6B8B
:1020A00042F002021A631A6B02F002020192019AD4
:1020B00002941A6B42F004021A631B6B03F00403D0
:1020C0000293029B4FF470430393012504950595F9
:1020D0000227069703A9464800F0E6FE4FF02008C5
:1020E000CDF80C8004950595069703A9414800F0AA
:1020F000DBFE414EC6F8BC52C6F8B452C6F8B05228
:102100003E4BC3F89452C6F8B842642000F0A4F8DD
:10211000C6F8B852642000F09FF82146AE20FFF7C1
:1021200027FE2146D520FFF723FE21465020FFF74A
:102130001FFE2146A820FFF71BFE21463F20FFF788
:1021400017FE2146D320FFF713FE21462046FFF756
:102150000FFE21464020FFF70BFE21468D20FFF7A2
:1021600007FE21461420FFF703FE21464046FFF7F5
:10217000FFFD21463846FFF7FBFD2146A120FFF772
:10218000F7FD2146C020FFF7F3FD2146DA20FFF7D7
:10219000EFFD21461220FFF7EBFD21468120FFF7DE
:1021A000E7FD2146EF20FFF7E3FD2146D920FFF7A9
:1021B000DFFD2146F120FFF7DBFD2146DB20FFF7A5
:1021C000D7FD21463020FFF7D3FD2146A420FFF79D
:1021D000CFFD2146A620FFF7CBFD2146AF20FFF71C
:1021E000C7FDFFF719FE08B0BDE8F08100380240D6
:1021F00000040240000802400080404200004142CA
:1022000008B50B4B1A6842F400721A601A6842F45F
:1022100080621A601A6842F480721A60032000F02B
:1022200085FB0020FFF772FAFFF722F8002008BDB7
:10223000003C0240034A1168034B1B780B441360B7
:10224000704700BF241A002004000020014B1868CA
:10225000704700BF241A002038B50446FFF7F6FF88
:102260000546B4F1FF3F02D0044B1B781C44FFF736
:10227000EDFF401BA042FAD338BD00BF0400002090
:102280004A4B5A6822F440325A605A6841680A43FD
:102290005A600268536823F480735360026853687D
:1022A000016943EA012353600268536823F04073D5
:1022B00053600268536881680B43536002689368F7
:1022C00023F40063936002689368C1680B439360D2
:1022D000826A374B9A4257D00268936823F0706342
:1022E000936002689368816A0B4393600268936805
:1022F00023F04053936002689368C16A0B43936074
:102300000268936823F00203936002689368017E79
:1023100043EA4103936090F82030002B3FD00268DD
:10232000536843F4006353600268536823F46043C6
:10233000536001684B68426A013A43EA42334B609A
:102340000268D36A23F47003D3620168CB6AC2695E
:10235000013A43EA0253CB620268936823F40073A4
:1023600093600268936890F8301043EA41239360C9
:102370000268936823F480639360026893684169FC
:1023800043EA8123936070470268936823F0706387
:1023900093600268936823F040539360B0E702684B
:1023A000536823F400635360CAE700BF0023014071
:1023B0000100000F38B310B50446036C43B1236C21
:1023C00013F0100F0BD00120002384F83C3010BD17
:1023D000FEF770FF0023636484F83C30EFE7236C62
:1023E00023F4885323F0020343F0020323642046BE
:1023F000FFF746FF00206064236C23F0030343F0E3
:1024000001032364E0E701207047000010B582B0AB
:1024100013460022019290F83C20012A00F0AE8081
:102420000446012280F83C200268906810F0010FF9
:1024300013D1906840F001009060534A1068534AED
:10244000A2FB0020800C00EB4000019002E001980C
:102450000138019001980028F9D12268906810F4A1
:10246000807F03D0906820F480709060226890682C
:1024700010F0010F77D0206C20F4E06020F0010014
:1024800040F480702064526812F4806F05D0226C92
:1024900022F4405242F480522264226C12F4805F93
:1024A00036D0626C22F006026264002284F83C207E
:1024B000A26B3748D063A26B36481064A26B3648D3
:1024C000D06422686FF0220010602068426842F0F9
:1024D000806242602068826842F480728260206874
:1024E0000A4600F14C01A06B00F05EFB2B4B5B68D1
:1024F00013F01F0F27D12368294A934211D002F508
:102500008072934207D0274A934214D0002033E0D0
:1025100000226264C9E702F50072526812F01F0FD0
:10252000F1D19A6812F0405F2AD19A6842F0804255
:102530009A60002020E002F58072526812F0100FBD
:10254000EFD0002018E02368154A934201D0002004
:1025500012E09A6812F0405F14D19A6842F080420B
:102560009A60002008E0236C43F010032364636C3E
:1025700043F001036364002002B010BD0220FBE7BA
:102580000020F9E70020F7E70000002083DE1B436E
:102590001F270008AD250008092700080023014077
:1025A00000200140002201407047704708B5806B51
:1025B000FFF7FBFF08BD7047704738B50446026857
:1025C0001168536811F0020F2FD003F0200363B39A
:1025D000036C13F0100F03D1036C43F40073036416
:1025E000936813F0405F19D1237EBBB9D36A13F40B
:1025F000700F03D0936813F4806F0FD1536823F0EA
:1026000020035360236C23F480732364236C13F43E
:10261000805F03D1236C43F0010323642046FFF75E
:10262000C3FF23686FF012021A60236819685A68A2
:1026300002F0800211F0040F36D0002A34D0226C50
:1026400012F0100F03D1226C42F4005222649A68F7
:1026500012F4401F21D19A6B12F4401F03D09A68E4
:1026600012F4806F19D15A6812F4806F15D19A68EC
:1026700012F0405F11D1227E7AB95A6822F08002AE
:102680005A60236C23F480532364236C13F4807FFB
:1026900003D1236C43F001032364204600F044F986
:1026A00023686FF00C021A6022681168536803F007
:1026B000400311F0010F04D01BB1136813F0010F98
:1026C00009D122681168536803F0806311F0200F6C
:1026D00000D063B938BD236C43F4803323642046B3
:1026E000FFF769FF23686FF001021A60E9E7636C86
:1026F00043F0020363646FF0200515602046FFF786
:102700005BFF23681D60E5E708B5806B4023036429
:10271000436C43F004034364FFF74EFF08BD08B564
:102720000346806B026C12F0500F25D1036C43F40A
:102730000073036403689A6812F0405F19D1027E47
:10274000BAB9DA6A12F4700F03D09A6812F4806F83
:102750000FD15A6822F020025A60036C23F4807370
:102760000364036C13F4805F03D1036C43F0010333
:102770000364FFF719FF08BD026C12F0100F04D1BB
:10278000826BD26C18469047F5E7FFF715FFF2E72A
:1027900030B482B00023019390F83C30012B00F05C
:1027A000BB80012380F83C300B68092B41D90468B9
:1027B000E2689BB203EB43031E3B4FF0070C0CFA9D
:1027C00003F322EA0303E3600468E2680B8803EB87
:1027D00043031E3B8D6805FA03F31343E3604B6824
:1027E000062B3DD80468626B03EB8303053B4FF077
:1027F0001F0C0CFA03F322EA030363630468626BA1
:102800004B6803EB8303053BB1F800C00CFA03F3FC
:10281000134363630268414B9A4251D002683F4BB5
:102820009A4256D0002380F83C30184602B030BCA3
:102830007047046822699BB203EB43034FF0070C17
:102840000CFA03F322EA03032361046822690B886C
:1028500003EB43038D6805FA03F313432361BEE7DB
:102860000C2B16D805682A6B03EB8303233B1F242C
:1028700004FA03F322EA03032B6305682A6B4B680F
:1028800003EB8303233B0C8804FA03F313432B630A
:10289000C0E70568EA6A03EB8303413B1F2404FA9F
:1028A00003F322EA0303EB620568EA6A4B6803EB71
:1028B0008303413B0C8804FA03F31343EB62A9E75B
:1028C0000B68122BAAD1164A536843F48003536055
:1028D000A4E70B68103B012BA4D8114A536843F4BA
:1028E000000353600B68102B9CD10E4B1B6802F148
:1028F000467202F52E3202F28332A2FB03239B0CB6
:1029000003EB83035B00019302E0019B013B019316
:10291000019B002BF9D185E7022087E700200140C9
:10292000002301400000002070470000074AD368E0
:1029300023F4E0631B041B0C000200F4E06003437B
:1029400043F0BF6343F40033D360704700ED00E011
:1029500000B5194BDB68C3F30223C3F1070CBCF1CC
:10296000040F28BF4FF0040C03F1040EBEF1060F54
:1029700018D9033B4FF0FF3E0EFA0CFC21EA0C0184
:1029800099400EFA03F322EA0303194300280BDBF4
:102990000901C9B200F1604000F5614080F8001300
:1029A0005DF804FB0023E5E700F00F000901C9B260
:1029B000024B1954F4E700BF00ED00E014ED00E015
:1029C000002807DB00F01F02400901239340024A60
:1029D00042F82030704700BF00E100E030B40568E5
:1029E0002C6824F480242C60046863608368402B86
:1029F00005D0036899600368DA6030BC70470368EB
:102A00009A600368D960F8E710B40368D9B2103946
:102A10000C4AA2FB014212090B4CA25CC2655F2961
:102A200009D923F47F7323F0030304338365806D96
:102A30005DF8044B704723F47F7323F00303836531
:102A4000F5E700BFABAAAAAA44710008836A8269AD
:102A500092B9012B0AD0022B02D00BB10020704793
:102A6000C36A13F0807F28D100207047C36AB3F196
:102A7000C07F24D000207047B2F5005F09D0022B40
:102A800025D9032B25D1C36A13F0807F23D10020E1
:102A90007047032B03D8DFE803F01404140A002066
:102AA0007047C36A13F0807F0DD100207047C36A5E
:102AB000B3F1C07F09D0002070470120704701208A
:102AC00070470120704701207047012070470120A6
:102AD00070470020704701207047000070B5044621
:102AE000FFF7B4FB002C5BD00546002384F834309C
:102AF000022384F835302268136823F00103136041
:102B000023681A6812F0010F0AD0FFF79FFB431BDE
:102B1000052BF5D920236365032084F8350070BDAB
:102B20001A68204810406168A2680A43E1680A43B5
:102B300021690A4361690A43A1690A43E1690A43B9
:102B4000216A0A430243616A04291ED01A6026687A
:102B5000756925F00705636A1D43042B07D1A36A35
:102B60001D43E36A1BB12046FFF770FF90B9756102
:102B70002046FFF749FFE26D3F239340836000202A
:102B80006065012384F83530C9E7E16A206B0143B1
:102B90000A43DBE740236365012084F83500BEE784
:102BA0000120BCE73F8010F038B50446856D90F8F1
:102BB000340001282BD0012084F8340094F835002B
:102BC000C0B2012804D0002384F83430022038BD7C
:102BD000022084F83500002060652046FFF7FEFEE5
:102BE000E26D3F239340AB602268136843F0160305
:102BF0001360236C23B12268136843F00803136049
:102C00002268136843F0010313600020DFE702200D
:102C1000DDE770B50446866DFFF718FB94F8353094
:102C2000DBB2022B06D080236365002384F83430A6
:102C3000012070BD05462268136823F01603136057
:102C40002268536923F080035361236CE3B1226847
:102C5000136823F0080313602268136823F001034C
:102C6000136023681B6813F0010F11D0FFF7EEFA11
:102C7000431B052BF5D920236365002384F83430EA
:102C8000032084F83500D4E7A36C002BDFD1E3E701
:102C9000E26D3F239340B360002084F834000123A9
:102CA00084F83530C5E790F83530DBB2022B03D01D
:102CB0008023436501207047052380F83530026882
:102CC000136823F00103136000207047F0B583B050
:102CD000044600230193724B1D68724BA3FB05351C
:102CE000AD0A876D3E68C26D08239340334210D011
:102CF00003681A6812F0040F0BD01A6822F004025D
:102D00001A60C26D08239340BB60436D43F001031A
:102D10004365E26D01239340334209D02268526932
:102D200012F0800F04D0BB60636D43F00203636553
:102D3000E26D04239340334209D02268126812F0F6
:102D4000020F04D0BB60636D43F004036365E26D62
:102D500010239340334224D02268126812F0080FE7
:102D60001FD0BB6023681A6812F4802F0DD01B6837
:102D700013F4002F04D1236C9BB12046984710E038
:102D8000A36C73B1204698470BE01A6812F4807F59
:102D900003D11A6822F008021A60236C0BB1204696
:102DA0009847E26D20239340334255D02268126841
:102DB00012F0100F50D0BB6094F83530DBB2052B09
:102DC0000ED023681A6812F4802F33D01B6813F4D6
:102DD000002F2AD1636C002B3ED0204698473BE061
:102DE0002268136823F0160313602268536923F0E6
:102DF00080035361236CA3B12268136823F0080396
:102E00001360E26D3F239340BB60002384F83430AD
:102E1000012384F83530236D002B3FD0204698479E
:102E20003CE0A36C002BE7D1EBE7E36BA3B12046BA
:102E3000984711E01A6812F4807F09D11A6822F0CD
:102E400010021A60002384F83430012384F83530EE
:102E5000E36B0BB120469847636DFBB1636D13F0D4
:102E6000010F17D0052384F835302268136823F04A
:102E700001031360019B01330193AB4204D8236823
:102E80001B6813F0010FF5D1002384F834300123BF
:102E900084F83530E36C0BB12046984703B0F0BDA1
:102EA00000000020B5814E1B00230F2B00F2E480B0
:102EB00070B582B060E085685E000324B44025EA06
:102EC0000405CC68B4402C438460456825EA0205BB
:102ED0004C68C4F300129A402A4342605AE0DC086E
:102EE000083450F8246003F0070295000F22AA402E
:102EF00026EA020E0A69AA4042EA0E0240F824209D
:102F00005CE0072200E0002202FA0EF22A430234BB
:102F10005A4D45F824205A4A14686FEA0C0224EAF4
:102F20000C054E6816F4803F01D04CEA0405544C61
:102F30002560646802EA04054E6816F4003F01D07B
:102F40004CEA04054E4C6560A46802EA04054E682C
:102F500016F4801F01D04CEA0405494CA560E468D2
:102F600022404D6815F4001F01D04CEA0402444C85
:102F7000E26001330F2B7DD801229A400C6804EAED
:102F8000020C32EA0404F4D14C6804F00304013C5E
:102F9000012C90D94A6802F00302032A09D0C468C0
:102FA0005D000322AA4024EA02048A68AA40224360
:102FB000C2604A6802F00302022A90D004684FEA15
:102FC000430E032202FA0EF224EA02044A6802F0D7
:102FD000030202FA0EF2224302604A6812F0805F96
:102FE000C7D000220192274A546C44F480445464B0
:102FF000526C02F480420192019A9C08A51C1F4A5F
:1030000052F8255003F003024FEA820E0F2202FA13
:103010000EF225EA02051C4A90423FF474AF02F515
:10302000806290421AD002F58062904218D002F578
:103030008062904216D002F58062904214D002F570
:103040008062904212D002F58062904210D002F568
:10305000806290423FF455AF082255E7012253E7C2
:10306000022251E703224FE704224DE705224BE7F6
:10307000062249E702B070BD704700BF003801402A
:10308000003C014000380240000002400AB181616A
:103090007047090481617047436901EA030221EA2C
:1030A000030141EA0241816170470000002800F0FD
:1030B000E08170B582B00446036813F0010F3BD085
:1030C0009F4B9B6803F00C03042B2CD09C4B9B68FC
:1030D00003F00C03082B21D06368B3F5803F4FD079
:1030E000B3F5A02F52D0964B1A6822F480321A60A2
:1030F0001A6822F480221A606368002B50D0FFF710
:10310000A5F805468E4B1B6813F4003F14D1FFF75A
:103110009DF8401B6428F5D90320B1E1884B5B681A
:1031200013F4800FD8D0864B1B6813F4003F03D0F4
:103130006368002B00F09F81236813F0020F54D0C6
:103140007F4B9B6813F00C0F3ED07D4B9B6803F0C8
:103150000C03082B33D0E368002B68D0794B012295
:103160001A60FFF773F80546754B1B6813F0020FE2
:1031700054D1FFF76BF8401B0228F5D903207FE1FB
:103180006F4A136843F480331360B5E76C4B1A68D9
:1031900042F480221A601A6842F480321A60ABE767
:1031A000FFF754F80546664B1B6813F4003FC3D085
:1031B000FFF74CF8401B6428F5D9032060E1604B11
:1031C0005B6813F4800FC6D15D4B1B6813F0020FD0
:1031D00003D0E368012B40F05081594A136823F073
:1031E000F803216943EAC1031360236813F0080F51
:1031F00042D063696BB3534B0122C3F8802EFFF7B3
:1032000025F805464E4B5B6F13F0020F34D1FFF7E4
:103210001DF8401B0228F5D9032031E1484A136804
:1032200023F0F803216943EAC1031360DDE7454B4E
:1032300000221A60FFF70AF80546414B1B6813F09D
:10324000020FD2D0FFF702F8401B0228F5D9032065
:1032500016E13C4B0022C3F8802EFEF7F7FF05462F
:10326000374B5B6F13F0020F06D0FEF7EFFF401BEA
:103270000228F5D9032003E1236813F0040F77D067
:103280002F4B1B6C13F0805F33D1002301932C4B29
:103290001A6C42F080521A641B6C03F08053019345
:1032A000019B0125284B1B6813F4807F23D0A36862
:1032B000012B34D0052B38D0214B1A6F22F001029C
:1032C0001A671A6F22F004021A67A368002B3DD018
:1032D000FEF7BCFF06461A4B1B6F13F0020F46D1D8
:1032E000FEF7B4FF801B41F288339842F3D90320E4
:1032F000C6E00025D6E7144A136843F480731360D0
:10330000FEF7A4FF0646104B1B6813F4807FCED156
:10331000FEF79CFF801B0228F5D90320B0E0084A85
:10332000136F43F001031367CFE7054B1A6F42F0A9
:1033300004021A671A6F42F001021A67C5E700BF5C
:10334000003802400000474200700040FEF77EFF58
:103350000646524B1B6F13F0020F08D0FEF776FFA4
:10336000801B41F288339842F3D9032088E0EDB9FD
:10337000A369002B00F08380484A926802F00C0297
:10338000082A51D0022B17D0454B00221A66FEF7AF
:103390005DFF0446414B1B6813F0007F42D0FEF7EF
:1033A00055FF001B0228F5D9032069E03B4A136C46
:1033B00023F080531364DBE7394B00221A66FEF7D3
:1033C00045FF0546354B1B6813F0007F06D0FEF71E
:1033D0003DFF401B0228F5D9032051E0E369226A32
:1033E0001343626A43EA8213A26A5208013A43EA2B
:1033F0000243E26A43EA0263284A5360284B0122EF
:103400001A66FEF723FF0446244B1B6813F0007F67
:1034100006D1FEF71BFF001B0228F5D903202FE081
:1034200000202DE000202BE0012B2BD01B4B5B68F4
:1034300003F48001E269914226D103F03F02216A40
:103440008A4223D1616A47F6C0721A40B2EB811FEB
:103450001ED103F44031A26A5208013AB1EB024F87
:1034600018D103F07063E26AB3EB026F14D100204D
:1034700006E001207047012002E0012000E000206A
:1034800002B070BD0120FBE70120F9E70120F7E75A
:103490000120F5E70120F3E70120F1E700380240C1
:1034A0000000474208B5254B9B6803F00C03042B32
:1034B0003FD0082B3FD1214B5A6802F03F025B6896
:1034C00013F4800F12D01D4B5968C1F388111C48AA
:1034D0000023A1FB0001FDF789F9184B5B68C3F3DA
:1034E000014301335B00B0FBF3F025E0134B596857
:1034F000C1F3881C4FEA4C11B1EB0C006EEB0E0EC1
:103500004FEA8E1343EA90638101091A63EB0E03BD
:10351000DB0043EA5173C90011EB0C0C43F10003CB
:10352000990200234FEA8C2041EA9C51FDF75EF995
:10353000D3E7034800E0034808BD00BF003802405D
:1035400040787D010024F400002800F09B8070B5D5
:103550000D4604464F4B1B6803F007038B4208D20D
:10356000CBB24C4A1370136803F007038B4240F050
:103570008B80236813F0020F17D013F0040F04D0D0
:10358000454A936843F4E0539360236813F0080FAF
:1035900004D0414A936843F4604393603E4A936881
:1035A00023F0F003A1680B439360236813F0010F2D
:1035B00032D06368012B21D09A1E012A25D9364AC0
:1035C000126812F0020F61D033498A6822F00302B8
:1035D00013438B60FEF73AFE06462F4B9B6803F0C1
:1035E0000C036268B3EB820F16D0FEF72FFE801B30
:1035F00041F288339842F0D9032042E0264A12680B
:1036000012F4003FE0D101203BE0234A126812F09F
:10361000007FD9D1012034E01E4B1B6803F0070363
:10362000AB4207D9EAB21B4B1A701B6803F00703C1
:10363000AB422DD1236813F0040F06D0164A9368CD
:1036400023F4E053E1680B439360236813F0080F01
:1036500007D0114A936823F46043216943EAC10308
:103660009360FFF71FFF0C4B9B68C3F303130B4AD8
:10367000D35CD8400A4B18600A4B1868FEF746F82E
:10368000002070BD012070470120FAE70120F8E713
:103690000120F6E7003C0240003802406059000873
:1036A0000000002008000020014B1868704700BF90
:1036B0000000002008B5FFF7F7FF044B9B68C3F339
:1036C0008223034AD35CD84008BD00BF00380240C3
:1036D0007059000808B5FFF7E7FF044B9B68C3F378
:1036E0004233034AD35CD84008BD00BF00380240D3
:1036F000705900080F2303600B4B9A6802F0030215
:1037000042609A6802F0F00282609A6802F4E05225
:10371000C2609B68DB0803F4E0530361034B1B6842
:1037200003F007030B60704700380240003C024082
:1037300030B4036A23F001030362036A42688469B8
:1037400024F073040D682C4323F0020C8B6843EAC9
:103750000C03104DA84203D005F58065A84205D1A1
:1037600023F00803CD682B4323F00403094DA8423E
:1037700003D005F58065A84205D122F440724D6959
:103780002A438D692A43426084614A684263036226
:1037900030BC70470000014030B4036A23F48073EA
:1037A0000362036A4268C46924F0730C0C6844EA3B
:1037B0000C0523F400738C6843EA0423114CA042E7
:1037C00003D004F58064A04206D123F40063CC68E2
:1037D00043EA042323F480630A4CA04203D004F597
:1037E0008064A04207D122F440524C6942EA04129C
:1037F0008C6942EA04124260C5614A68C26303628E
:1038000030BC70470000014030B4036A23F4805399
:103810000362036A4468C26922F4E6420D6842EA20
:10382000052223F400538D6843EA0533094DA8426D
:1038300003D005F58065A84204D124F480444D6985
:1038400044EA85144460C2614A680264036230BC81
:10385000704700BF000001407047000090F83D3005
:10386000DBB2012B37D1022380F83D300268D368E8
:1038700043F00103D3600368194A934220D0B3F1A7
:10388000804F1DD0A2F57C42934219D002F5806290
:10389000934215D002F58062934211D002F578422E
:1038A00093420DD002F57052934209D0A2F59432A2
:1038B000934205D01A6842F001021A600020704756
:1038C0009A6802F00702062A07D01A6842F001023D
:1038D0001A6000207047012070470020704700BF29
:1038E00000000140704770477047704710B50446AC
:1038F00003681A6912F0020F11D0DA6812F0020F91
:103900000DD06FF002021A610123037703689B69EF
:1039100013F0030F70D0FFF7E6FF0023237723682F
:103920001A6912F0040F12D0DA6812F0040F0ED0E8
:103930006FF004021A610223237723689B6913F452
:10394000407F5FD02046FFF7CEFF00232377236818
:103950001A6912F0080F12D0DA6812F0080F0ED0B0
:103960006FF008021A61042323772368DB6913F0E0
:10397000030F4ED02046FFF7B6FF002323772368BE
:103980001A6912F0100F12D0DA6812F0100F0ED070
:103990006FF010021A61082323772368DB6913F4A0
:1039A000407F3DD02046FFF79EFF0023237723680A
:1039B0001A6912F0010F03D0DA6812F0010F36D144
:1039C00023681A6912F0800F03D0DA6812F0800FB2
:1039D00034D123681A6912F0400F03D0DA6812F06C
:1039E000400F32D123681A6912F0200F03D0DA6831
:1039F00012F0200F30D110BDFFF774FF2046FFF703
:103A000073FF8AE72046FFF76DFF2046FFF76CFF44
:103A10009BE72046FFF766FF2046FFF765FFACE710
:103A20002046FFF75FFF2046FFF75EFFBDE76FF020
:103A300001021A612046FDF7C7F9C1E76FF0800265
:103A40001A61204600F007FBC3E76FF040021A61DD
:103A50002046FFF74AFFC5E76FF020021A612046B3
:103A600000F0F8FAC7E700000368304A904212D02D
:103A7000B0F1804F0FD0A2F57C4290420BD002F5FE
:103A80008062904207D002F58062904203D002F536
:103A90007842904203D123F070034A681343234ACB
:103AA00090422AD0B0F1804F27D0A2F57C429042BC
:103AB00023D002F5806290421FD002F580629042CE
:103AC0001BD002F57842904217D002F57052904216
:103AD00013D002F5806290420FD002F580629042CE
:103AE0000BD0A2F59832904207D002F58062904246
:103AF00003D002F58062904203D123F44073CA6878
:103B0000134323F080034A69134303608B68C36245
:103B10000B688362054B984203D003F5806398429B
:103B200001D10B6903630123436170470000014029
:103B300040B310B5044690F83D30F3B1022384F849
:103B40003D30214651F8040BFFF78EFF012384F826
:103B5000463084F83E3084F83F3084F8403084F8B2
:103B6000413084F8423084F8433084F8443084F89B
:103B7000453084F83D30002010BD80F83C30FFF720
:103B80006BFEDBE70120704740B310B5044690F8A8
:103B90003D30F3B1022384F83D30214651F8040B47
:103BA000FFF762FF012384F8463084F83E3084F842
:103BB0003F3084F8403084F8413084F8423084F853
:103BC000433084F8443084F8453084F83D30002098
:103BD00010BD80F83C30FDF765FCDBE70120704745
:103BE000002856D0F8B50D46044690F83D30002B1D
:103BF0004AD0022384F83D302268936823F480433E
:103C000023F007039360214651F8040BFFF72CFFC4
:103C100021688A688B690E6A2868104323F4407C07
:103C20002CF0030CAA68AB6942EA032343EA0C03B5
:103C300023F47C4323F0FC03EA69EF6847EA022C93
:103C40004CEA030C2A6A13032A6943EA021343EA83
:103C50000C0326F0AA066A686D6942EA051232432F
:103C6000886021688B6123681A62012384F84630DA
:103C700084F83E3084F83F3084F8423084F8433092
:103C800084F83D300020F8BD80F83C30FDF796FB0D
:103C9000AFE701207047000030B4036A23F010033F
:103CA0000362036A4468826922F4E6420D6842EACC
:103CB000052223F020038D6843EA0513114DA84225
:103CC00003D005F58065A84206D123F08003CD68B6
:103CD00043EA051323F040030A4DA84203D005F53B
:103CE0008065A84207D124F440644D6944EA850404
:103CF0008D6944EA8504446082614A688263036294
:103D000030BC70470000014038B590F83C30012BC2
:103D100060D004460D46012380F83C300C2A1AD8A6
:103D2000DFE802F0071919191D19191931191919A4
:103D300044000068FFF7FCFC2268936943F0080325
:103D400093612268936923F0040393612268936965
:103D500029690B439361002084F83C0038BD00685A
:103D6000FFF79AFF2268936943F400639361226826
:103D7000936923F48063936122689369296943EA14
:103D800001239361E7E70068FFF706FD2268D36926
:103D900043F00803D3612268D36923F00403D3619D
:103DA0002268D36929690B43D361D4E70068FFF720
:103DB0002BFD2268D36943F40063D3612268D36981
:103DC00023F48063D3612268D369296943EA01231C
:103DD000D361C0E70220C1E701F01F01012303FA0C
:103DE00001FC036A23EA0C030362036A02FA01F18D
:103DF0000B4303627047000010B5044608460029D3
:103E000042D194F83E30DBB2013B18BF0123002BB6
:103E10006ED1002851D1022384F83E3001220146A0
:103E20002068FFF7D9FF2368334A934203D002F595
:103E30008062934203D15A6C42F400425A64236870
:103E40002D4A934249D0B3F1804F46D0A2F57C422F
:103E5000934242D002F5806293423ED002F58062E6
:103E600093423AD002F57842934236D002F570522E
:103E7000934232D0A2F5943293422ED01A6842F087
:103E800001021A60002032E0042908D008290DD070
:103E900094F84130DBB2013B18BF0123B7E794F837
:103EA0003F30DBB2013B18BF0123B0E794F840304C
:103EB000DBB2013B18BF0123A9E7042805D008287D
:103EC00007D0022384F84130A8E7022384F83F306A
:103ED000A4E7022384F84030A0E79A6802F00702C2
:103EE000062A07D01A6842F001021A60002010BDAD
:103EF0000120FCE70020FAE70000014038B5044645
:103F000090F83E00C0B294F83F3094F84220D2B20C
:103F100094F843C00D46B1B9012849D1012A48D1CE
:103F2000022384F83E3084F842307DB3042D39D02A
:103F3000012200212068FFF74FFF012204212068A1
:103F4000FFF74AFF27E0DBB25FFA8CFC042912D0AE
:103F5000012833D1012B2CD1012A31D1BCF1010F21
:103F600030D1022384F83E3084F83F3084F8423068
:103F700084F84330D9E7012B1CD1BCF1010F1BD1D0
:103F8000022384F83F3084F84330CEE70122002139
:103F90002068FFF721FF2268136843F001031360D4
:103FA000002006E0012204212068FFF715FFF2E758
:103FB000012038BD0120FCE71846FAE70120F8E7A8
:103FC0001846F6E71046F4E790F83C30012B3DD058
:103FD00010B4012380F83C30022380F83D300368A0
:103FE0005A689C6822F0700C0A6842EA0C025A6017
:103FF0000368174A93421AD0B3F1804F17D0A2F545
:104000007C42934213D002F5806293420FD002F5B6
:10401000806293420BD002F57842934207D002F5BA
:104020007052934203D0A2F59432934204D124F00B
:1040300080044A6814439C60012380F83D300023CB
:1040400080F83C3018465DF8044B704702207047FA
:1040500000000140704770470268D36823F0C00336
:10406000D360202380F83D3070470268D36823F482
:104070009073D3600268536923F001035361036BAB
:10408000012B05D0202380F83E30002303637047C6
:104090000268D36823F01003D360F3E790F83D3053
:1040A000DBB2212B01D0022070478368B3F5805F1B
:1040B00017D0036A5A1C02621A7803685A60C38CCC
:1040C0009BB2013B9BB2C3844BB90268D36823F017
:1040D0008003D3600268D36843F04003D3600020BC
:1040E00070470369002BE4D1036A1B880268C3F39D
:1040F00008035360036A02330362E0E738B50446FD
:104100000268136923F44053C1680B431361836849
:104110000269134342691343C2691A430168CB68B9
:1041200023F4164323F00C031343CB600268536956
:1041300023F4407381690B4353610368314A93420E
:1041400006D002F58062934202D0FFF7B3FA01E095
:10415000FFF7C0FAE369B3F5004F29D00021031837
:1041600049411B1841F10001C90041EA5371DB00CC
:10417000181863684FEA83024FEA937341F1000114
:10418000FCF734FB204DA5FB00325109642303FBEF
:1041900011031B013233A5FB03235B0903F0F0027B
:1041A00002EB011203F00F03216813448B6038BD4A
:1041B0000023021843EB0301121841F10001C9006A
:1041C00041EA5271D200101841F100016268921860
:1041D0005B41FCF70BFB0C4DA5FB0032510964233E
:1041E00003FB1103DB003233A5FB03235B095A00F9
:1041F00002F4F87202EB011203F007032168134482
:104200008B60D4E7001001401F85EB512DE9F84386
:1042100005460F4616469946DDF820802C6824682E
:1042200037EA04030CBF4FF0010C4FF0000CB4450B
:104230001FD1B8F1FF3FF1D0B8F1000F05D0FEF764
:1042400005F8A0EB09004045E8D92A68D36823F4B3
:10425000D073D3602A68536923F00103536120238C
:1042600085F83D3085F83E30002385F83C3003204A
:1042700000E00020BDE8F88358B310B5044690F87C
:104280003D300BB3242384F83D302268D36823F4F7
:104290000053D3602046FFF731FF2268136923F4EF
:1042A000904313612268536923F02A035361226803
:1042B000D36843F40053D36000202064202384F8A3
:1042C0003D3084F83E3010BD80F83C30FDF72EF9CB
:1042D000D8E7012070472DE9F04182B01E4690F8E2
:1042E0003D30DBB2202B54D104460D4690460029C8
:1042F00053D0002A53D090F83C30012B51D00123E9
:1043000080F83C3000230364212380F83D30FDF722
:104310009DFF0746A4F82480A4F82680A368B3F57F
:10432000805F05D04FF00008002384F83C3012E095
:10433000236913B14FF00008F6E7A8460025F3E71C
:1043400038F8023B2268C3F308035360E28C92B250
:10435000013A92B2E284E38C9BB273B100963B4681
:10436000002280212046FFF751FFE0B9002DE7D061
:1043700015F8012B23685A60E8E700963B460022B7
:1043800040212046FFF742FF78B9202384F83D30D2
:1043900000E0022002B0BDE8F0810120FAE7012030
:1043A000F8E70220F6E70320F4E70320F2E710B570
:1043B000044601684A6990F83D30DBB2212B0AD0EF
:1043C00021684A6902F0400294F83E30DBB2222BA9
:1043D00011D0002010BD02F08002002AF0D04B69FD
:1043E00023F080034B61406B08B1FEF712FC2046BE
:1043F000FFF732FEE4E7002AEBD04B6923F04003DD
:104400004B61A06B08B1FEF704FC2046FFF72DFEC0
:10441000DFE7704708B50168CA6822F04002CA6049
:10442000202280F83D20FFF7F4FF002008BD7047F0
:104430007047704710B5846B23685A6994F83D3013
:10444000DBB2212B10D023685A6902F0400294F8A5
:104450003E30DBB2222B11D0236C43F010032364D7
:104460002046FFF7E6FF10BD02F08002002AEAD0E6
:104470000023E3842046FFF7EFFDE4E7002AEBD0BA
:104480000023E3852046FFF7F0FDE5E708B5806BE4
:104490000023C385C384FFF7CCFF08BD704790F8A5
:1044A0003E30DBB2222B53D110B504468368B3F5FE
:1044B000805F30D0A26AB3F5805F04D0002B37D183
:1044C0002369002B34D123685B681370A36A01331E
:1044D000A362E38D9BB2013B9BB2E385002B39D1F4
:1044E0002268D36823F02003D3602268D36823F4C2
:1044F0008073D3602268536923F001035361202342
:1045000084F83E30236B012B18D02046FFF78FFF35
:104510000020206310BD0269002ACBD1826A0368A3
:104520005B68C3F308031380836A02338362D0E7B6
:1045300023685B6803F07F031370C7E72268D368C2
:1045400023F01003D360A18D2046FFF7A7FFDFE71C
:10455000022070470020DDE730B583B004460268D2
:104560001368D068516913F00F0505D113F0200FBF
:1045700002D010F0200F19D12DB111F0010119D185
:1045800010F4907F16D1216B012975D013F0800FA4
:1045900003D010F0800F40F0D88013F0400F03D00C
:1045A00010F0400F40F0D58003B030BD2046FFF73B
:1045B00076FFF9E713F0010F06D010F4807F03D0E7
:1045C000226C42F00102226413F0040F04D019B1EE
:1045D000226C42F00202226413F0020F04D019B1DF
:1045E000226C42F00402226413F0080F07D010F08E
:1045F000200F00D119B1226C42F008022264226C13
:10460000002AD1D013F0200F02D010F0200F21D1BA
:1046100023685B6903F04003226C12F0080F00D19D
:1046200023B32046FFF721FD23685A6912F0400F9B
:1046300018D05A6922F040025A61A36B73B1474AFD
:104640001A65A06BFEF72FFB0028ADD0A06B036DA1
:104650009847A9E72046FFF722FFD9E72046FFF752
:10466000E8FEA1E72046FFF7E4FE9DE72046FFF7BE
:10467000E0FE0023236497E713F0100F86D010F0BC
:10468000100F83D0002301931368019353680193A3
:10469000019B536913F0400F33D0A16B0B685B682B
:1046A0009BB2002B80D0A08D98427FF67DAFE38532
:1046B000CB69B3F5807F08D1A18DE38D9BB2C91A78
:1046C00089B22046FFF7EAFE6EE7D36823F48073D1
:1046D000D3602268536923F0010353612268536950
:1046E00023F040035361202384F83E3000232363EA
:1046F0002268D36823F01003D360A06BFEF789FA19
:10470000DAE7A18DE38D9BB2C91A89B2E38D9BB222
:10471000002B3FF449AF00293FF446AFD36823F4A0
:104720009073D3602268536923F0010353612023FF
:1047300084F83E30002323632268D36823F01003FB
:10474000D3602046FFF7AAFE2EE72046FFF7A6FC1F
:104750002AE72046FFF75EFE26E700BF8D440008EB
:1047600008B5806B036B012B02D0FFF761FE08BD1B
:10477000818D4908FFF792FEF9E708B50346806B83
:104780001B681B6813F4807F16D10023C385026861
:10479000D36823F48073D3600268536923F0010364
:1047A00053610268536923F040035361202380F86A
:1047B0003E30036B012B05D0036B012B08D0FFF7B4
:1047C00036FE08BD0268D36823F01003D360F3E718
:1047D000818DFFF763FEF4E730B583B004461346DE
:1047E0008162828500250564222280F83E20826B4A
:1047F0001448D063A26B14481064A26B1348D064B1
:10480000A26B156520680A46011DA06BFEF7CCF966
:10481000019523681A6801925A680192019A84F8F6
:104820003C50DA6842F48072DA602268536943F0DF
:10483000010353612268536943F0400353612846E2
:1048400003B030BD7B4700086147000835440008CD
:1048500008B590F83E30DBB2202B0DD171B17AB1A2
:1048600090F83C30012B0DD0012380F83C30002320
:104870000363FFF7B1FF00E0022008BD0120FCE761
:104880000120FAE70220F8E7842801D003307047BE
:104890000020704708B500F035FD002008BD2DE967
:1048A000F04387B004460F464569BDB18669AEB195
:1048B000D0F80480D0F80090B0F90800FFF7E4FFCA
:1048C0000296019500903B4622694946404600F019
:1048D000A9FC0590059807B0BDE8F08365682668D7
:1048E000D4F81080B4F90800FFF7CEFF05AB0193B0
:1048F00000903B461FFA88F23146284600F0CDFC76
:104900000128E7D00020E6E708B500B9012000F053
:1049100043FE002008BD00F1080343604FF0FF3262
:104920008260C3600361002303607047002303615A
:10493000704743684B609A688A605160996008616B
:10494000036801330360704730B40D68B5F1FF3F71
:1049500011D000F108031C465B681A68AA42FAD914
:1049600063684B6099608C60616008610368013323
:10497000036030BC70470469F2E7036941688268EC
:104980008A60416851605A68824206D00022026102
:104990001A68013A1A601868704782685A60F5E729
:1049A00082B0002301930D4B1B68B3F1FF3F08D089
:1049B0004FF0500383F31188BFF36F8FBFF34F8F16
:1049C000FEE74FF0500383F31188BFF36F8FBFF3FF
:1049D0004F8F019B002BFCD002B070470C000020D1
:1049E00008480068006880F308884FF0000080F3F2
:1049F000148862B661B6BFF34F8FBFF36F8F00DFCD
:104A000000BF000008ED00E0DFF80C00016841F491
:104A1000700101607047000088ED00E04FF0807386
:104A200040F8043C21F0010140F8081C054B40F817
:104A30000C3C40F8202C6FF0020340F8243C443832
:104A4000704700BFA14900080000000000000000FE
:104A5000074B19680868B0E8F04F80F30988BFF386
:104A60006F8F4FF0000080F311887047AFF3008024
:104A7000505600204FF0500383F31188BFF36F8F1F
:104A8000BFF34F8F0B4A136801331360012B00D023
:104A900070474FF0E023D3F8043D13F0FF0FF7D039
:104AA0004FF0500383F31188BFF36F8FBFF34F8F25
:104AB000FEE700BF0C000020094B1B6843B94FF014
:104AC000500383F31188BFF36F8FBFF34F8FFEE75F
:104AD000013B034A13600BB983F31188704700BF91
:104AE0000C0000200000000000000000000000009A
:104AF000EFF30980BFF36F8F154B1A681EF0100F8C
:104B000008BF20ED108A20E9F04F10602DE9090060
:104B10004FF0500080F31188BFF34F8FBFF36F8FBA
:104B200000F060FD4FF0000080F3118809BC1968A7
:104B30000868B0E8F04F1EF0100F08BFB0EC108A04
:104B400080F30988BFF36F8F704700BFAFF3008019
:104B50005056002008B54FF0500383F31188BFF37F
:104B60006F8FBFF34F8F00F00FFC28B14FF0E023A1
:104B70004FF08052C3F8042D002383F3118808BD41
:104B80004FF0E022002313619361054B1B68054938
:104B9000A1FB03139B09013B53610723136170477A
:104BA00000000020D34D62104FF0E023D3F8002D19
:104BB0003D4B9A421CD04FF0E023D3F8002D3B4BE5
:104BC0009A421ED030B583B0394B1A78D2B20192D6
:104BD000FF221A701B78DBB28DF803309DF803308A
:104BE00003F05003334A1370334B07221A601BE063
:104BF0004FF0500383F31188BFF36F8FBFF34F8FD4
:104C0000FEE74FF0500383F31188BFF36F8FBFF3BC
:104C10004F8FFEE7284A1368013B13609DF803306D
:104C20005B00DBB28DF803309DF8033013F0800F8A
:104C3000F0D1214B1B68032B08D04FF0500383F3B6
:104C40001188BFF36F8FBFF34F8FFEE71B021A4A25
:104C5000136003F4E0631360019BDBB2144A13702A
:104C60004FF0E024D4F8203D43F47003C4F8203D15
:104C7000D4F8203D43F07043C4F8203DFFF780FF97
:104C800000250E4B1D60FFF7BFFED4F8343F43F004
:104C90004043C4F8343FFFF7A3FE00F0A3FCFFF746
:104CA0007FFE284603B030BD71C20F4170C20F4174
:104CB00000E400E0281A00202C1A00200C0000203C
:104CC000124A12F0070F1ED0D11D21F00701C1F5C5
:104CD000705313440A460E48026000214160134499
:104CE000083B23F007030B48036059601960991AC9
:104CF00051601360084B1960084B1960084B4FF066
:104D000000421A6070474FF47053E4E7341A0020F1
:104D100048560020301A00203C560020385600200B
:104D200034560020164B1A461B688342FBD3516849
:104D300002EB010C844509D0416800EB010C63458E
:104D400009D00360904219D0106070474068014458
:104D500051601046F0E710B40A4C2468A3420BD00F
:104D60005B681944416013681B680360904200D07F
:104D700010605DF8044B70470460F7E7704700BFB0
:104D800048560020301A002070B5054600F0F4FAAD
:104D9000364B1B68A3B1364B1B681D424ED135B153
:104DA000083515F0070F02D025F007050835002D4E
:104DB00046D0304B1B68AB4251D32F4A146804E0F5
:104DC000FFF77EFFE7E722461C466368AB4202D24C
:104DD0002368002BF7D1254B1B68A34241D01668EE
:104DE00008362368136063685B1B102B10D96019A9
:104DF00010F0070F08D04FF0500383F31188BFF372
:104E00006F8FBFF34F8FFEE743606560FFF78AFF48
:104E1000626818490B689B1A0B60184909688B4235
:104E200001D216490B60124B1B68134363600023C9
:104E30002360134A13680133136002E0002600E088
:104E4000002600F02DFB16F0070F0CD04FF050039A
:104E500083F31188BFF36F8FBFF34F8FFEE70026F8
:104E6000EFE70026EDE7304670BD00BF301A0020A6
:104E70003456002038560020485600203C5600206A
:104E800040560020002834D038B50446A0F108056B
:104E900050F8043C174A1268134208D14FF05003EF
:104EA00083F31188BFF36F8FBFF34F8FFEE750F886
:104EB000081C41B14FF0500383F31188BFF36F8F8B
:104EC000BFF34F8FFEE723EA020340F8043C00F0F3
:104ED00053FA54F8041C084A13680B44136028461C
:104EE000FFF720FF054A13680133136000F0D8FA7A
:104EF00038BD7047345600203856002044560020F4
:104F0000084B1B681B6823B9074B4FF0FF321A6030
:104F10007047044B1B68DB68DB685A68024B1A60F9
:104F2000704700BF54560020285700202DE9F04755
:104F300007469846089DDDF824900A9C266B02F1EE
:104F40008042013A06EB820626F0070600293AD095
:104F50008E464FF0000CBCF10F0F0BD81EF80C2042
:104F600004EB0C0383F834201EF80C3013B10CF161
:104F7000010CF0E7002384F84330062D00D9062504
:104F8000E56265644FF0000AC4F848A0201DFFF7F1
:104F9000CDFC04F11800FFF7C9FC2461C5F1070539
:104FA000A5616462C4F84CA084F850A0424639461A
:104FB0003046FFF733FD2060B9F1000F01D0C9F88A
:104FC0000040BDE8F087002384F83430D5E70000C6
:104FD00038B5002407E004EB840293000E4818441F
:104FE000FFF799FC0134062CF5D90C4D2846FFF744
:104FF00092FC0B4C2046FFF78EFC0A48FFF78BFC17
:105000000948FFF788FC0948FFF785FC084B1D603D
:10501000084B1C6038BD00BF5C560020FC560020C9
:105020001057002034570020605700204C570020B4
:10503000545600205856002010B50446FFF71AFDBC
:10504000214A136801331360204B1B685BB1204B6E
:105050001B686BB91D4B1B68DA6AE36A9A4207D872
:105060001A4B1C6004E0194B1C601368012B28D0FC
:10507000184A136801331360E06A01238340164A1B
:1050800011680B43136000EB8000211D134B03EBF1
:105090008000FFF74EFCFFF70FFD0D4B1B687BB147
:1050A0000A4B1B68DA6AE36A9A4209D24FF0E0239E
:1050B0004FF08052C3F8042DBFF34F8FBFF36F8FB3
:1050C00010BDFFF785FFD3E7E856002050560020BB
:1050D00048570020F4560020F85600205C56002067
:1050E00010B5044690F8513063B1012B11D0022B5A
:1050F0000ED04FF0500383F31188BFF36F8FBFF3CF
:105100004F8FFEE7006BFFF7BDFE2046FFF7BAFEAC
:1051100010BDFFF7B7FEFBE70F4B1B68D3B110B50F
:10512000FFF7A8FC0D4BDB68DC68201DFFF725FCB2
:105130000B4A1368013B1360074A1368013B136075
:10514000FFF7BAFC2046FFF7CBFF034B1B68002B91
:10515000E6D110BD704700BFEC560020605700201C
:10516000E856002008B5FFF7D7FF074B1B68012B57
:10517000F9D94FF0E0234FF08052C3F8042DBFF36C
:105180004F8FBFF36F8FEEE75C56002070B504467B
:105190000D461D4B1E681D4B18680430FFF7EDFBD4
:1051A00050B91A4B1B68DA6A012303FA02F2184954
:1051B0000B6823EA02030B60B4F1FF3F0DD03444C7
:1051C000124B1B685C60A64210D9124B18680F4B3B
:1051D00019680431FFF7B8FB70BD002DEFD00B4B01
:1051E000196804310C48FFF7A4FBF5E70B4B18686E
:1051F000064B19680431FFF7A7FB094B1B68A34254
:10520000EAD9074B1C60E7E774570020505600208E
:10521000F8560020585600204C57002054560020C5
:105220002857002030B587B00B9C7CB10C9DB5B1E0
:1052300054250495049D542D1AD04FF0500383F348
:105240001188BFF36F8FBFF34F8FFEE74FF050030E
:1052500083F31188BFF36F8FBFF34F8FFEE74FF0DB
:10526000500383F31188BFF36F8FBFF34F8FFEE7B7
:10527000049D0C9D2C63022485F851400024039466
:10528000029505AC01940A9C0094FFF74FFE0C9820
:10529000FFF7D2FE059807B030BD2DE9F04385B089
:1052A0000746884614461E469000FFF76DFD00B382
:1052B00081465420FFF768FD0546B0B1C0F8309034
:1052C000E5B1002385F85130039302950D9B0193BE
:1052D0000C9B00933346224641463846FFF726FE94
:1052E0002846FFF7A9FE012005E04846FFF7CAFD62
:1052F000E6E74FF0FF3005B0BDE8F0834FF0FF3038
:10530000F9E7000010B588B000240594069407AAB8
:1053100006A905A8FBF786FC059B0293069B019353
:1053200000942346079A0E490E48FFF77BFF0E4B69
:10533000186090B14FF0500383F31188BFF36F8F63
:10534000BFF34F8F094B4FF0FF321A60084B012219
:105350001A60084B1C60FFF727FC08B010BD00BFA7
:105360004C71000865510008245700202857002080
:105370004857002074570020024A13680133136015
:10538000704700BFF0560020F8B53A4B1B68002B61
:1053900069D1394B1D6801351D60C5B9374B1B6894
:1053A0001B6843B14FF0500383F31188BFF36F8F35
:1053B000BFF34F8FFEE7314A1168314B1868106018
:1053C0001960304A136801331360FFF799FD2E4BC3
:1053D0001B68AB423DD900272C4B1B68DB6A03EBF3
:1053E00083039A002A4B9B58012B00D90127294B94
:1053F0001B68002B3CD001273AE001271F4B1B689C
:105400001B6843B31D4B1B68DB68DC6863689D4207
:1054100026D3261D3046FFF7B0FAA36A1BB104F16C
:105420001800FFF7AAFAE36A01229A401A490868AD
:1054300002430A6003EB83039A0031461448104488
:10544000FFF777FAE26A114B1B68DB6A9A42D4D203
:10545000D4E70027D2E70C4B4FF0FF321A60BBE7CE
:10546000094A1360B8E70D4A136801331360002737
:105470003846F8BDF05600207457002054560020DE
:10548000585600202C570020285700205056002046
:105490005C56002078570020F85600203057002036
:1054A00038B5354B1B6843B94FF0500383F311886F
:1054B000BFF36F8FBFF34F8FFEE7FFF7DBFA2E4B83
:1054C0001A68013A1A601B68002B4FD12B4B1B68DE
:1054D0000BB900244BE00024294B1B681BB3284B5D
:1054E000DB68DC6804F11800FFF747FA251D284641
:1054F000FFF743FAE06A01238340224A11680B4315
:10550000136000EB800029461F4B03EB8000FFF780
:1055100010FAE26A1D4B1B68DB6A9A42DCD31C4B13
:1055200001221A60D8E70CB1FFF7EAFC194B1C689E
:1055300084B9174B1C68D4B14FF0E0234FF0805270
:10554000C3F8042DBFF34F8FBFF36F8F01240EE01C
:10555000013C07D0FFF718FF0028F9D00C4B0122BF
:105560001A60F5E70B4B00221A60E2E70024FFF710
:10557000A3FA204638BD00BFF0560020E8560020B0
:1055800034570020F85600205C560020505600206A
:10559000785700203057002010B5A8B10446104BB2
:1055A0001B6843B14FF0500383F31188BFF36F8F33
:1055B000BFF34F8FFEE7FFF7DFFE00212046FFF726
:1055C000E5FDFFF76DFF48B94FF0E0234FF0805243
:1055D000C3F8042DBFF34F8FBFF36F8F10BD00BF13
:1055E000F0560020204B1B681BB1204B01221A6093
:1055F00070471E4B00221A601D4B1B68B3FA83F3E1
:10560000DBB2C3F11F0303EB83018A0019498A58F7
:1056100042B94FF0500383F31188BFF36F8FBFF38C
:105620004F8FFEE7134903EB830082000A44506862
:105630004068506003EB830C4FEA8C02083211443F
:10564000884209D003EB83039A000A4B13445B683A
:10565000DA68094B1A607047406862469100054A53
:105660000A445060EEE700BFF05600207857002053
:10567000F85600205C56002050560020DFF834D049
:105680000D480E490E4A002302E0D458C45004339A
:10569000C4188C42F9D30B4A0B4C002301E0136071
:1056A0000432A242FBD3FCF7C5F800F011F8FBF777
:1056B00073FD704700000220000000203C04002021
:1056C0006C7100083C04002080570020FEE70000B9
:1056D00070B50D4E0D4D761BB61006D0002455F852
:1056E000043B01349847A642F9D1094E094D761B77
:1056F00000F0D4F8B61006D0002455F8043B01346D
:105700009847A642F9D170BD607100086071000829
:105710006871000860710008830730B548D0541ED6
:10572000002A3FD0CAB2034601E0013C3AD303F855
:10573000012B9D07F9D1032C2DD9CDB245EA0525C2
:105740000F2C45EA054536D9A4F1100222F00F0CC2
:1057500003F1200EE6444FEA121C03F1100242E965
:10576000045542E9025510327245F8D10CF101029C
:1057700014F00C0F03EB021204F00F0C13D0ACF179
:10578000040323F003030433134442F8045B9342FD
:10579000FBD10CF003042CB1CAB21C4403F8012B5A
:1057A0009C42FBD130BD64461346002CF4D1F9E78E
:1057B00003461446BFE71A46A446E0E7024B13B17E
:1057C000024800F005B8704700000000DD570008EF
:1057D000002301461A46184600F01AB838B5084B9F
:1057E000084D5B1B9C1007D0043B1D44013C55F841
:1057F00004399847002CF9D1BDE8384000F054B87E
:105800006C71000868710008704700BF704700BFE6
:105810002DE9F047DFF880A00646DAF80000984648
:105820000F469146FFF7F0FF1A4B1B68D3F848412B
:1058300024B365681F2D26DC5EB96B1C0235DAF8CF
:105840000000636044F82570FFF7E0FF0020BDE82A
:10585000F08704EB85010123C1F88890D4F88821F2
:10586000AB401A43022EC4F88821C1F80881E4D164
:10587000D4F88C211343C4F88C31DEE703F5A67409
:10588000C3F84841D5E7DAF80000FFF7BFFF4FF053
:10589000FF30DCE75471000838040020F8B500BF81
:1058A000F8BC08BC9E467047F8B500BFF8BC08BC01
:0458B0009E46704759
:1058B400245900087D0D00080300000000000000CA
:1058C40080000000000000000000000034590008BF
:1058D400BB0D000800000000000000008000000074
:1058E4000000000000000000405900089D0D000861
:1058F4000200000000000000800000000000000022
:105904000000000050590008B10D0008010000001B
:105914000000000080000000000000000000000003
:1059240050657263657074696F6E5F7461736B0048
:105934004F4C45445F7461736B00000044656369B8
:1059440073696F6E5F7461736B0000004578656303
:105954007574655F7461736B0000000000000000E3
:10596400000000000102030406070809000000000B
:10597400010203045000000052000000590000001E
:105984000000000000000000000000000000000013
:105994003F400000000000000000300040003000E4
:1059A4004000000009000BC03D000BC03D00090091
:1059B40018C024407FE0224031800000180024C039
:1059C4001B000D803240018003801C4027401C8056
:1059D40007400040100060000000000000000000CC
:1059E4000000000000001F802040402000004020F4
:1059F40020401F8000000000090006001F800600F0
:105A040009000000040004003F80040004000000BA
:105A1400001000600000000000000000040004000A
:105A24000400040004000000000000400000000026
:105A340000000000002001C0060038004000000003
:105A44001F802040204020401F80000000001040A4
:105A54003FC000400000000018C021402240244004
:105A64001840000010802040244024401B80000087
:105A740002000D0011003FC0014000003C802440A2
:105A840024402440238000001F80244024403440CC
:105A9400038000003000200027C0380020000000F0
:105AA4001B802440244024401B8000001C0022C092
:105AB400224022401F800000000000000840000037
:105AC400000000000000000004600000000000006E
:105AD400000004000A001100208040400900090071
